:020000040002F8
:100000004019002095020200ED5002001522020066
:10001000E5500200A1050200E17D020000000000A1
:10002000000000000000000000000000115C020061
:10003000C51A020000000000B95B0200BD630200A7
:100040001D22020031220200452202005922020034
:100050006D2202008122020095220200A9220200E4
:10006000BD220200D1220200E5220200F922020094
:100070000D23020021230200352302004923020040
:100080005D230200712302008523020099230200F0
:10009000AD230200C1230200D5230200E9230200A0
:1000A000FD2302001124020025240200392402004D
:1000B0004D240200612402007524020089240200FC
:1000C0009D240200B5240200CD240200E524020094
:1000D000FD240200152502002D2502004525020001
:1000E0005D250200752502008D250200A525020070
:1000F000BD250200D5250200ED25020005260200DF
:100100001D260200352602004D260200652602004B
:100110007D26020095260200AD260200C5260200BB
:10012000DD260200F52602000D2702002527020029
:100130003D270200552702006D2702008527020097
:100140009D270200B5270200CD270200E527020007
:10015000FD270200152802002D2802004528020074
:100160005D280200752802008D280200A5280200E3
:10017000BD280200D5280200ED2802000529020052
:100180001D290200352902004D29020065290200BF
:100190007D29020095290200AD290200C52902002F
:1001A000DD290200F52902000D2A0200252A02009D
:1001B0003D2A0200552A02006D2A0200852A02000B
:1001C0009D2A0200B52A0200CD2A0200E52A02007B
:1001D000FD2A0200152B02002D2B0200452B0200E8
:1001E0005D2B0200752B02008D2B0200A52B020057
:1001F000BD2B0200D52B0200ED2B0200052C0200C6
:100200001D2C0200352C02004D2C0200652C020032
:100210007D2C0200952C0200AD2C0200C52C0200A2
:10022000DD2C0200F52C02000D2D0200252D020010
:100230003D2D0200552D02006D2D0200852D02007E
:100240009D2D0200ED2E02005533020031340200D4
:10025000F9360200D7020200D7020200D7020200DC
:1002600069380200893B0200113E02004D40020045
:100270007541020089430200E5450200F94602008B
:10028000DFF80CD000F0B8F80048004759820200AF
:100290004019002010484FF0770101600F484FF0DF
:1002A000770101600E484FF4885101600A484FF011
:1002B0007601016009484FF07601016009488047E6
:1002C00009480047FEE7FEE7FEE7FEE7FEE7FEE738
:1002D000FEE7FEE7FEE7FEE7040805400C080540E0
:1002E000000805403D650200810202002DE9F05F33
:1002F0000546002092469B46884606468146402495
:100300001BE0284641464746224600F064F8534623
:100310005A46C01A914110D311461846224600F0A1
:100320004BF82D1A67EB01084F46224601200021A9
:1003300000F042F817EB00094E41201EA4F1010421
:10034000DFDC484631462A464346BDE8F09FD2B23C
:1003500001E000F8012B491EFBD270470022F6E7AE
:1003600010B513460A4604461946FFF7F0FF20462B
:1003700010BD30B504460020034600E05B1C9342EC
:1003800003D2E05CCD5C401BF8D030BD30B50B46ED
:10039000014600202022012409E021FA02F59D42B5
:1003A00005D303FA02F5491B04FA02F52844151E89
:1003B000A2F10102F1DC30BD202A04DB203A00FA70
:1003C00002F1002070479140C2F1200320FA03F3AC
:1003D000194390407047202A04DB203A21FA02F0AA
:1003E0000021704721FA02F3D040C2F1200291406F
:1003F0000843194670470000064C074D06E0E068C8
:1004000040F0010394E8070098471034AC42F6D35B
:10041000FFF73AFFA88F0200C88F02007FB505469C
:100420000020029003906878012840D06878022864
:100430003DD0687806283AD100201D4908701D4932
:10044000087002208DF808008DF8090002A9012328
:10045000FF22CDE900100021084607F0CBFB022067
:1004600002A90123FF22CDE900101946002007F060
:10047000C1FB002418E004EB44010F4800EB4100ED
:10048000807880B104EB44030B4800EB4300027911
:1004900004EB4403084800EB4300817800234FF449
:1004A000017004F0EFFD641CC82CE4DB00BF7FBDCD
:1004B0002A80FF1FCC090020090A002030B504461D
:1004C000A0786178884219D0A378201D10F83330C5
:1004D000A57800EBC500407843EA0021201D00EB21
:1004E000C50000234268F02004F0CCFDA078401C39
:1004F000052190FBF1F201FB1200A07030BD70B538
:10050000047804B170BD012404704578041D04F81A
:100510003510457804EBC50462704578041D04EB82
:10052000C50463604478641C052594FBF5F605FB5F
:100530001644447000BFE5E72DE9F04705460E4636
:10054000144600270021284606F008FC80460121B9
:10055000284606F003FC8146012C07D1B8F1010FB3
:1005600002D0B9F1010F08D1012706E03146284633
:1005700006F0F4FB012800D10127012F0BD1002048
:1005800001E000BF401C0549096842F21072B1FB4E
:10059000F2F18142F5D8BDE8F08700000080FF1F2E
:1005A00010B5AFF3008010BD70B504460D46002CA9
:1005B00062D000BF0DB1012D00D104E04FF4847171
:1005C0002EA001F043FA00BF3648007820F08000EA
:1005D000803034490870217A32481430007861F351
:1005E00003003049143108700846007820F02000DC
:1005F0000870091D20680860081F007820F020009E
:100600002030091F0870091D60680860607A410881
:1006100024481830006861F39E7022491831086040
:10062000607A096860F35D711E4818300160012D21
:100630000AD1801E0078227A01219140C9B2084374
:1006400018491631087009E0164816300078227AE9
:1006500001219140884313491631087000BF00BF43
:100660001048007820F080000E4908700846007895
:10067000C0090028F4D100BF70BD00002E2E5C2EF2
:100680002E5C2E2E5C2E2E5C6472697665725C7315
:1006900072635C68633332663436785F63616E2EF2
:1006A00063000000A004074000286DD0827837491D
:1006B000097862F3C711354A1170C2783349491E6F
:1006C000097862F34511314A521E117002782F49A0
:1006D000097862F3C3012D4A117042782B490978D9
:1006E00062F38611294A11700021521C1170111FEA
:1006F000097821F080018031121F1170C2792349DD
:10070000491D096862F31F61204A521D1160027978
:100710001E49491D096862F307011C4A521D1160F8
:1007200042791A49491D096862F30E21174A521D80
:10073000116082791549491D096862F31641134A0F
:10074000521D1160027A1149091D097862F30711DF
:100750000E4A121D1170427A0C49091D097862F384
:1007600003010A4A121D117000BF00BF0749C91ECC
:10077000097821F08001054AD21E117011460978CE
:10078000C9090029F2D100BF70470000A304074047
:1007900070B504460E4600BF802C14D0402C12D0F9
:1007A000202C10D0102C0ED0082C0CD0042C0AD0E9
:1007B000022C08D0B4F5001F05D0B4F5002F02D0EC
:1007C000B4F5003F00D104E04FF4DA710CA001F061
:1007D0003DF900BF00BF0EB1012E00D104E040F290
:1007E000B51107A001F032F900BF0F4D012E03D162
:1007F00028682043286002E02868A043286070BD74
:100800002E2E5C2E2E5C2E2E5C2E2E5C6472697653
:1008100065725C7372635C68633332663436785F2A
:1008200063616E2E63000000A404074070B50446A7
:10083000002500BF012C26D0B4F5004F23D0B4F51D
:10084000804F20D0B4F5005F1DD0B4F5805F1AD082
:10085000B4F5006F17D0B4F5806F14D0B4F5007FF5
:1008600011D0B4F5807F0ED0B4F5000F0BD0B4F5E5
:10087000800F08D0B4F5801F05D0B4F5802F02D0CA
:10088000B4F5803F00D104E040F2ED1104A001F086
:10089000DDF800BF0C4D28682043286070BD0000C3
:1008A0002E2E5C2E2E5C2E2E5C2E2E5C64726976B3
:1008B00065725C7372635C68633332663436785F8A
:1008C00063616E2E63000000A404074070B5044607
:1008D0000025002600BF012C26D0B4F5004F23D000
:1008E000B4F5804F20D0B4F5005F1DD0B4F5805F23
:1008F0001AD0B4F5006F17D0B4F5806F14D0B4F5EA
:10090000007F11D0B4F5807F0ED0B4F5000F0BD06E
:10091000B4F5800F08D0B4F5801F05D0B4F5802F52
:1009200002D0B4F5803F00D104E040F2D31105A01D
:1009300001F08CF800BF0D4D2868204000B1012661
:10094000304670BD2E2E5C2E2E5C2E2E5C2E2E5C24
:100950006472697665725C7372635C686333326675
:100960003436785F63616E2E63000000A404074094
:100970000146B9B10E48006808600D48001D0068C6
:1009800048600B4808300068886009480C300268ED
:10099000CA600748A330007820F010001030044AE5
:1009A000A33210700248A330007800F003007047B3
:1009B0000004074010B54FF40040FFF787FFD8B19F
:1009C0004FF40040FFF732FF0C48FFF7D1FF0B4810
:1009D0000068B0F5427F07D00848016808480078F1
:1009E00000F54270814207D10448008881B2034A71
:1009F0000832044800F06CFD10BD0000F40E002029
:100A0000C80E002010FEFF1FF8B1027C0F490978C4
:100A100062F3C7110D4A11700C4A513A0168116016
:100A2000121D41681160121D81681160121DC1689C
:100A30001160017C012908D10449491C097821F081
:100A400040014031014A521C11707047A104074017
:100A500010B5044600BF102C07D0082C05D0042C7C
:100A600003D0022C01D0012C00D104E040F251113E
:100A700006A000F0EBFF00BF0E48007820430D49B0
:100A80000870481C007800F0030010BD2E2E5C2E6C
:100A90002E5C2E2E5C2E2E5C6472697665725C7301
:100AA00072635C68633332663436785F63616E2EDE
:100AB00063000000A104074070B50021002200245B
:100AC000002300287ED0434D2D7805F00705052D25
:100AD00015D2DFE805F00306090D10003E4D056054
:100AE0003BE03E4D056038E04FF40045056034E0E2
:100AF0003A4D056031E04FF4004505602DE0354D7D
:100B0000DA352D68C5F3C013324D263DD5F80051B6
:100B10002A0F304DDA352D68C5F308212D4D263DBD
:100B2000D5F8005105F01F0453B9651C2B4EB6FBD8
:100B3000F5F54E1C7543561CB5FBF6F505600BE04C
:100B4000012B09D1651C244EB6FBF5F54E1C7543EF
:100B5000561CB5FBF6F5056000BF00BF1D4E263ED6
:100B60000568366AC6F30266F5404560194E263EB2
:100B70000568366AC6F30256F5408560154E263E76
:100B80000568366A06F00706F540C560114E263E38
:100B90000568366AC6F30216F54005610D4E263E1D
:100BA0000568366AC6F30226F5404561094E263EC1
:100BB0000568366AC6F30236F5408561054E263E65
:100BC000056800E004E0366AC6F30246F540C561F8
:100BD00070BD0000264005400024F40000127A0099
:100BE00070B5044600BF3CB1012C05D0022C03D0E7
:100BF000032C01D0042C00D104E040F26F611EA050
:100C000000F024FF00BF34B1012C0DD0022C14D011
:100C1000032C24D11AE02248007800F0010080F073
:100C2000010080F0010524E01D480078C0F3C000F9
:100C300080F0010080F001051BE019480078C0F346
:100C4000401080F0010080F0010512E014480078A7
:100C5000C0F3801080F0010080F0010509E0104829
:100C6000401D007800F0010080F0010080F00105D7
:100C700000BF00BF284670BD2E2E5C2E2E5C2E2E8F
:100C80005C2E2E5C6472697665725C7372635C685C
:100C9000633332663436785F636C6B2E630000001A
:100CA0003C400540F8B5044600200090002600BFF7
:100CB0000CB1012C00D104E040F24D3120A000F035
:100CC000C5FE00BF284800884AF201510843274961
:100CD000A1F8FE0394B925482630007800F00700FB
:100CE000052801D101261FE020482A30007820F095
:100CF0000100401C1D4981F82A0015E01B482A30DC
:100D0000007820F00100194981F82A0000BF022074
:100D1000FFF766FF05460098401C00900098B0F56C
:100D2000805F01D2012DF2D10F4800884FF6FE718D
:100D3000084040F425400D49A1F8FE033046F8BDB7
:100D40002E2E5C2E2E5C2E2E5C2E2E5C647269760E
:100D500065725C7372635C68633332663436785FE5
:100D6000636C6B2E63000000FE43054000400540AD
:100D700070B5044600250026002C7DD000BF2068F9
:100D8000022803D32068102800D804E040F21B3169
:100D900054A000F05BFE00BF00BF6068012803D3D1
:100DA0006068102800D804E04FF447714DA000F0AF
:100DB0004DFE00BF00BFA068022803D3A068102822
:100DC00000D804E040F21D3146A000F03FFE00BF15
:100DD00000BFE068142804D3E068B0F5F07F00D8C5
:100DE00004E040F21E313FA000F030FE00BF00BF23
:100DF0002069012803D32069182800D804E040F2B4
:100E00001F3138A000F022FE00BF40480068C0F348
:100E1000C01008B93E4800E03E482169B0FBF1F53A
:100E2000E06800FB05F600BF3B48854203D33B4822
:100E3000854200D804E040F226312AA000F006FEE8
:100E400000BF00BF3648864203D34000864200D828
:100E500004E040F2273123A000F0F8FD00BF314844
:100E600000884AF2015108432E4908802078401E2C
:100E70002D49D1F8001100E032E060F31F712348E2
:100E800001602079401E2849D1F8001160F31B61F0
:100E90001E480160207A401E2349D1F8001160F3FA
:100EA00017511A480160A089401E1F49D1F800114E
:100EB00060F3102115480160207C401E1A49D1F8CA
:100EC000001160F304011848C0F80011B0F8FE03E7
:100ED0004FF6FE71084040F425401349A1F8FE0387
:100EE00070BD00002E2E5C2E2E5C2E2E5C2E2E5CF5
:100EF0006472697665725C7372635C6863333266D0
:100F00003436785F636C6B2E63000000004105404F
:100F100000127A000024F40040420F0000366E01F7
:100F2000001C4E0EFE4305400040054010B504462F
:100F300000BF0CB1012C00D104E04FF43F710FA0B1
:100F400000F084FD00BF174800884AF201510843B1
:100F50001549A1F8FE030846D0F8000164F3C71054
:100F6000C1F800010846B0F8FE034FF6FE710840D4
:100F700040F425400C49A1F8FE0310BD2E2E5C2E36
:100F80002E5C2E2E5C2E2E5C6472697665725C730C
:100F900072635C68633332663436785F636C6B2EE1
:100FA00063000000FE4305400040054010B586B0D8
:100FB0000446002005903548006804903348406896
:100FC00003903248806802903048C068019000BFAA
:100FD0001CB1012C02DB052C00DC04E040F2DD3109
:100FE0002BA000F033FD00BF3348007800F007006D
:100FF000052801D0052C0DD1304824490860C012C5
:1010000048608860C86000BF0598401C059005983E
:10101000B028F9D32A4800884AF2015108432649EA
:101020002639A1F8FE03084690F8260064F3020072
:1010300081F826000846B0F8FE034FF6FE7108401E
:1010400040F425401C492639A1F8FE0300200590F4
:1010500000BF0598401C05900598B028F9D30B49AE
:101060000498086003984860029888600198C860F6
:101070000020059000BF0598401C05900598B028F9
:10108000F9D305F0F9F906B010BD00000080044066
:101090002E2E5C2E2E5C2E2E5C2E2E5C64726976BB
:1010A00065725C7372635C68633332663436785F92
:1010B000636C6B2E6300000026400540EEFAFFFFD4
:1010C000FE43054010B586B0044600200590544804
:1010D000006804905248406803905148806802902C
:1010E0004F48C0680190002C7ED000BF2078E17886
:1010F000884232DC2078617988422EDC2078A17920
:1011000088422ADCA078E178884226DCA0786179E0
:10111000884222DC2079A179401A03281CD020794A
:10112000A179401A022817D02079A179401A012804
:1011300012D02079A179401A0ED0A0792179401AD5
:10114000012809D0A0792179401A022804D0A07979
:101150002179401A032800D104E040F2364131A041
:1011600000F074FC00BF3948007800F00700052843
:101170000DD137482A490860C01248608860C860AD
:1011800000BF0598401C05900598B028F9D3314858
:1011900000884AF2015108432E490880A078E1787E
:1011A00040EA0110217940EA0120617940EA0130EA
:1011B000A17940EA0140617840EA0150217840EA93
:1011C000016040EA017021492639086221480088FF
:1011D0004FF6FE71084040F425401C492639A1F81D
:1011E000FE030020059000E018E000BF0598401CB9
:1011F00005900598B028F9D3094904980860039828
:101200004860029888600198C8600020059000BF7F
:101210000598401C05900598B028F9D306B010BD7C
:10122000008004402E2E5C2E2E5C2E2E5C2E2E5C1A
:101230006472697665725C7372635C68633332668C
:101240003436785F636C6B2E6300000026400540E7
:10125000EEFAFFFFFE430540F8B50446002000907B
:10126000002600BF0CB1012C00D104E04FF4D07176
:1012700031A000F0EBFB00BF00BF0CB1012C00D18E
:1012800004E04FF4D1712CA000F0E0FB00BF344823
:1012900000884AF2015108433249A1F8FE034CBBD1
:1012A00030482630007800F00700032801D10126DD
:1012B00036E02D480068C0F3C01088B929482A30AC
:1012C000007800F0010008B9012629E025483230F5
:1012D000007820F00100401C224981F832001FE014
:1012E00020483230007820F00100401C1D4981F870
:1012F000320015E01B483230007820F00100194917
:1013000081F8320000BF0120FFF76AFC0546009813
:10131000401C00900098B0F5805F01D2012DF2D101
:101320000F4800884FF6FE71084040F425400D49F3
:10133000A1F8FE033046F8BD2E2E5C2E2E5C2E2E1C
:101340005C2E2E5C6472697665725C7372635C6895
:10135000633332663436785F636C6B2E6300000053
:10136000FE430540004005400041054058B3164982
:1013700009884AF201521143134A11800278124936
:101380001231097862F3C7110F4A12321170427894
:101390000D491231097862F386110B4A123211702D
:1013A000827809491231097862F30511064A12322E
:1013B0001170054909884FF6FE72114041F425412C
:1013C000024AA2F8FE137047FE4305400040054064
:1013D00010B540F2DE510448FEF7C0FF40F2DE5186
:1013E0000248FEF7BBFF10BD10FEFF1FEE030020FA
:1013F00070B586B004460E462078617888425DD08C
:10140000002507E0617804F5977000EBC100405DAE
:1014100070556D1C082DF5DB2A48844244D1617853
:10142000A01C30F811000190029820F00F00083045
:101430000290029820F080000290029820F0400074
:10144000029001208DF81400002508E0617804F571
:10145000977000EBC100415D03A841556D1C0298D7
:1014600000F00F00A842F1DC01A8FFF7CDFA02203E
:10147000FFF7EEFA0020144908600FE012480068F8
:1014800005280BD36078401C962190FBF1F201FBFC
:10149000120060706FF0010006B070BD0B4800785C
:1014A00000F003000028E9D16078401C962190FBF1
:1014B000F1F201FB120060700120EDE74FF0FF3008
:1014C000EAE70000EE0300203480FF1FA20407407B
:1014D00070B50B460578841C24F81530002107E010
:1014E000555C067800F5977404EBC6046554491CF6
:1014F0000829F5DB0478641C962594FBF5F605FBBA
:101500001644047070BD000030B585B005460C4629
:101510000095019820F00F0008300190019820F00C
:1015200080000190019820F04000019001208DF88A
:10153000100020788DF80800174801788DF8091000
:10154000A1788DF80A10E1788DF80B1021798DF8CB
:101550000C1061798DF80D10A1798DF80E10E179DC
:101560008DF80F106846FFF74FFA0220FFF770FA68
:1015700000200A49086007E008480068052803D3EE
:101580004FF0FF3005B030BD0548007800F0030093
:101590000028F1D100BFF5E7C80E00203480FF1FFE
:1015A000A204074030B587B00446002001900290A5
:1015B00020788DF80C0060788DF80D00A078E17827
:1015C00040EA0120ADF814002079617940EA012059
:1015D000ADF81600A079E17940EA0120ADF81800D5
:1015E000A0788DF80E00E0788DF80F0020798DF846
:1015F000100060798DF81100A0798DF81200E07963
:101600008DF81300BDF814509DF80C00042821D06B
:1016100007DC78B1012811D0022813D003280CD19F
:1016200014E008281AD0D2281CD0D4282DD0E128C4
:10163000F5D1E2E003A804F0FBFCE3E003A803F02B
:10164000ABFBDFE003A804F07FFDDBE003A804F0C0
:101650008CFED7E003A8FEF7E1FED3E003A803F079
:101660009BFDCFE09DF80D0000F0800060B19DF87B
:101670000D0000F07F0065490978884200D0C1E084
:1016800005F07F0003F06AFCBCE09DF80E00022824
:1016900002D103F0B9F8AFE09DF80E00032811D194
:1016A0009DF80F0038B100205949087004F070FE11
:1016B00006F038FAA0E0002056490860012056499B
:1016C000086099E09DF80E00042830D19DF81100C3
:1016D0008DF804009DF812008DF805009DF81300A8
:1016E0008DF806009DF80D0000F08000002879D0EC
:1016F0009DF80F0045498978884208D09DF8101060
:101700004248C07800F00F00814200D07AE09DF896
:101710000D0042490870424800210160416081602B
:10172000BDF8041001809DF8061081706AE09DF8F4
:101730000E00052820D19DF80F008DF804009DF8BB
:1017400010008DF805009DF811008DF806009DF839
:1017500012008DF807009DF813008DF808009DF821
:101760000D0000F08000E8B32D480199C0F8031087
:101770009DF80810C17145E09DF80E0006283BD188
:101780009DF80F008DF804009DF810008DF80500FD
:101790009DF811008DF806009DF812008DF80700E5
:1017A0009DF80D0000F08000E0B11D4801998160B6
:1017B0000C2216490A31FEF7DCFDE0B91748007823
:1017C00000F07F0011490870084601784FF4683036
:1017D00000F0B8F90D49097841F08001D42242EABD
:1017E000012000E008E000231A464FF4837103F063
:1017F00049FC03F0C3F905E004E0BDF8160006F06B
:101800006FFA00BF00BF07B030BD0000C80E002057
:101810002980FF1F2C80FF1F3080FF1F0E80FF1FBD
:10182000BE81FF1F00B58BB000BF0020009001906B
:10183000029000BF00BF089009900A9000BF00BF4F
:1018400005900690079000BF00BF3D480021016051
:1018500041608160C16000BF00BF00200390049020
:1018600000BF48F24300ADF80A0000208DF80700E1
:10187000684604F0D1F80121084604F04DF8002331
:1018800033224FF48071012003F022FF0023322223
:101890004FF40071012003F01BFF4FF400410320BF
:1018A00003F0AAFE0122D103032003F067FE00210A
:1018B00008A8C17104208DF82400012108A84171F5
:1018C000002181710A2141720F208DF8280000202B
:1018D0008DF8200001208DF821008DF822000020D5
:1018E0008DF8230008A8FEF7DFFE00208DF81D000C
:1018F0008DF81C0005906FF060400690012105A84E
:10190000FEF752FE01218020FEF742FF0020ADF8D5
:101910000E004FF4F370ADF80C000A48049003A8D1
:1019200006F02CFCBDF90E00002106F00BFBBDF902
:101930000E0006F0C9FA002006F0E2FA0BB000BD76
:10194000F40E0020B50902007FB50020029003903C
:101950003848006801280DD137480068B0F5FA7F93
:1019600008DD002034490860022032490860012067
:10197000324908702F480068022825D12E48006897
:10198000C82821DD00202C4908602A49086000256C
:1019900018E005EB45012A4810F8110080B105EB6D
:1019A0004503274800EB4300027905EB4503244833
:1019B00000EB4300817800234FF4017003F062FBD9
:1019C000681CC5B2C82DE4DB1C48007800B97FBD97
:1019D00002208DF8080000208DF80900002424E082
:1019E00004EB4401164800EB41008078D8B104EBC9
:1019F0004401134800EB410080788DF80A00032071
:101A000002A904EB4403CDE900100D4800EB4300AC
:101A1000827804EB44030A4800EB43004178022338
:101A2000184606F0E7F8601CC4B2C82CD8DB00BF2B
:101A3000CDE700003080FF1F2C80FF1F2980FF1F93
:101A4000090A002010B504F0A3FC10BD04460D46A1
:101A50002A46214602A006F027FA00BFFEE7000052
:101A600057726F6E6720706172616D657465727315
:101A70002076616C75653A2066696C652025732057
:101A80006F6E206C696E652025640D0A00000000F1
:101A900008B5002200920021094A116842F2107232
:101AA000B1FBF2F106E0009100BF009A531E0093D3
:101AB000002AFAD1021EA0F10100F4D108BD0000F5
:101AC0000080FF1F10B5AFF3008010BD04494860CF
:101AD00000BF03490968C1F380110029F9D070479C
:101AE00000100240014908607047000014040140E2
:101AF00010B5044600BF0CB1012C00D104E04FF436
:101B0000A67105A0FFF7A2FF00BF0D48006864F3AF
:101B100000000B49086010BD2E2E5C2E2E5C2E2E70
:101B20005C2E2E5C6472697665725C7372635C68AD
:101B3000633332663436785F65666D2E630000006D
:101B40000C04014070B504460D4600F0C1F9204672
:101B500000F07AF82946204600F054F900F068F8C1
:101B600070BD000010B5044600BF0CB1012C00D1BF
:101B700003E0DC2107A0FFF769FF00BF012C01D0C3
:101B8000012100E000210D48006861F300000B49CD
:101B9000086010BD2E2E5C2E2E5C2E2E5C2E2E5C30
:101BA0006472697665725C7372635C686333326613
:101BB0003436785F65666D2E6300000004040140D2
:101BC00010B5044600BF012C0CD0022C0AD0042C06
:101BD00008D0082C06D0102C04D0202C02D0B4F54C
:101BE000807F00D104E04FF4D27106A0FFF72EFFF2
:101BF00000BF0E480068204008B1012010BD002041
:101C0000FCE700002E2E5C2E2E5C2E2E5C2E2E5C11
:101C10006472697665725C7372635C6863333266A2
:101C20003436785F65666D2E630000001004014055
:101C300004480068012804D143F2102001490860DB
:101C400008607047000401402DE9F0410446002679
:101C5000002700BF1CB11CB11F48844200D804E01B
:101C600040F20B311DA0FFF7F1FE00BF3F20FFF750
:101C700039FF24480068C0F300452248006820F47A
:101C80008030204908600120FFF732FF042000F077
:101C90003DF81D48206005E0701C86B2B6F5805FF7
:101CA00000D90927174808300068C0F30020002831
:101CB000F2D01020FFF716FF002000F027F80020D8
:101CC000FFF716FF0F48006865F310400D490860E4
:101CD0003846BDE8F0810000DFFF07002E2E5C2EA5
:101CE0002E5C2E2E5C2E2E5C6472697665725C739F
:101CF00072635C68633332663436785F65666D2E76
:101D000063000000080401407856341210B5044600
:101D100000BF6CB1012C0BD0022C09D0032C07D0D2
:101D2000042C05D0052C03D0062C01D0072C00D1A3
:101D300004E04FF4B37105A0FFF788FE00BF0D4823
:101D4000006864F306100B49086010BD2E2E5C2E4F
:101D50002E5C2E2E5C2E2E5C6472697665725C732E
:101D600072635C68633332663436785F65666D2E05
:101D7000630000000C04014010B5044600BFECB144
:101D8000012C1BD0022C19D0032C17D0042C15D0F9
:101D9000052C13D0062C11D0072C0FD0082C0DD0F9
:101DA000092C0BD00A2C09D00B2C07D00C2C05D0F9
:101DB0000D2C03D00E2C01D00F2C00D103E0FD21FF
:101DC00005A0FFF743FE00BF0D48006864F307104D
:101DD0000B49086010BD00002E2E5C2E2E5C2E2EAE
:101DE0005C2E2E5C6472697665725C7372635C68EB
:101DF000633332663436785F65666D2E63000000AB
:101E0000080401402DE9F04104460D464FF000085A
:101E1000002700BF1CB11CB12148844200D804E057
:101E200040F22A211FA0FFF711FE00BF3F20FFF75D
:101E300059FE26480068C0F300462448006820F494
:101E40008030224908600120FFF752FE0120FFF791
:101E50005DFF256006E0781C87B2B7F5805F01D989
:101E60004FF00908194808300068C0F30020002826
:101E7000F1D02068A84201D04FF001081020FFF7F0
:101E800031FE0020FFF742FF0020FFF731FE0F4830
:101E9000006866F310400D4908604046BDE8F081D7
:101EA000DFFF07002E2E5C2E2E5C2E2E5C2E2E5C6D
:101EB0006472697665725C7372635C686333326600
:101EC0003436785F65666D2E6300000008040140BB
:101ED00040F223100249086043F210200860704766
:101EE0000004014070B5044600BF207860B320783C
:101EF000012829D02078022826D02078032823D052
:101F00002078042820D0207805281DD020780628A5
:101F10001AD02078072817D02078082814D02078E5
:101F2000092811D020780A280ED020780B280BD051
:101F300020780C2808D020780D2805D020780E288D
:101F400002D020780F2800D103E08F210CA0FFF7EA
:101F50007DFD00BF20781649042212FB0015617830
:101F6000286861F3C7102860A178286861F305101C
:101F70002860E178286861F301002860002070BDC6
:101F80002E2E5C2E2E5C2E2E5C2E2E5C64726976BC
:101F900065725C7372635C68633332663436785F93
:101FA0006578696E745F6E6D695F7377692E630023
:101FB0001010054010B503F0C7F804462346002270
:101FC00011464FF4827003F05DF810BD10B503F0B8
:101FD000BBF804462346002211464FF4827003F0FA
:101FE00051F810BD10B503F0AFF8044623460022A7
:101FF00011464FF4827003F045F810BD10B503F0A0
:10200000A3F804462346002211464FF4827003F0E1
:1020100039F810BD00B585B000BF0020049000BFA6
:1020200000BF0290039000BF00BF0090019000BF6E
:1020300009208DF8100001208DF811008DF8120094
:1020400002208DF8130004A8FFF74CFF01208DF843
:1020500002006A4AD18C6A4AD07C6A4603F082F94F
:102060000920ADF808000A20ADF80A006548039081
:1020700002A806F083F8BDF90A0005F025FFBDF9B6
:102080000A000F2105F05EFFBDF90A0005F038FFD8
:1020900000BF0020049000BF00BF0290039000BF6B
:1020A00000BF0090019000BF0A208DF810000120B1
:1020B0008DF811008DF8120002208DF8130004A88D
:1020C000FFF710FF01208DF802004C4A118D4C4A99
:1020D000107D6A4603F046F90A20ADF808000B208F
:1020E000ADF80A004848039002A806F047F8BDF989
:1020F0000A0005F0E9FEBDF90A000F2105F022FFF4
:10210000BDF90A0005F0FCFE00BF0020049000BFEE
:1021100000BF0290039000BF00BF0090019000BF7D
:102120000B208DF8100001208DF811008DF81200A1
:1021300002208DF8130004A8FFF7D4FE01208DF8CB
:1021400002002E4A518D2E4A507D6A4603F00AF94C
:102150000B20ADF808000C20ADF80A002B480390C6
:1021600002A806F00BF8BDF90A0005F0ADFEBDF9B6
:102170000A000F2105F0E6FEBDF90A0005F0C0FED9
:1021800000BF0020049000BF00BF0290039000BF7A
:1021900000BF0090019000BF0C208DF810000120BE
:1021A0008DF811008DF8120002208DF8130004A89C
:1021B000FFF798FE01208DF80200104A918D104A19
:1021C000907D6A4603F0CEF80C20ADF808000D2093
:1021D000ADF80A000E48039002A805F0CFFFBDF944
:1021E0000A0005F071FEBDF90A000F2105F0AAFEF4
:1021F000BDF90A0005F084FE05B000BD508D020057
:10220000308D0200B51F0200CD1F0200E51F020045
:10221000FD1F020010B5AFF3008010BD10B50348DC
:10222000006810B101490868804710BD40130020C4
:1022300010B50348406810B101494868804710BD97
:102240004013002010B50348806810B10149886828
:10225000804710BD4013002010B50348C06810B17E
:102260000149C868804710BD4013002010B50348DD
:10227000006910B101490869804710BD4013002072
:1022800010B50348406910B101494869804710BD45
:102290004013002010B50348806910B101498869D6
:1022A000804710BD4013002010B50348C06910B12D
:1022B0000149C869804710BD4013002010B503488C
:1022C000006A10B10149086A804710BD4013002020
:1022D00010B50348406A10B10149486A804710BDF3
:1022E0004013002010B50348806A10B10149886A84
:1022F000804710BD4013002010B50348C06A10B1DC
:102300000149C86A804710BD4013002010B503483A
:10231000006B10B10149086B804710BD40130020CD
:1023200010B50348406B10B10149486B804710BDA0
:102330004013002010B50348806B10B10149886B31
:10234000804710BD4013002010B50348C06B10B18A
:102350000149C86B804710BD4013002010B50348E9
:10236000006C10B10149086C804710BD401300207B
:1023700010B50348406C10B10149486C804710BD4E
:102380004013002010B50348806C10B10149886CDF
:10239000804710BD4013002010B50348C06C10B139
:1023A0000149C86C804710BD4013002010B5034898
:1023B000006D10B10149086D804710BD4013002029
:1023C00010B50348406D10B10149486D804710BDFC
:1023D0004013002010B50348806D10B10149886D8D
:1023E000804710BD4013002010B50348C06D10B1E8
:1023F0000149C86D804710BD4013002010B5034847
:10240000006E10B10149086E804710BD40130020D6
:1024100010B50348406E10B10149486E804710BDA9
:102420004013002010B50348806E10B10149886E3A
:10243000804710BD4013002010B50348C06E10B196
:102440000149C86E804710BD4013002010B50348F5
:10245000006F10B10149086F804710BD4013002084
:1024600010B50348406F10B10149486F804710BD57
:102470004013002010B50348806F10B10149886FE8
:10248000804710BD4013002010B50348C06F10B145
:102490000149C86F804710BD4013002010B50448A3
:1024A000D0F8800018B10249D1F88000804710BDF3
:1024B0004013002010B50448D0F8840018B1024938
:1024C000D1F88400804710BD4013002010B50448A7
:1024D000D0F8880018B10249D1F88800804710BDB3
:1024E0004013002010B50448D0F88C0018B1024900
:1024F000D1F88C00804710BD4013002010B504486F
:10250000D0F8900018B10249D1F89000804710BD72
:102510004013002010B50448D0F8940018B10249C7
:10252000D1F89400804710BD4013002010B5044836
:10253000D0F8980018B10249D1F89800804710BD32
:102540004013002010B50448D0F89C0018B102498F
:10255000D1F89C00804710BD4013002010B50448FE
:10256000D0F8A00018B10249D1F8A000804710BDF2
:102570004013002010B50448D0F8A40018B1024957
:10258000D1F8A400804710BD4013002010B50448C6
:10259000D0F8A80018B10249D1F8A800804710BDB2
:1025A0004013002010B50448D0F8AC0018B102491F
:1025B000D1F8AC00804710BD4013002010B504488E
:1025C000D0F8B00018B10249D1F8B000804710BD72
:1025D0004013002010B50448D0F8B40018B10249E7
:1025E000D1F8B400804710BD4013002010B5044856
:1025F000D0F8B80018B10249D1F8B800804710BD32
:102600004013002010B50448D0F8BC0018B10249AE
:10261000D1F8BC00804710BD4013002010B504481D
:10262000D0F8C00018B10249D1F8C000804710BDF1
:102630004013002010B50448D0F8C40018B1024976
:10264000D1F8C400804710BD4013002010B50448E5
:10265000D0F8C80018B10249D1F8C800804710BDB1
:102660004013002010B50448D0F8CC0018B102493E
:10267000D1F8CC00804710BD4013002010B50448AD
:10268000D0F8D00018B10249D1F8D000804710BD71
:102690004013002010B50448D0F8D40018B1024906
:1026A000D1F8D400804710BD4013002010B5044875
:1026B000D0F8D80018B10249D1F8D800804710BD31
:1026C0004013002010B50448D0F8DC0018B10249CE
:1026D000D1F8DC00804710BD4013002010B504483D
:1026E000D0F8E00018B10249D1F8E000804710BDF1
:1026F0004013002010B50448D0F8E40018B1024996
:10270000D1F8E400804710BD4013002010B5044804
:10271000D0F8E80018B10249D1F8E800804710BDB0
:102720004013002010B50448D0F8EC0018B102495D
:10273000D1F8EC00804710BD4013002010B50448CC
:10274000D0F8F00018B10249D1F8F000804710BD70
:102750004013002010B50448D0F8F40018B1024925
:10276000D1F8F400804710BD4013002010B5044894
:10277000D0F8F80018B10249D1F8F800804710BD30
:102780004013002010B50448D0F8FC0018B10249ED
:10279000D1F8FC00804710BD4013002010B504485C
:1027A000D0F8000118B10249D1F80001804710BDEE
:1027B0004013002010B50448D0F8040118B10249B4
:1027C000D1F80401804710BD4013002010B5044823
:1027D000D0F8080118B10249D1F80801804710BDAE
:1027E0004013002010B50448D0F80C0118B102497C
:1027F000D1F80C01804710BD4013002010B50448EB
:10280000D0F8100118B10249D1F81001804710BD6D
:102810004013002010B50448D0F8140118B1024943
:10282000D1F81401804710BD4013002010B50448B2
:10283000D0F8180118B10249D1F81801804710BD2D
:102840004013002010B50448D0F81C0118B102490B
:10285000D1F81C01804710BD4013002010B504487A
:10286000D0F8200118B10249D1F82001804710BDED
:102870004013002010B50448D0F8240118B10249D3
:10288000D1F82401804710BD4013002010B5044842
:10289000D0F8280118B10249D1F82801804710BDAD
:1028A0004013002010B50448D0F82C0118B102499B
:1028B000D1F82C01804710BD4013002010B504480A
:1028C000D0F8300118B10249D1F83001804710BD6D
:1028D0004013002010B50448D0F8340118B1024963
:1028E000D1F83401804710BD4013002010B50448D2
:1028F000D0F8380118B10249D1F83801804710BD2D
:102900004013002010B50448D0F83C0118B102492A
:10291000D1F83C01804710BD4013002010B5044899
:10292000D0F8400118B10249D1F84001804710BDEC
:102930004013002010B50448D0F8440118B10249F2
:10294000D1F84401804710BD4013002010B5044861
:10295000D0F8480118B10249D1F84801804710BDAC
:102960004013002010B50448D0F84C0118B10249BA
:10297000D1F84C01804710BD4013002010B5044829
:10298000D0F8500118B10249D1F85001804710BD6C
:102990004013002010B50448D0F8540118B1024982
:1029A000D1F85401804710BD4013002010B50448F1
:1029B000D0F8580118B10249D1F85801804710BD2C
:1029C0004013002010B50448D0F85C0118B102494A
:1029D000D1F85C01804710BD4013002010B50448B9
:1029E000D0F8600118B10249D1F86001804710BDEC
:1029F0004013002010B50448D0F8640118B1024912
:102A0000D1F86401804710BD4013002010B5044880
:102A1000D0F8680118B10249D1F86801804710BDAB
:102A20004013002010B50448D0F86C0118B10249D9
:102A3000D1F86C01804710BD4013002010B5044848
:102A4000D0F8700118B10249D1F87001804710BD6B
:102A50004013002010B50448D0F8740118B10249A1
:102A6000D1F87401804710BD4013002010B5044810
:102A7000D0F8780118B10249D1F87801804710BD2B
:102A80004013002010B50448D0F87C0118B1024969
:102A9000D1F87C01804710BD4013002010B50448D8
:102AA000D0F8800118B10249D1F88001804710BDEB
:102AB0004013002010B50448D0F8840118B1024931
:102AC000D1F88401804710BD4013002010B50448A0
:102AD000D0F8880118B10249D1F88801804710BDAB
:102AE0004013002010B50448D0F88C0118B10249F9
:102AF000D1F88C01804710BD4013002010B5044868
:102B0000D0F8900118B10249D1F89001804710BD6A
:102B10004013002010B50448D0F8940118B10249C0
:102B2000D1F89401804710BD4013002010B504482F
:102B3000D0F8980118B10249D1F89801804710BD2A
:102B40004013002010B50448D0F89C0118B1024988
:102B5000D1F89C01804710BD4013002010B50448F7
:102B6000D0F8A00118B10249D1F8A001804710BDEA
:102B70004013002010B50448D0F8A40118B1024950
:102B8000D1F8A401804710BD4013002010B50448BF
:102B9000D0F8A80118B10249D1F8A801804710BDAA
:102BA0004013002010B50448D0F8AC0118B1024918
:102BB000D1F8AC01804710BD4013002010B5044887
:102BC000D0F8B00118B10249D1F8B001804710BD6A
:102BD0004013002010B50448D0F8B40118B10249E0
:102BE000D1F8B401804710BD4013002010B504484F
:102BF000D0F8B80118B10249D1F8B801804710BD2A
:102C00004013002010B50448D0F8BC0118B10249A7
:102C1000D1F8BC01804710BD4013002010B5044816
:102C2000D0F8C00118B10249D1F8C001804710BDE9
:102C30004013002010B50448D0F8C40118B102496F
:102C4000D1F8C401804710BD4013002010B50448DE
:102C5000D0F8C80118B10249D1F8C801804710BDA9
:102C60004013002010B50448D0F8CC0118B1024937
:102C7000D1F8CC01804710BD4013002010B50448A6
:102C8000D0F8D00118B10249D1F8D001804710BD69
:102C90004013002010B50448D0F8D40118B10249FF
:102CA000D1F8D401804710BD4013002010B504486E
:102CB000D0F8D80118B10249D1F8D801804710BD29
:102CC0004013002010B50448D0F8DC0118B10249C7
:102CD000D1F8DC01804710BD4013002010B5044836
:102CE000D0F8E00118B10249D1F8E001804710BDE9
:102CF0004013002010B50448D0F8E40118B102498F
:102D0000D1F8E401804710BD4013002010B50448FD
:102D1000D0F8E80118B10249D1F8E801804710BDA8
:102D20004013002010B50448D0F8EC0118B1024956
:102D3000D1F8EC01804710BD4013002010B50448C5
:102D4000D0F8F00118B10249D1F8F001804710BD68
:102D50004013002010B50448D0F8F40118B102491E
:102D6000D1F8F401804710BD4013002010B504488D
:102D7000D0F8F80118B10249D1F8F801804710BD28
:102D80004013002010B50448D0F8FC0118B10249E6
:102D9000D1F8FC01804710BD4013002010B5514808
:102DA000046851480068012804D104F0010008B10A
:102DB000AFF300804C48001D0068012804D104F0E6
:102DC000020008B1AFF300804748083000680128CE
:102DD00004D104F0040008B1AFF3008042480C3085
:102DE0000068012804D104F0080008B1AFF30080A6
:102DF0003D4810300068012804D104F0100008B1EB
:102E0000AFF30080384814300068012804D104F082
:102E1000200008B1AFF30080334818300068012863
:102E200004D104F0400008B1AFF300802E481C30FC
:102E30000068012804D104F0800008B1AFF30080DD
:102E4000294820300068012804D104F4807008B1BA
:102E5000AFF30080244824300068012804D104F432
:102E6000007008B1AFF300801F48283000680128C7
:102E700004D104F4806008B1AFF300801A482C300C
:102E80000068012804D104F4006008B1AFF30080A9
:102E9000154830300068012804D104F4805008B18E
:102EA000AFF30080104834300068012804D104F4E6
:102EB000005008B1AFF300800B483830006801289B
:102EC00004D104F4804008B1AFF3008006483C30E0
:102ED0000068012804D104F4004008B1AFF3008079
:102EE00010BD00005C120540800AA24270B5FE4889
:102EF000046800260025FD48006801282BD1FC4805
:102F0000006840B9FB480068012804D104F00100C2
:102F100008B1AFF30080F6484030006848B9F54882
:102F200040300068012804D104F4807008B1AFF388
:102F30000080F148406800F00116EF48C1684FF08A
:102F4000011020EA010506EA050020B104F48030F2
:102F500008B1AFF30080E948006801282DD1E448AA
:102F6000001D006848B9E348001D0068012804D12D
:102F700004F0020008B1AFF30080DD48443000687F
:102F800048B9DC4844300068012804D104F40070DA
:102F900008B1AFF30080D848406800F00216D64868
:102FA000C1684FF0021020EA010506EA050020B1D1
:102FB00004F4803008B1AFF30080D14800680128E4
:102FC0002DD1CB480830006848B9CA48083000689D
:102FD000012804D104F0040008B1AFF30080C44814
:102FE0004830006848B9C34848300068012804D117
:102FF00004F4806008B1AFF30080BF48406800F07F
:103000000416BD48C1684FF0041020EA010506EA25
:10301000050020B104F4803008B1AFF30080B94856
:10302000006801282DD1B2480C30006848B9B14879
:103030000C300068012804D104F0080008B1AFF397
:103040000080AB484C30006848B9AA484C30006852
:10305000012804D104F4006008B1AFF30080A64851
:10306000406800F00816A448C1684FF0081020EA34
:10307000010506EA050020B104F4803008B1AFF381
:103080000080A148006801282CD1A048006840B900
:103090009F480068012804D104F0100008B1AFF384
:1030A00000809A484030006848B99948403000682C
:1030B000012804D104F4805008B1AFF30080954892
:1030C000006800F001169348083001684FF00110C5
:1030D00020EA010506EA050020B104F4003008B139
:1030E000AFF300808C48006801282ED18748001D6E
:1030F000006848B98648001D0068012804D104F022
:10310000200008B1AFF3008080484430006848B91F
:10311000784844300068012804D104F4005008B114
:10312000AFF300807B48006800F002167948083051
:1031300001684FF0021020EA010506EA050020B1FF
:1031400004F4003008B1AFF300807448006801282F
:103150002ED16E480830006848B96D4808300068C4
:10316000012804D104F0400008B1AFF300806748A3
:103170004830006848B95F4848300068012804D1E9
:1031800004F4804008B1AFF300806248006800F0AA
:1031900004166048083001684FF0041020EA010569
:1031A00006EA050020B104F4003008B1AFF3008056
:1031B0005B48006801282ED154480C30006848B99B
:1031C00053480C300068012804D104F0800008B195
:1031D000AFF300804D484C30006848B945484C304A
:1031E0000068012804D104F4004008B1AFF3008066
:1031F0004848006800F008164648083001684FF05B
:10320000081020EA010506EA050020B104F40030A8
:1032100008B1AFF3008043480068012809D1424853
:10322000006800F00F0020B104F4802008B1AFF373
:1032300000803C4808300068012809D13948EC3842
:103240000068012804D104F4002008B1AFF3008025
:103250003448001D0068012809D13248F038006860
:10326000012804D104F4801008B1AFF300804FF0BE
:103270001C40C068C0F3C01020B104F4800008B145
:10328000AFF3008029488669456806EA050000F02A
:103290007F0020B104F4000008B1AFF3008024489F
:1032A000066823481438056806EA050000F07F0028
:1032B00020B104F0807008B1AFF300801D480668AB
:1032C0001C481438056806EA050000F07F0020B1AC
:1032D00004F0007008B1AFF3008017480668164884
:1032E000143805682AE0000060120540B00BA642C1
:1032F0000002A6420001A64200300540B013A642DB
:10330000B01BA642B023A642B08BA6420082A642C2
:103310000081A64204340540B093A642B09BA64269
:10332000B0A3A642008320421004014000200540C3
:103330001824054018280540182C054006EA050009
:1033400000F07F0020B104F0806008B1AFF300808E
:1033500070BD000010B52F4804682F48D0F808024F
:10336000012808D12D480068012804D104F001008B
:1033700008B1AFF30080294838380068012809D126
:10338000264840300068012804D104F0020008B14A
:10339000AFF3008022480068012809D12048783026
:1033A0000068012804D104F0040008B1AFF30080E4
:1033B0001B4840300068012809D11948B83000681E
:1033C000012804D104F0080008B1AFF300801548CB
:1033D0000068012809D1134820300068012804D171
:1033E00004F4001008B1AFF300800F48006B01280F
:1033F00004D104F4800008B1AFF300800B480068EA
:1034000000F4403020B104F4000008B1AFF30080B4
:1034100010BD00006412054000004842800248428E
:10342000088248420008A842008098420494044060
:1034300070B5AA48046800260025A948006801283C
:1034400008D1A8480068012804D104F0010008B19F
:10345000AFF30080A248001D0068012809D1A148EF
:10346000001D0068012804D104F0020008B1AFF388
:1034700000809B4808300068012809D1994808302D
:103480000068012804D104F0040008B1AFF3008003
:1034900093480C300068012809D192480C3000682C
:1034A000012804D104F0080008B1AFF300808C4873
:1034B00010300068012809D18A48103000680128BE
:1034C00004D104F0100008B1AFF300808448143038
:1034D0000068012809D1834814300068012804D10C
:1034E00004F0200008B1AFF300807D481830006878
:1034F000012809D17B4818300068012804D104F064
:10350000400008B1AFF3008075481C300068012806
:1035100009D174481C300068012804D104F08000EF
:1035200008B1AFF300806E4820300068012809D14F
:103530006C4820300068012804D104F4807008B180
:10354000AFF300806848406D00F44030C60966481B
:10355000006F00F4C06506EA050020B104F40060C5
:1035600008B1AFF300806048406D00F44020C60908
:103570005D48006F00F4C05506EA050020B104F470
:10358000805008B1AFF3008058480068012808D186
:1035900057480068012804D104F4803008B1AFF323
:1035A00000805248001D0068012809D15048001DC4
:1035B0000068012804D104F4003008B1AFF30080A2
:1035C0004A4808300068012809D149480830006895
:1035D000012804D104F4802008B1AFF300804348EF
:1035E0000C300068012809D141480C3000680128DE
:1035F00004D104F4002008B1AFF300803B48103040
:103600000068012809D13A4810300068012804D127
:1036100004F4801008B1AFF300803448143000681F
:10362000012809D1324814300068012804D104F47B
:10363000001008B1AFF300802C4818300068012852
:1036400009D12B4818300068012804D104F4800007
:1036500008B1AFF3008025481C300068012809D16B
:1036600023481C300068012804D104F4000008B18C
:10367000AFF300801D4820300068012809D11C48A4
:1036800020300068012804D104F0807008B1AFF345
:1036900000801848006800F44030C60915481C3006
:1036A000006800F4C06506EA050020B104F000607F
:1036B00008B1AFF300800F48006800F44020C6094D
:1036C0000C481C30006800F4C05506EA050020B123
:1036D00004F0805008B1AFF3008070BD681205405F
:1036E000800A3042000E304200800140808A304221
:1036F000008E30425484014070B55748046800265B
:10370000002556480068012808D15548006801285E
:1037100004D104F0010008B1AFF300804F48001D50
:103720000068012809D14E48001D0068012804D115
:1037300004F0020008B1AFF3008048480830006888
:10374000012809D1464808300068012804D104F056
:10375000040008B1AFF3008040480C300068012835
:1037600009D13F480C300068012804D104F008005A
:1037700008B1AFF30080394810300068012809D142
:10378000374810300068012804D104F0100008B157
:10379000AFF30080314814300068012809D1304867
:1037A00014300068012804D104F0200008B1AFF300
:1037B00000802A4818300068012809D128481830AC
:1037C0000068012804D104F0400008B1AFF3008084
:1037D00022481C300068012809D121481C300068AB
:1037E000012804D104F0800008B1AFF300801B4829
:1037F00020300068012809D11948203000680128CC
:1038000004D104F4807008B1AFF30080154800685B
:1038100000F44030C60913481C30006800F4C0654D
:1038200006EA050020B104F4006008B1AFF300809F
:103830000C48006800F44020C6090A481C300068A3
:1038400000F4C05506EA050020B104F4805008B128
:10385000AFF3008070BD00006C120540800A314259
:10386000000E31425488014070B500240026BA4849
:103870000568BA48D0F8804004F4805038B104F4A8
:10388000804020B105F0010008B1AFF3008004F4DE
:10389000005038B104F4004020B105F0020008B136
:1038A000AFF30080AD4890300468AC48D0F89C601D
:1038B00004EA0600C0B220B105F0040008B1AFF37D
:1038C0000080A748046804F4805038B104F48040B4
:1038D00020B105F0080008B1AFF3008004F40050F7
:1038E00038B104F4004020B105F0100008B1AFF386
:1038F00000809B481030046899481C30066804EA30
:103900000600C0B220B105F0200008B1AFF300807E
:103910009448046804F4805038B104F4804020B125
:1039200005F0400008B1AFF3008004F4005038B156
:1039300004F4004020B105F0800008B1AFF300802E
:1039400088481030046887481C30066804EA06007E
:10395000C0B220B105F4807008B1AFF30080824896
:10396000046804F4805038B104F4804020B105F4B8
:10397000007008B1AFF3008004F4005038B104F4D3
:10398000004020B105F4806008B1AFF300807648B4
:103990001030046874481C30066804EA0600C0B29F
:1039A00020B105F4006008B1AFF300806F480468EF
:1039B00004F4805038B104F4804020B105F4805004
:1039C00008B1AFF3008004F4005038B104F40040B3
:1039D00020B105F4005008B1AFF300806348103007
:1039E000046862488038D0F89C6004EA0600C0B2DF
:1039F00020B105F4804008B1AFF300805C48046852
:103A000004F4805038B104F4804020B105F48030D3
:103A100008B1AFF3008004F4005038B104F4004062
:103A200020B105F4003008B1AFF3008050481030E9
:103A300004684F481C30066804EA0600C0B220B192
:103A400005F4802008B1AFF300804A4800680128DF
:103A500010D149488069494900EA01044648406953
:103A600000EA010604EA060020B105F4002008B1CE
:103A7000AFF3008042480468C66806F0200038B101
:103A800004F00B0020B105F4800008B1AFF3008012
:103A900006EA040000F0200020B105F4000008B19F
:103AA000AFF3008006EA040000F0800020B105F0CA
:103AB000807008B1AFF3008006EA040000F0400017
:103AC00020B105F0007008B1AFF3008006F00200ED
:103AD00038B104F4807020B105F0806008B1AFF314
:103AE00000802848046827480C30066806F020004B
:103AF00038B104F00B0020B105F0006008B1AFF35D
:103B0000008006EA040000F0200020B105F080509B
:103B100008B1AFF3008006EA040000F0800020B195
:103B200005F0005008B1AFF3008006EA040000F091
:103B3000400020B105F0804008B1AFF3008006F0EE
:103B4000020038B104F4807020B105F0004008B1E3
:103B5000AFF3008070BD00007C12054000500140B2
:103B60008054014080580140805C014080600140E9
:103B7000806401400001804300000C40FBFC7CF7A6
:103B800000D0014000D4014070B5002400269948BF
:103B9000056899480468C66806F0200038B104F04A
:103BA0000B0020B105F0010008B1AFF3008006EA78
:103BB000040000F0200020B105F0020008B1AFF3CE
:103BC000008006EA040000F0800020B105F0040047
:103BD00008B1AFF3008006EA040000F0400020B115
:103BE00005F0080008B1AFF3008006F0020038B11C
:103BF00004F4807020B105F0100008B1AFF300802C
:103C00007E4804687D480C30066806F0200038B114
:103C100004F00B0020B105F0200008B1AFF30080E4
:103C200006EA040000F0200020B105F0400008B1D1
:103C3000AFF3008006EA040000F0800020B105F038
:103C4000800008B1AFF3008006EA040000F04000F5
:103C500020B105F4807008B1AFF3008006F00200D7
:103C600038B104F4807020B105F4007008B1AFF3EE
:103C7000008063484468466904F4806038B106F007
:103C8000800020B105F4006008B1AFF3008004F4B7
:103C9000007038B106F0200020B105F4805008B162
:103CA000AFF3008004F4006038B106F0010020B9E1
:103CB00005F4005008B1AFF3008004F4807038B10F
:103CC00006F01D0020B105F4804008B1AFF300807C
:103CD0004C4804684B481030066804F4806038B1E2
:103CE00006F0800020B105F4803008B1AFF3008009
:103CF00004F4007038B106F0200020B105F4003063
:103D000008B1AFF3008004F4006038B106F00100A0
:103D100020B905F4802008B1AFF3008004F480706E
:103D200038B106F01D0020B105F4002008B1AFF352
:103D3000008035484468466904F4806038B106F074
:103D4000800020B105F4001008B1AFF3008004F446
:103D5000007038B106F0200020B105F4800008B1F1
:103D6000AFF3008004F4006038B106F0010020B920
:103D700005F4000008B1AFF3008004F4807038B19E
:103D800006F01D0020B105F0807008B1AFF300808F
:103D90001E4804681D481030066804F4806038B17D
:103DA00006F0800020B105F0806008B1AFF300801C
:103DB00004F4007038B106F0200020B105F0006076
:103DC00008B1AFF3008004F4006038B106F00100E0
:103DD00020B905F0805008B1AFF3008004F4807082
:103DE00038B106F01D0020B105F0005008B1AFF366
:103DF000008070BD80120540001002400014024097
:103E000000C0014004C4014000000240040402401C
:103E100070B500248A4805688A48048B05F00100C3
:103E200038B104F0100020B104F0400008B1AFF345
:103E3000008005F0020038B104F0200020B104F049
:103E4000800008B1AFF300807E48848B05F0040049
:103E500038B104F0100020B104F0400008B1AFF315
:103E6000008005F0080038B104F0200020B104F013
:103E7000800008B1AFF300807248048C05F0100098
:103E800038B104F0100020B104F0400008B1AFF3E5
:103E9000008005F0200038B104F0200020B104F0CB
:103EA000800008B1AFF3008066484830048805F010
:103EB000400038B104F4807020B104F4007008B1FF
:103EC000AFF3008005F0800038B104F4005020B159
:103ED00004F4804008B1AFF300805A48A43004884D
:103EE00005F4807040B104F00100C04320B104F03B
:103EF000100008B1AFF3008005F4007040B104F089
:103F00000200C04320B104F4807008B1AFF3008018
:103F100005F4806040B104F00400C04320B104F413
:103F2000805008B1AFF300804748048805F4803022
:103F300038B104F0100020B104F0400008B1AFF334
:103F4000008005F4003038B104F0200020B104F006
:103F5000800008B1AFF300803B48001D048805F4E1
:103F6000802038B104F0100020B104F0400008B106
:103F7000AFF3008005F4002038B104F0200020B138
:103F800004F0800008B1AFF300802F4808300488A7
:103F900005F4801038B104F0100020B104F04000A6
:103FA00008B1AFF3008005F4001038B104F0200030
:103FB00020B104F0800008B1AFF300802248303017
:103FC000048805F4800038B104F4807020B104F452
:103FD000007008B1AFF3008005F4000038B104F4BC
:103FE000005020B104F4804008B1AFF300801648BF
:103FF0008C30048805F0807040B104F00100C043AB
:1040000020B104F0100008B1AFF3008005F000709B
:1040100040B104F00200C04320B104F4807008B144
:10402000AFF3008005F0806040B104F00400C043AD
:1040300020B104F4805008B1AFF3008070BD0000DF
:1040400084120540007001401848024070B50024F9
:10405000464805684648048805F0010038B104F078
:10406000100020B104F0400008B1AFF3008005F06B
:10407000020038B104F0200020B104F0800008B143
:10408000AFF300803A48001D048805F0040038B101
:1040900004F0100020B104F0400008B1AFF300803C
:1040A00005F0080038B104F0200020B104F08000D1
:1040B00008B1AFF300802E480830048805F01000E6
:1040C00038B104F0100020B104F0400008B1AFF3A3
:1040D000008005F0200038B104F0200020B104F089
:1040E000800008B1AFF3008021483030048805F02B
:1040F000400038B104F4807020B104F4007008B1BD
:10410000AFF3008005F0800038B104F4005020B116
:1041100004F4804008B1AFF3008015488C30048867
:1041200005F4807040B104F00100C04320B104F0F8
:10413000100008B1AFF3008005F4007040B104F046
:104140000200C04320B104F4807008B1AFF30080D6
:1041500005F4806040B104F00400C04320B104F4D1
:10416000805008B1AFF3008070BD00008812054098
:10417000184C024070B57A4804680026002579483A
:10418000006800F00F0677480830006800F00F055F
:1041900006EA050020B104F0400008B1AFF300804A
:1041A00070482030006800F00F066E482830006824
:1041B00000F00F0506EA050020B104F0800008B108
:1041C000AFF3008067484030006800F00F06654894
:1041D0004830006800F00F0506EA050020B104F43D
:1041E000807008B1AFF300805E486030006800F076
:1041F0000F065C486830006800F00F0506EA05000D
:1042000020B104F4007008B1AFF300805648406854
:10421000012809D1544880300068012804D104F4F1
:10422000803008B1AFF300804F48C068012809D141
:104230004D4884300068012804D104F4003008B1EE
:10424000AFF3008048480069012809D147488068D9
:1042500000F0030020B104F4802008B1AFF3008027
:1042600043484068012809D141488030006801284E
:1042700004D104F4002008B1AFF300803C48C068CA
:10428000012809D13A4884300068012804D104F497
:10429000801008B1AFF3008035480069012809D1CA
:1042A0003448006800F0030020B104F4001008B1A5
:1042B000AFF3008030484068012809D12E48803093
:1042C0000068012804D104F4800008B1AFF3008035
:1042D0002948C068012809D127488430006801288E
:1042E00004D104F4000008B1AFF300802248006953
:1042F000012809D12148806800F0030020B104F0B2
:10430000807008B1AFF300801D484068012809D1D2
:104310001B4880300068012804D104F0007008B107
:10432000AFF300801648C068012809D114488430D2
:104330000068012804D104F0806008B1AFF3008068
:104340000F480069012809D10E48006800F00300F9
:1043500020B104F0006008B1AFF3008070BD000030
:104360008C1205400C7C014000003C4200E0014002
:1043700000803C4208E4014000004442002002402A
:10438000008044420824024070B587480468002633
:1043900000258648D0F89800012808D18448006894
:1043A000012804D104F0100008B1AFF300807F4869
:1043B0008C300068012809D17D480C38006801283C
:1043C00004D104F0200008B1AFF3008077489C309E
:1043D0000068012809D17648001D0068012804D131
:1043E00004F0400008B1AFF30080724840687249A1
:1043F00000EA01066F48C06900EA010506EA050007
:1044000020B104F0800008B1AFF300806B48006871
:10441000012808D16A480068012804D104F480709A
:1044200008B1AFF3008065480C380068012809D155
:1044300063480C380068012804D104F4007008B106
:10444000AFF300805D48001D0068012809D15C4879
:10445000001D0068012804D104F4806008B1AFF3A6
:10446000008058480068544900EA01065548183051
:10447000006800EA010506EA050020B104F40060C6
:1044800008B1AFF3008050480068012808D14F48B8
:104490000068012804D104F4805008B1AFF3008013
:1044A00049480C380068012809D148480C38006890
:1044B000012804D104F4005008B1AFF30080424851
:1044C000001D0068012809D14048001D006801282E
:1044D00004D104F4804008B1AFF300803C48006888
:1044E000354900EA01063A481830006800EA01053B
:1044F00006EA050020B104F4004008B1AFF30080E3
:1045000034480068012808D133480068012804D1E4
:1045100004F4003008B1AFF300802E48103000687A
:10452000012809D12C4810300068012804D104F476
:10453000802008B1AFF3008028480068012809D125
:10454000264880300068012804D104F4801008B1A6
:10455000AFF300802148001D0068012809D11F48E1
:1045600084300068012804D104F4001008B1AFF3CE
:1045700000801A4808300068012809D1174888309F
:104580000068012804D104F4800008B1AFF3008072
:104590001348406800F4403020B104F4000008B132
:1045A000AFF3008070BD00009012054000009C42F7
:1045B00098039C4200E004401752F00098809C420F
:1045C00098839C4204E4044098009D4298039D42D5
:1045D00004E804406082A842241CA8420083904260
:1045E0000090044070B53C48046800253B480068D2
:1045F000012809D1394820380068012804D104F085
:10460000010008B1AFF300803448001D00680128A4
:1046100009D132481C380068012804D104F0020096
:1046200008B1AFF300802E4805882E4800680128A5
:1046300009D12D480068012800D025B104F00400FC
:1046400008B1AFF3008027480068012809D1264847
:104650000068012800D025B104F0080008B1AFF3CC
:10466000008022480068012809D1204820380068CD
:10467000012804D104F0100008B1AFF300801B48FA
:10468000001D0068012809D118481C38006801285D
:1046900004D104F0200008B1AFF300801448006892
:1046A000012809D113480088C0F3080020B104F0A4
:1046B000400008B1AFF300800D480068012809D11F
:1046C0000C480088C0F3080020B104F0800008B155
:1046D000AFF3008070BD000094120540E0088042F6
:1046E000B00004402014804240168042E08880429E
:1046F00020948042B00404402DE9F05F0026B346C8
:10470000002400250027A046A146A2463A4800689A
:1047100001281AD13948078838480830B0F8008095
:10472000801FB0F8009035480A30B0F800A007EAC2
:10473000080040F2F711084028B909EA0A0040F2DF
:104740007F11084008B1AFF300802B480C3000689F
:10475000012815D12A48078EB0F83880B0F8329079
:10476000B0F83AA007EA080040F2F711084028B96B
:1047700009EA0A0040F27F11084008B1AFF3008057
:104780001D4810300068012834D11E480678401EAC
:1047900090F800B0801C04781A481A30057805F0AB
:1047A000200028BB06F0010010BB06EA0B0000F059
:1047B000FE00E8B904F0010010B104F00200B8B93D
:1047C00004F0040010B104F0080088B904F01000EF
:1047D00010B104F0200058B905F0080010B105F040
:1047E000100028B905F0400020B105F0800008B1A4
:1047F000AFF30080BDE8F09F0853A24230FC0640B2
:1048000000000740A50407401FB500200290039058
:104810000A208DF8080003208DF8090000208DF88B
:104820000A00032002A90123FF22CDE90010002184
:10483000084603F0DFF9032002A90123FF22CDE996
:1048400000101946002003F0D5F91FBD10B500F087
:104850004BF902214FF46830FDF774F900F052F97A
:1048600000F012FAFCF7DEFF4FF4E13004F05EF8DE
:1048700010BD00001CB500BF00200090019000BFDB
:1048800001208DF8000002208DF8050000208DF831
:10489000060001208DF802008DF800008A4A118878
:1048A0008A4A10786A4600F05DFD00208DF800000D
:1048B000854A5188854A50786A4600F053FD0120A8
:1048C0008DF80000804A9188804A90786A4600F00E
:1048D00049FD00208DF800007B4AD1887B4AD078C2
:1048E0006A4600F03FFD00208DF80000764A1189ED
:1048F000764A10796A4600F035FD00208DF80000F8
:10490000714A5189714A50796A4600F02BFD0020A6
:104910008DF800006C4A91896C4A90796A4600F0E3
:1049200021FD00208DF80000674AD189674AD079BF
:104930006A4600F017FD00208DF80000624A118AD7
:10494000624A107A6A4600F00DFD00208DF80000E2
:104950005D4A518A5D4A507A6A4600F003FD5A4A20
:10496000918A5A4A907A6A4600F0FCFC564AD18AEB
:10497000564AD07A6A4600F0F5FC534A118B534AE6
:10498000107B6A4600F0EEFC4F4A518B4F4A507B39
:104990006A4600F0E7FC4C4A918B4C4A907B6A4691
:1049A00000F0E0FC484AD18B484AD07B6A4600F0D0
:1049B000D9FC454A118C454A107C6A4600F0D2FC6D
:1049C000414A518C414A507C6A4600F0CBFC0020A1
:1049D0008DF800003C4A918C3C4A907C6A4600F07D
:1049E000C1FC00208DF80000374AD18C374AD07CBA
:1049F0006A4600F0B7FC344A118D344A107D6A468D
:104A000000F0B0FC304A518D304A507D6A4600F0CB
:104A1000A9FC2D4A918D2D4A907D6A4600F0A2FC9A
:104A2000FDF7F8FA01208DF80000274AD18D274ABA
:104A3000D07D6A4600F096FC00208DF80000224AE6
:104A4000118E224A107E6A4600F08CFC01208DF8FF
:104A500000001D4A518E1D4A507E6A4600F082FCBD
:104A600000208DF80000184A918E184A907E6A4600
:104A700000F078FC01208DF80000134AD18E134A13
:104A8000D07E6A4600F06EFC01208DF800000E4AD0
:104A9000118F0E4A107F6A4600F064FC00208DF8EA
:104AA0000000094A518F094A507F6A4600F05AFCBB
:104AB00001208DF80000044A918F044A907F6A46D5
:104AC00000F050FC1CBD0000508D0200308D020033
:104AD00010B5FCF77DFC03F025F802F0B3FF03F0FE
:104AE00045FBFCF7AFFF10BD10B5FDF7F1F9012054
:104AF000FDF738F800BF4FF48070FDF761F801282A
:104B0000F9D110BD4FF468310968184A11704FF49B
:104B10007831096851700021D182002005E01449E4
:104B20000A5C12490A310A54401C0C28F7DB0020A9
:104B300005E010490A5C0D49891C0A54401C0428F0
:104B4000F7DB002005E00C490A5C084908310A54EB
:104B5000401C0228F7DB4FF4F0310978034A9171C9
:104B60004FF4F0314A780149CA717047C80E0020ED
:104B70005004014018C0010000800300002016E02E
:104B8000C0EBC0013E4A11444978C0EBC0023C4B27
:104B90001A4451703B490978C0EBC0029954C0EBEC
:104BA000C0011A4611440022C1F80320401C3228DB
:104BB000E6DB33494978324A51700121917007216F
:104BC000D1701146097A117201222D494A722D497C
:104BD0004A782B498A72C97B294AD1730222284913
:104BE0000A74284AD2F80A20C1F81120897D244A83
:104BF000917503222249CA75224AD2F80E208A6191
:104C0000497F1F4A517704221D498A771D4AD2F8ED
:104C10001220C1F81F2091F82410194A82F824109C
:104C20000522174981F82520164AD2F80220C1F83A
:104C3000262091F82B10124A82F82B1006221049D8
:104C400081F82C200F498A790D4981F82D200D49D2
:104C5000CA790B4981F82E2091F83210084A82F85F
:104C600032100722064981F8332006490A7A04499E
:104C700081F8342003494A7A014981F83520704788
:104C80005480FF1FC80E002000B58DB000BF00206B
:104C90000B900C9000BF00BF09900A9000BF00BFAE
:104CA000202101A8FBF75AFB00BF01A8FBF704FF76
:104CB0000121022000F070FE00208DF82F008DF8F9
:104CC0002D0002208DF82C000598800840F2E73175
:104CD000B0FBF1F080B2ADF830000BAA012113480F
:104CE00001F038FC01221146104802F07DF8022044
:104CF000ADF826004320ADF824000D480A9009A81D
:104D000003F03CFABDF9260003F0DEF8BDF92600F9
:104D10000F2103F017F9BDF9260003F0F1F8012285
:104D20001146024801F098FF0DB000BD004402405A
:104D3000957202000246002110E001EB41030A488F
:104D400000EB43008078904206D101EB4103064816
:104D500000EB430040787047481CC1B2C829ECDB27
:104D60004FF0FF30F7E70000090A0020024600215B
:104D70000BE001EB4103074800EB430080789042D1
:104D800001D108467047481CC1B2C829F1DB4FF079
:104D9000FF30F7E7090A002010B588B004466078B4
:104DA000092806D2DFE800F005060708090A0BA764
:104DB000C600C2E0C1E0C0E0BFE0BEE0BDE0A07858
:104DC00068B9E0785E49087020795E4908706079BA
:104DD0005D490870A0794870E07988708AE0A07811
:104DE00001280BD1E0785849C870207908716079A2
:104DF0004871A0798871E079C8717BE0A0780228B9
:104E000078D1E078504908722079487260798872C8
:104E1000A079C87200204D4908704B480168049180
:104E2000416805918068069001208DF80C000020F3
:104E30008DF80D00424800788DF80E00414800784A
:104E40008DF80F0040480168049141680591806821
:104E50000690102003A90123FF22CDE900100021B4
:104E6000084602F0C7FE01208DF80C0000208DF8E6
:104E70000D00334800788DF80E00324800788DF828
:104E80000F003148016804914168059180680690DF
:104E9000102003A90123FF22CDE9001019460020AC
:104EA00002F0A8FE01208DF80C008DF80D002448BA
:104EB00000788DF80E00032003A90223CDE900102D
:104EC0001F4802780021084602F094FE01208DF868
:104ED0000C008DF80D001A4800788DF80E000320A4
:104EE00003A90223CDE90010154802780121002012
:104EF00002F080FE21E0A07870B100201449087013
:104F000001F046FA02F00EFE00231A46012140F29B
:104F1000017000F0B7F80CE000231A46194640F281
:104F2000017000F0AFF800200A49086001200A492A
:104F3000086002E0FFF768FC00BF00BF08B010BDCA
:104F40000C80FF1F0D80FF1FB281FF1F2880FF1FF5
:104F50002980FF1F2C80FF1F3080FF1F70B5044683
:104F6000082C17D2DFE804F08904172C4156677823
:104F7000434B9D78DB7803F00F0345EA032221467B
:104F80003F4B1B7843F08003D22545EA03200023E2
:104F900000F078F871E03A4D2E7B6D7B46EA0523F0
:104FA000374DAE7AED7A46EA05222146344D2D780A
:104FB00045F08005D22646EA052000F063F85CE063
:104FC0002F4D2E7C6D7C46EA05232D4DAE7BED7B6F
:104FD00046EA052221462A4D2D7845F08005D22645
:104FE00046EA052000F04EF847E0254D2E7D6D7D08
:104FF00046EA0523224DAE7CED7C46EA0522214699
:105000001F4D2D7845F08005D22646EA052000F098
:1050100039F832E01A4B1D795B7945EA03222146C3
:10502000174B1B7843F08003D22545EA0320002369
:1050300000F028F821E0124B9D79DB7945EA032244
:1050400021460F4B1B7843F08003D22545EA03200D
:10505000002300F017F810E0094B1D7A5B7A45EA4F
:1050600003222146064B1B7843F08003D22545EAF4
:105070000320002300F006F800BF00BF70BD000051
:10508000C80E00202DE9FC4104460D4616461F4679
:10509000002000900190E0B28DF80000200A8DF809
:1050A0000100E8B28DF80200280A8DF80300F0B282
:1050B0008DF80400300A8DF80500F8B28DF806006E
:1050C000380A8DF807000548007800F5C1684146A8
:1050D0006A460348FCF7FCF9BDE8FC81C80E0020D5
:1050E000EE03002010B5AFF3008010BD10B500F046
:1050F00001F810BD10B500BF0648006800B104E01B
:105100004FF4A37104A0FCF7A1FC00BF01480068A4
:10511000804710BD4C80FF1F2E2E5C2E2E5C2E2E45
:105120005C2E2E5C6472697665725C7372635C6877
:10513000633332663436785F6578696E745F6E6D9E
:10514000695F7377692E630010B5FF24104AD18C14
:10515000104AD07C00F09EF830B10D4A518D0D4AB6
:10516000507D00F097F808B904F0FE04084A118D4C
:10517000084A107D00F08EF830B1054A918D054A3D
:10518000907D00F087F808B904F0FD04204610BDBA
:10519000508D0200308D020010B50446607806285C
:1051A00028D16089144908600846006848F2857172
:1051B000884219D111494FF47030FCF7C3FC0A2022
:1051C000FCF766FC00BFBFF34F8F0D48006800F48A
:1051D000E0600C490843001D09490860BFF34F8F88
:1051E00000BF00BF00BFFDE7012003494871002058
:1051F000886000BF00BF10BDBC0E002000AA50A0F8
:105200000CED00E00000FA0570B504460D4600BF45
:105210001F2C00D804E04FF4C57113A0FCF716FC56
:1052200000BF00BF0DB1012D00D104E040F28B1191
:105230000DA0FCF70BFC00BF00F066FB012D07D1B1
:105240001348008804F01F0108431149088006E054
:105250000F48008804F01F0188430D49088000F0C2
:1052600085F9002070BD00002E2E5C2E2E5C2E2EA7
:105270005C2E2E5C6472697665725C7372635C6826
:10528000633332663436785F6770696F2E6300006F
:10529000F43B054070B505460C4600BF4DB1012DED
:1052A00007D0022D05D0032D03D0042D01D0052DEC
:1052B00000D104E040F2F7111FA0FCF7C7FB00BFCC
:1052C00000BF012C25D0022C23D0042C21D0082C87
:1052D0001FD0102C1DD0202C1BD0402C19D0802C7E
:1052E00017D0B4F5807F14D0B4F5007F11D0B4F599
:1052F000806F0ED0B4F5006F0BD0B4F5805F08D08E
:10530000B4F5005F05D0B4F5804F02D0B4F5004F7E
:1053100000D104E04FF4FC7107A0FCF797FB00BF3D
:105320000F48102101FB05063068204008B101201C
:1053300070BD0020FCE700002E2E5C2E2E5C2E2E71
:105340005C2E2E5C6472697665725C7372635C6855
:10535000633332663436785F6770696F2E6300009E
:10536000003805402DE9F0470646894614460027D7
:1053700000BF4EB1012E07D0022E05D0032E03D060
:10538000042E01D0052E00D104E040F213116CA0D0
:10539000FCF75CFB00BF00BF207828B12078012813
:1053A00002D02078022800D104E040F2151164A058
:1053B000FCF74CFB00BF00BF607928B16079012881
:1053C00002D06079022800D104E04FF48B715CA018
:1053D000FCF73CFB00BF00BFA07910B1A079012809
:1053E00000D104E040F2171155A0FCF72FFB00BFDD
:1053F00000BF607810B16078012800D104E04FF45C
:105400008C714FA0FCF722FB00BF00BFA07810B149
:10541000A078012800D104E040F2191148A0FCF75F
:1054200015FB00BF00BFE07810B1E078012800D183
:1054300004E04FF48D7142A0FCF708FB00BF00BFF1
:10544000207910B12079012800D104E040F21B112D
:105450003BA0FCF7FBFA00BF00BFE07910B1E07998
:10546000012800D104E04FF48E7135A0FCF7EEFA6C
:1054700000BF00F049FA00275AE00120B84000EAD6
:10548000090078B3384800EB861000EB87053648F2
:10549000801C00EB861000EB87086178288861F398
:1054A0008E302880A178288861F30C302880E1783C
:1054B000288861F3492028802179288861F38610A3
:1054C0002880A179288861F3820028806179288862
:1054D00061F305102880207828B101280CD002281B
:1054E0001BD113E022E0288820F40040288028887F
:1054F00020F00200288011E0288820F40040288055
:10550000288820F00200801C288007E0288820F4EA
:10551000004000F50040288000E000BF00BFE179B6
:10552000B8F8000061F30820A8F80000781CC7B2A2
:10553000102FA2D300F01AF80020BDE8F087000079
:105540002E2E5C2E2E5C2E2E5C2E2E5C64726976C6
:1055500065725C7372635C68633332663436785F9D
:105560006770696F2E630000003C05404FF42540D2
:105570000149088070470000FC3B05402DE9F041DF
:1055800004460E46174600BF4CB1012C07D0022C32
:1055900005D0032C03D0042C01D0052C00D104E04D
:1055A00040F23F2109A0FCF751FA00BF1148102139
:1055B00001FB0405012F03D128883043288002E035
:1055C0002888B04328800020BDE8F0812E2E5C2E74
:1055D0002E5C2E2E5C2E2E5C6472697665725C7376
:1055E00072635C68633332663436785F6770696F04
:1055F0002E6300000638054070B504460E4600BF15
:105600004CB1012C07D0022C05D0032C03D0042C64
:1056100001D0052C00D104E040F2762106A0FCF771
:1056200015FA00BF0E48102101FB040528883043FD
:105630002880002070BD00002E2E5C2E2E5C2E2EA9
:105640005C2E2E5C6472697665725C7372635C6852
:10565000633332663436785F6770696F2E6300009B
:105660000A38054070B504460E4600BF4CB1012C07
:1056700007D0022C05D0032C03D0042C01D0052C1C
:1056800000D104E040F25E2106A0FCF7DFF900BF84
:105690000E48102101FB0405288830432880002093
:1056A00070BD00002E2E5C2E2E5C2E2E5C2E2E5CED
:1056B0006472697665725C7372635C6863333266C8
:1056C0003436785F6770696F2E63000008380540D4
:1056D0002DE9F0470546894614461F464FF000085D
:1056E00000BF4DB1012D07D0022D05D0032D03D0F1
:1056F000042D01D0052D00D104E040F2CF215CA0A3
:10570000FCF7A4F900BF00BF002C73D0012C71D0AE
:1057100070D06FD06ED06DD0022C6BD0032C69D0BE
:10572000042C67D0052C65D0062C63D062D0072CE2
:1057300060D05FD05ED0082C5CD0092C5AD00A2CE7
:1057400058D057D00E2C55D00F2C53D0202C51D0E0
:1057500050D0212C4ED04DD0222C4BD04AD0232CCF
:1057600048D047D0242C45D044D0252C42D041D01D
:10577000262C3FD03ED0272C3CD03BD0282C39D0F3
:1057800038D0292C36D035D02A2C33D032D02B2CFF
:1057900030D02FD02C2C2DD02CD02D2C2AD029D06D
:1057A0002E2C27D026D02F2C24D023D0302C21D023
:1057B00020D0312C1ED01DD0322C1BD01AD0332C2F
:1057C00018D017D0342C15D014D0352C12D011D0BD
:1057D000362C0FD00ED0372C0CD00BD0382C09D053
:1057E00008D0392C06D005D03A2C03D002D03B2C5F
:1057F00000D000D104E04FF434711DA0FCF726F96D
:1058000000BF00BF0FB1012F00D104E040F2D12151
:1058100017A0FCF71BF900BF00F076F84FF0000866
:105820001DE0012000FA08F000EA090098B11A48CA
:10583000402101FB0500042101FB0806308864F3C8
:1058400005003080012F01D1012000E000203188C7
:1058500060F30821318008F1010000F0FF08B8F181
:10586000100FDED3FFF782FE0020BDE8F0870000B6
:105870002E2E5C2E2E5C2E2E5C2E2E5C6472697693
:1058800065725C7372635C68633332663436785F6A
:105890006770696F2E630000023C054070B50446D6
:1058A0000E4600BF4CB1012C07D0022C05D0032CB2
:1058B00003D0042C01D0052C00D104E040F28D214E
:1058C00006A0FCF7C3F800BF0E48102101FB040539
:1058D000288830432880002070BD00002E2E5C2ECA
:1058E0002E5C2E2E5C2E2E5C6472697665725C7363
:1058F00072635C68633332663436785F6770696FF1
:105900002E6300000C3805404AF20150014908801E
:1059100070470000FC3B054070B504460D4600BFD3
:105920001148204008B904B104E040F2F9210FA069
:10593000FCF78CF800BF00BF0DB1012D00D104E0D1
:1059400040F2FA2109A0FCF781F800BF012D05D132
:1059500010484068A0430F49486004E00D48406883
:1059600020430C49486070BD8602F0F02E2E5C2E5C
:105970002E5C2E2E5C2E2E5C6472697665725C73D2
:1059800072635C68633332663436785F7077632E97
:10599000630000000080044070B504460D4600BF5F
:1059A0001148204008B904B104E040F22A310FA0A8
:1059B000FCF74CF800BF00BF0DB1012D00D104E091
:1059C00040F22B3109A0FCF741F800BF012D05D1B1
:1059D00010488068A0430F49886004E00D48806843
:1059E00020430C49886070BD0078F8FF2E2E5C2E95
:1059F0002E5C2E2E5C2E2E5C6472697665725C7352
:105A000072635C68633332663436785F7077632E16
:105A1000630000000080044010B5044600BF2078F9
:105A200010B12078012800D104E04FF47C7156A019
:105A3000FCF70CF800BF00BF607810B16078012857
:105A400000D104E040F2F1314FA0FBF7FFFF00BFAF
:105A500000BFA07810B1A078012800D104E040F286
:105A6000F23149A0FBF7F2FF00BF00BFE07810B1B0
:105A7000E078012800D104E040F2F33142A0FBF7C6
:105A8000E5FF00BF00BF207910B12079012800D1C7
:105A900004E04FF47D713CA0FBF7D8FF00BF00BFCE
:105AA000607910B16079012800D104E040F2F5314D
:105AB00035A0FBF7CBFF00BF00BFA07910B1A079E4
:105AC000012800D104E040F2F6312FA0FBF7BEFF21
:105AD00000BF00BFE07910B1E079012800D104E0F7
