:020000040002F8
:10000000E81D002099020200C1570200752302007A
:100010003551020021050200317A02000000000083
:10002000000000000000000000000000256A02003F
:10003000A51C02000000000065620200456C020081
:100040007D23020091230200A5230200B9230200B0
:10005000CD230200E1230200F5230200092402005F
:100060001D2402003124020045240200592402000C
:100070006D2402008124020095240200A9240200BC
:10008000BD240200D1240200E5240200F92402006C
:100090000D25020021250200352502004925020018
:1000A0005D250200712502008525020099250200C8
:1000B000AD250200C1250200D5250200E925020078
:1000C000FD250200152602002D260200452602000D
:1000D0005D260200752602008D260200A52602007C
:1000E000BD260200D5260200ED26020005270200EB
:1000F0001D270200352702004D2702006527020058
:100100007D27020095270200AD270200C5270200C7
:10011000DD270200F52702000D2802002528020035
:100120003D280200552802006D28020085280200A3
:100130009D280200B5280200CD280200E528020013
:10014000FD280200152902002D2902004529020080
:100150005D290200752902008D290200A5290200EF
:10016000BD290200D5290200ED290200052A02005E
:100170001D2A0200352A02004D2A0200652A0200CB
:100180007D2A0200952A0200AD2A0200C52A02003B
:10019000DD2A0200F52A02000D2B0200252B0200A9
:1001A0003D2B0200552B02006D2B0200852B020017
:1001B0009D2B0200B52B0200CD2B0200E52B020087
:1001C000FD2B0200152C02002D2C0200452C0200F4
:1001D0005D2C0200752C02008D2C0200A52C020063
:1001E000BD2C0200D52C0200ED2C0200052D0200D2
:1001F0001D2D0200352D02004D2D0200652D02003F
:100200007D2D0200952D0200AD2D0200C52D0200AE
:10021000DD2D0200F52D02000D2E0200252E02001C
:100220003D2E0200552E02006D2E0200852E02008A
:100230009D2E0200B52E0200CD2E0200E52E0200FA
:10024000FD2E02004D300200B5340200913502004F
:1002500059380200DB020200DB020200DB0202006E
:10026000C9390200E93C0200713F0200AD410200C1
:10027000D5420200E9440200454702005948020005
:10028000DFF810D000F064F8004800472583020032
:10029000AFF30080E81D002010484FF077010160A7
:1002A0000F484FF0770101600E484FF4885101600C
:1002B0000A484FF07601016009484FF0760101606D
:1002C0000948804709480047FEE7FEE7FEE7FEE7EA
:1002D000FEE7FEE7FEE7FEE7FEE7FEE7040805406F
:1002E0000C08054000080540C56D020081020200AF
:1002F000D2B201E000F8012B491EFBD27047002268
:10030000F6E710B513460A4604461946FFF7F0FF14
:10031000204610BD421C10F8011B0029FBD1801A99
:10032000704730B50B46014600202022012409E029
:1003300021FA02F59D4205D303FA02F5491B04FA9E
:1003400002F52844151EA2F10102F1DC30BD0000C7
:10035000064C074D06E0E06840F0010394E8070012
:1003600098471034AC42F6D3FFF78EFF1C8E020084
:100370003C8E020070B58C1810F8015B15F0070375
:1003800001D110F8013B2A1106D110F8012B03E02E
:1003900010F8016B01F8016B5B1EF9D12B0705D436
:1003A0000023521E0DD401F8013BFAE710F8013B7F
:1003B000CB1A921C03E013F8015B01F8015B521E9B
:1003C000F9D5A142D8D3002070BD000010B500249B
:1003D00007E0672060431549085C00B903E0601C32
:1003E000C4B2112CF5DB00BF00241BE06721614380
:1003F0000E4A1144C81CFFF78DFFC1B2672060434D
:100400000A4A1044417067216143114401F13500EB
:10041000FFF780FFC1B267206043044A1044817037
:10042000601CC4B2112CE1DB10BD00004C80FF1F2A
:1004300030B50446A078617888421DD0A57804F1D3
:100440002C0303EBC5035A6804F12C0303EBC5032B
:100450005B78190204F12C0313F83530F02545EAD6
:100460000320002304F036FEA078401C052190FBF9
:10047000F1F201FB1200A07030BD70B5047804B138
:1004800070BD01240470457800F12C0404F8351087
:10049000457804EBC5046270457800F12C0404EB48
:1004A000C50463604478641C052594FBF5F605FBE0
:1004B0001644447000BFE3E72DE9F04705460E46B9
:1004C000144600270021284607F08CF880460121B9
:1004D000284607F087F88146012C07D1B8F1010FB3
:1004E00002D0B9F1010F08D1012706E031462846B4
:1004F00007F078F8012800D10127012F0BD1002047
:1005000001E000BF401C0549096842F21072B1FBCE
:10051000F2F18142F5D8BDE8F08700000080FF1FAE
:1005200010B5AFF3008010BD70B504460D46002C29
:1005300062D000BF0DB1012D00D104E04FF48471F1
:100540002EA001F04FFB00BF3648007820F080005D
:10055000803034490870217A32481430007861F3D1
:1005600003003049143108700846007820F020005C
:100570000870091D20680860081F007820F020001E
:100580002030091F0870091D60680860607A410802
:1005900024481830006861F39E70224918310860C1
:1005A000607A096860F35D711E4818300160012DA2
:1005B0000AD1801E0078227A01219140C9B20843F5
:1005C00018491631087009E0164816300078227A6A
:1005D00001219140884313491631087000BF00BFC4
:1005E0001048007820F080000E4908700846007816
:1005F000C0090028F4D100BF70BD00002E2E5C2E73
:100600002E5C2E2E5C2E2E5C6472697665725C7395
:1006100072635C68633332663436785F63616E2E72
:1006200063000000A004074000286DD0827837499D
:10063000097862F3C711354A1170C2783349491EEF
:10064000097862F34511314A521E117002782F4920
:10065000097862F3C3012D4A117042782B49097859
:1006600062F38611294A11700021521C1170111F6A
:10067000097821F080018031121F1170C27923495D
:10068000491D096862F31F61204A521D11600279F9
:100690001E49491D096862F307011C4A521D116079
:1006A00042791A49491D096862F30E21174A521D01
:1006B000116082791549491D096862F31641134A90
:1006C000521D1160027A1149091D097862F3071160
:1006D0000E4A121D1170427A0C49091D097862F305
:1006E00003010A4A121D117000BF00BF0749C91E4D
:1006F000097821F08001054AD21E1170114609784F
:10070000C9090029F2D100BF70470000A3040740C7
:1007100070B504460E4600BF802C14D0402C12D079
:10072000202C10D0102C0ED0082C0CD0042C0AD069
:10073000022C08D0B4F5001F05D0B4F5002F02D06C
:10074000B4F5003F00D104E04FF4DA710CA001F0E1
:1007500049FA00BF00BF0EB1012E00D104E040F203
:10076000B51107A001F03EFA00BF0F4D012E03D1D5
:1007700028682043286002E02868A043286070BDF4
:100780002E2E5C2E2E5C2E2E5C2E2E5C64726976D4
:1007900065725C7372635C68633332663436785FAB
:1007A00063616E2E63000000A404074070B5044628
:1007B000002500BF012C26D0B4F5004F23D0B4F59E
:1007C000804F20D0B4F5005F1DD0B4F5805F1AD003
:1007D000B4F5006F17D0B4F5806F14D0B4F5007F76
:1007E00011D0B4F5807F0ED0B4F5000F0BD0B4F566
:1007F000800F08D0B4F5801F05D0B4F5802F02D04B
:10080000B4F5803F00D104E040F2ED1104A001F006
:10081000E9F900BF0C4D28682043286070BD000036
:100820002E2E5C2E2E5C2E2E5C2E2E5C6472697633
:1008300065725C7372635C68633332663436785F0A
:1008400063616E2E63000000A404074070B5044687
:100850000025002600BF012C26D0B4F5004F23D080
:10086000B4F5804F20D0B4F5005F1DD0B4F5805FA3
:100870001AD0B4F5006F17D0B4F5806F14D0B4F56A
:10088000007F11D0B4F5807F0ED0B4F5000F0BD0EF
:10089000B4F5800F08D0B4F5801F05D0B4F5802FD3
:1008A00002D0B4F5803F00D104E040F2D31105A09E
:1008B00001F098F900BF0D4D2868204000B10126D5
:1008C000304670BD2E2E5C2E2E5C2E2E5C2E2E5CA5
:1008D0006472697665725C7372635C6863333266F6
:1008E0003436785F63616E2E63000000A404074015
:1008F0000146B9B10E48006808600D48001D006847
:1009000048600B4808300068886009480C3002686D
:10091000CA600748A330007820F010001030044A65
:10092000A33210700248A330007800F00300704733
:10093000000407401FB54FF40040FFF787FF78B170
:100940004FF40040FFF732FF6846FFF7D1FF0098F1
:10095000012805D1009881B202AA024800F068FD82
:100960001FBD0000100B0020F8B1027C0F49097870
:1009700062F3C7110D4A11700C4A513A01681160B7
:10098000121D41681160121D81681160121DC1683D
:100990001160017C012908D10449491C097821F022
:1009A00040014031014A521C11707047A1040740B8
:1009B00010B5044600BF102C07D0082C05D0042C1D
:1009C00003D0022C01D0012C00D104E040F25111DF
:1009D00006A001F007F900BF0E48007820430D493A
:1009E0000870481C007800F0030010BD2E2E5C2E0D
:1009F0002E5C2E2E5C2E2E5C6472697665725C73A2
:100A000072635C68633332663436785F63616E2E7E
:100A100063000000A104074070B5002100220024FB
:100A2000002300287ED0434D2D7805F00705052DC5
:100A300015D2DFE805F00306090D10003E4D0560F4
:100A40003BE03E4D056038E04FF40045056034E082
:100A50003A4D056031E04FF4004505602DE0354D1D
:100A6000DA352D68C5F3C013324D263DD5F8005157
:100A70002A0F304DDA352D68C5F308212D4D263D5E
:100A8000D5F8005105F01F0453B9651C2B4EB6FB79
:100A9000F5F54E1C7543561CB5FBF6F505600BE0ED
:100AA000012B09D1651C244EB6FBF5F54E1C754390
:100AB000561CB5FBF6F5056000BF00BF1D4E263E77
:100AC0000568366AC6F30266F5404560194E263E53
:100AD0000568366AC6F30256F5408560154E263E17
:100AE0000568366A06F00706F540C560114E263ED9
:100AF0000568366AC6F30216F54005610D4E263EBE
:100B00000568366AC6F30226F5404561094E263E61
:100B10000568366AC6F30236F5408561054E263E05
:100B2000056800E004E0366AC6F30246F540C56198
:100B300070BD0000264005400024F40000127A0039
:100B400070B5044600BF3CB1012C05D0022C03D087
:100B5000032C01D0042C00D104E040F26F611EA0F0
:100B600001F040F800BF34B1012C0DD0022C14D09C
:100B7000032C24D11AE02248007800F0010080F014
:100B8000010080F0010524E01D480078C0F3C0009A
:100B900080F0010080F001051BE019480078C0F3E7
:100BA000401080F0010080F0010512E01448007848
:100BB000C0F3801080F0010080F0010509E01048CA
:100BC000401D007800F0010080F0010080F0010578
:100BD00000BF00BF284670BD2E2E5C2E2E5C2E2E30
:100BE0005C2E2E5C6472697665725C7372635C68FD
:100BF000633332663436785F636C6B2E63000000BB
:100C00003C400540F8B5044600200090002600BF97
:100C10000CB1012C00D104E040F24D3120A000F0D5
:100C2000E1FF00BF284800884AF2015108432749E4
:100C3000A1F8FE0394B925482630007800F007009B
:100C4000052801D101261FE020482A30007820F035
:100C50000100401C1D4981F82A0015E01B482A307C
:100C6000007820F00100194981F82A0000BF022015
:100C7000FFF766FF05460098401C00900098B0F50D
:100C8000805F01D2012DF2D10F4800884FF6FE712E
:100C9000084040F425400D49A1F8FE033046F8BD58
:100CA0002E2E5C2E2E5C2E2E5C2E2E5C64726976AF
:100CB00065725C7372635C68633332663436785F86
:100CC000636C6B2E63000000FE430540004005404E
:100CD00070B5044600250026002C7DD000BF20689A
:100CE000022803D32068102800D804E040F21B310A
:100CF00054A000F077FF00BF00BF6068012803D355
:100D00006068102800D804E04FF447714DA000F04F
:100D100069FF00BF00BFA068022803D3A0681028A5
:100D200000D804E040F21D3146A000F05BFF00BF98
:100D300000BFE068142804D3E068B0F5F07F00D865
:100D400004E040F21E313FA000F04CFF00BF00BFA6
:100D50002069012803D32069182800D804E040F254
:100D60001F3138A000F03EFF00BF40480068C0F3CC
:100D7000C01008B93E4800E03E482169B0FBF1F5DB
:100D8000E06800FB05F600BF3B48854203D33B48C3
:100D9000854200D804E040F226312AA000F022FF6C
:100DA00000BF00BF3648864203D34000864200D8C9
:100DB00004E040F2273123A000F014FF00BF3148C7
:100DC00000884AF2015108432E4908802078401ECD
:100DD0002D49D1F8001100E032E060F31F71234883
:100DE00001602079401E2849D1F8001160F31B6191
:100DF0001E480160207A401E2349D1F8001160F39B
:100E000017511A480160A089401E1F49D1F80011EE
:100E100060F3102115480160207C401E1A49D1F86A
:100E2000001160F304011848C0F80011B0F8FE0387
:100E30004FF6FE71084040F425401349A1F8FE0327
:100E400070BD00002E2E5C2E2E5C2E2E5C2E2E5C95
:100E50006472697665725C7372635C686333326670
:100E60003436785F636C6B2E6300000000410540F0
:100E700000127A000024F40040420F0000366E0198
:100E8000001C4E0EFE4305400040054010B50446D0
:100E900000BF0CB1012C00D104E04FF43F710FA052
:100EA00000F0A0FE00BF174800884AF20151084335
:100EB0001549A1F8FE030846D0F8000164F3C710F5
:100EC000C1F800010846B0F8FE034FF6FE71084075
:100ED00040F425400C49A1F8FE0310BD2E2E5C2ED7
:100EE0002E5C2E2E5C2E2E5C6472697665725C73AD
:100EF00072635C68633332663436785F636C6B2E82
:100F000063000000FE4305400040054010B586B078
:100F10000446002005903548006804903348406836
:100F200003903248806802903048C068019000BF4A
:100F30001CB1012C02DB052C00DC04E040F2DD31A9
:100F40002BA000F04FFE00BF3348007800F00700F0
:100F5000052801D0052C0DD1304824490860C01265
:100F600048608860C86000BF0598401C05900598DF
:100F7000B028F9D32A4800884AF20151084326498B
:100F80002639A1F8FE03084690F8260064F3020013
:100F900081F826000846B0F8FE034FF6FE710840BF
:100FA00040F425401C492639A1F8FE030020059095
:100FB00000BF0598401C05900598B028F9D30B494F
:100FC0000498086003984860029888600198C86097
:100FD0000020059000BF0598401C05900598B0289A
:100FE000F9D305F08DFE06B010BD0000008004406E
:100FF0002E2E5C2E2E5C2E2E5C2E2E5C647269765C
:1010000065725C7372635C68633332663436785F32
:10101000636C6B2E6300000026400540EEFAFFFF74
:10102000FE43054010B586B00446002005905448A4
:1010300000680490524840680390514880680290CC
:101040004F48C0680190002C7ED000BF2078E17826
:10105000884232DC2078617988422EDC2078A179C0
:1010600088422ADCA078E178884226DCA078617981
:10107000884222DC2079A179401A03281CD02079EB
:10108000A179401A022817D02079A179401A0128A5
:1010900012D02079A179401A0ED0A0792179401A76
:1010A000012809D0A0792179401A022804D0A0791A
:1010B0002179401A032800D104E040F2364131A0E2
:1010C00000F090FD00BF3948007800F007000528C7
:1010D0000DD137482A490860C01248608860C8604E
:1010E00000BF0598401C05900598B028F9D33148F9
:1010F00000884AF2015108432E490880A078E1781F
:1011000040EA0110217940EA0120617940EA01308A
:10111000A17940EA0140617840EA0150217840EA33
:10112000016040EA0170214926390862214800889F
:101130004FF6FE71084040F425401C492639A1F8BD
:10114000FE030020059000E018E000BF0598401C59
:1011500005900598B028F9D30949049808600398C8
:101160004860029888600198C8600020059000BF20
:101170000598401C05900598B028F9D306B010BD1D
:10118000008004402E2E5C2E2E5C2E2E5C2E2E5CBB
:101190006472697665725C7372635C68633332662D
:1011A0003436785F636C6B2E630000002640054088
:1011B000EEFAFFFFFE430540F8B50446002000901C
:1011C000002600BF0CB1012C00D104E04FF4D07117
:1011D00031A000F007FD00BF00BF0CB1012C00D111
:1011E00004E04FF4D1712CA000F0FCFC00BF3448A7
:1011F00000884AF2015108433249A1F8FE034CBB72
:1012000030482630007800F00700032801D101267D
:1012100036E02D480068C0F3C01088B929482A304C
:10122000007800F0010008B9012629E02548323095
:10123000007820F00100401C224981F832001FE0B4
:1012400020483230007820F00100401C1D4981F810
:10125000320015E01B483230007820F001001949B7
:1012600081F8320000BF0120FFF76AFC05460098B4
:10127000401C00900098B0F5805F01D2012DF2D1A2
:101280000F4800884FF6FE71084040F425400D4994
:10129000A1F8FE033046F8BD2E2E5C2E2E5C2E2EBD
:1012A0005C2E2E5C6472697665725C7372635C6836
:1012B000633332663436785F636C6B2E63000000F4
:1012C000FE430540004005400041054058B3164923
:1012D00009884AF201521143134A118002781249D7
:1012E0001231097862F3C7110F4A12321170427835
:1012F0000D491231097862F386110B4A12321170CE
:10130000827809491231097862F30511064A1232CE
:101310001170054909884FF6FE72114041F42541CC
:10132000024AA2F8FE137047FE4305400040054004
:1013300010B540F2DE510448FEF7E1FF40F2DE5105
:101340000248FEF7DCFF10BD100B0020EE1000205D
:1013500070B586B004460E462078617888425DD02C
:10136000002507E0617804F5977000EBC100405D4F
:1013700070556D1C082DF5DB2A48844244D16178F4
:10138000A01C30F811000190029820F00F000830E6
:101390000290029820F080000290029820F0400015
:1013A000029001208DF81400002508E0617804F512
:1013B000977000EBC100415D03A841556D1C029878
:1013C00000F00F00A842F1DC01A8FFF7CDFA0220DF
:1013D000FFF7EEFA0020144908600FE01248006899
:1013E00005280BD36078401C962190FBF1F201FB9D
:1013F000120060706FF0010006B070BD0B480078FD
:1014000000F003000028E9D16078401C962190FB91
:10141000F1F201FB120060700120EDE74FF0FF30A8
:10142000EAE70000EE1000205487FF1FA2040740E7
:1014300070B50B460578841C24F81530002107E0B0
:10144000555C067800F5977404EBC6046554491C96
:101450000829F5DB0478641C962594FBF5F605FB5A
:101460001644047070BD000030B585B005460C46CA
:101470000095019820F00F0008300190019820F0AD
:1014800080000190019820F04000019001208DF82B
:10149000100020788DF80800174801788DF80910A1
:1014A000A1788DF80A10E1788DF80B1021798DF86C
:1014B0000C1061798DF80D10A1798DF80E10E1797D
:1014C0008DF80F106846FFF74FFA0220FFF770FA09
:1014D00000200A49086007E008480068052803D38F
:1014E0004FF0FF3005B030BD0548007800F0030034
:1014F0000028F1D100BFF5E7A81700205487FF1F8F
:10150000A204074010B5044605F090FA04F020F953
:101510002078D42813D16078012810D1A07870B930
:10152000814881880022104607F048F97F480078FA
:1015300020F080007D49087000204870F0E020789D
:10154000D42809D16078022806D1A078012803D1D7
:10155000204604F0DFF8E3E02078D42809D1607851
:10156000022806D1A078022803D1204604F0B0F862
:10157000D6E0207871280BD160780C2808D10120A2
:101580006B4908706B49087002206B490870C7E00E
:101590002078D42816D16078102813D1A07810B103
:1015A000A07801280ED1A1785F48007861F300008F
:1015B0005D4908700846007800F00101002006F03F
:1015C000D7FFADE02078D42806D16078112803D168
:1015D000204605F0F3FAA3E02078D4280DD16078F6
:1015E00012280AD1E0785049888008468088A1787E
:1015F00040EA01204C49888092E02078D4280DD11F
:10160000607813280AD1E0784749C8800846C08826
:10161000A17840EA01204449C88081E02078D4289C
:1016200012D1607814280FD1E0783F49088108462C
:101630000089A17840EA01203B49088108460189D8
:10164000002006F019FF6BE02078D42807D16078DD
:10165000152804D12146002003F0F4FD60E0207835
:10166000D42807D16078162804D12146002003F041
:1016700065FD55E02078D42814D16078012811D177
:10168000A07801280ED1002000F080FA002006F09A
:1016900017FF264988600846007820F080008030D7
:1016A00008703DE02078D42810D1607801280DD151
:1016B000A07802280AD1012000F068FA002006F084
:1016C000FFFE1A49C8600120487029E02078D4281C
:1016D0000CD16078012809D1A078042806D11348DC
:1016E000007820F03C001149087019E02078D428D7
:1016F0000DD1607801280AD1A078032807D10B48C2
:10170000007820F03C00001D0849087008E02078AF
:10171000D42805D16078172802D1204605F03EFA7A
:1017200000202060606010BD8087FF1FC017002070
:101730009C87FF1F9887FF1F9987FF1F2DE9F047A0
:101740008AB004464FF000080026B14600200490FD
:1017500005908246009001900290039020788DF8C9
:10176000180060788DF81900A078E17840EA01202F
:10177000ADF820002079617940EA0120ADF822001F
:10178000A079E17940EA0120ADF82400A0788DF835
:101790001A00E0788DF81B0020798DF81C00607924
:1017A0008DF81D00A0798DF81E00E0798DF81F00DE
:1017B000BDF820509DF81900092806DA9DF8190097
:1017C0000C2802DD0AB0BDE8F0879DF8180011284A
:1017D00076D00EDC0A2847D006DC012816D0072870
:1017E00020D008281DD13BE00B287ED00E28F9D14F
:1017F00056E0D32876D004DC712874D0D228F1D1F9
:1018000001E1D62870D0E128ECD117E19DF819004C
:101810000A2803D1002007F02FF802E0012007F08A
:101820002BF810E19DF819000A280AD19DF81A003A
:1018300008B9012000E000200146002006F0BCFEAF
:101840000DE09DF81900092809D19DF81A0008B982
:10185000012000E000200146012006F0ADFEF2E08C
:1018600000207A490870EEE09DF819000A2809D195
:10187000BDF82200BDF8242040EA0241002006F015
:10188000D7FF0CE09DF81900092808D1BDF8220007
:10189000BDF8242040EA0241012006F0C9FFD2E051
:1018A0009DF819000A280DD1BDF82200BDF824309A
:1018B00040EA0342BDF82010002006F07FFF10E050
:1018C0002DE012E09DF8190009280AD1BDF8220088
:1018D000BDF8243040EA0342BDF82010012006F094
:1018E0006DFFB0E022E020E050E0BDF82200BDF83E
:1018F000241040EA01469DF819000A2805D1324615
:101900000121002006F07AFF08E09DF8190009285F
:1019100004D132460121002006F070FF93E000223E
:101920000121104606F06AFF8DE08CE09DF8190059
:101930000B281CD19DF81B109DF81A0006F07CF8AE
:101940009DF81A008D2807D19DF81B0001281CD195
:1019500002203F49087018E09DF81A008C2814D125
:101960009DF81B00012810D1394908700DE09DF841
:1019700019000C2809D19DF81A00032805DA9DF8F2
:101980001B109DF81A0000F0BFF95CE09DF81A00EA
:10199000672110FB01F02F49085C98B39DF81B00EC
:1019A000C0B99DF81A10672211FB02F1294A1144AF
:1019B000481CFEF7AFFCC7B29DF81A20672312FB44
:1019C00003F2244B1A44511C9DF819003A4600F0CA
:1019D00043F817E09DF81A10672211FB02F11D4A27
:1019E0001144881CFEF796FCC7B29DF81A206723A5
:1019F00012FB03F2174B1A44911C9DF819003A464A
:101A000000F02AF81FE0E81378B105F07F001028F5
:101A100004DA05F07F0003F02BF90EE09DF81910B1
:101A200005F07F0003F094F907E0BDF822209DF84F
:101A3000191005F07F0003F0BDFA04E0BDF82200A4
:101A400005F07CFF00BF00BF00BFBBE6CC16002046
:101A50004580FF1F4C80FF1F2DE9F04707460E46CB
:101A600015464FF00008C146681CC5B2052095FB1D
:101A7000F0F100FB115028B9052095FBF0F000F0C3
:101A8000FF0805E0052095FBF0F0401C00F0FF0882
:101A9000002448E0A8F10100A04205DD052000EB8C
:101AA000041000F0FF0914E0052095FBF0F100FBA5
:101AB000115028B9052000EB041000F0FF0908E0E0
:101AC000052095FBF0F100FB115040EA041000F0F6
:101AD000FF0904EB840C0CF1030C16F80CA004EBCA
:101AE000840C0CF1040C16F80CC04AEA0C2304EB2D
:101AF000840C0CF1010C16F80CA004EB840C0CF116
:101B0000020C16F80CC04AEA0C2204EB840C16F8FE
:101B10000CC049EA0C214FF0D60C4CEA072003F028
:101B2000D9FA601CC4B24445B4DBBDE8F0870000BC
:101B300070B500251248007808B300240DE0E0B22B
:101B400006F0D2FA20B10120A040284385B202E07D
:101B50000120A0408543601C84B2022CEFDB0948C1
:101B6000007885420BD02902074A1278712343EA94
:101B7000022000231A4603F0ADFA02490D7070BD31
:101B80004780FF1F3B87FF1FA817002011490978D6
:101B900021F001010F4A11701146097821F002016C
:101BA000117000210C4A117028B90A4A9161116123
:101BB000D16151800CE001280AD10021054A9161D0
:101BC0005161116291801146097821F04001117034
:101BD00070470000C01700208C87FF1F10B505F06C
:101BE0001BF810BD70B504460D462A46214602A0DA
:101BF00006F0A4F800BFFEE757726F6E67207061B1
:101C000072616D65746572732076616C75653A20DA
:101C100066696C65202573206F6E206C696E652087
:101C200025640D0A0000000008B500220092002182
:101C3000094A116842F21072B1FBF2F106E000911C
:101C400000BF009A531E0093002AFAD1021EA0F191
:101C50000100F4D108BD00000080FF1F08B501227B
:101C6000002100910D4909680D4B994210D90B498B
:101C70000968B1FBF3F206E0009200BF00994B1E29
:101C800000930029FAD1011EA0F10100F4D104E073
:101C900000BF011EA0F10100FBD108BD0080FF1FA5
:101CA0008096980010B5AFF3008010BD04494860DD
:101CB00000BF03490968C1F380110029F9D07047BA
:101CC0000010024010B5034AD18C034AD07C03F0C7
:101CD00075FE10BDA88D02008C8D020010B5044663
:101CE000012C06D1064A118E064A107E03F0DAFF57
:101CF00005E0034A118E034A107E04F009F810BD76
:101D0000A88D02008C8D020070B505460C4625B1E9
:101D1000012D11D0022D2DD11DE034B1164A118DA7
:101D2000164A107D03F0F4FF05E0134A118D134AA3
:101D3000107D03F0B7FF1DE034B10F4A518D0F4AFB
:101D4000507D03F0E5FF05E00B4A518D0B4A507DB5
:101D500003F0A8FF0EE034B1074A918D074A907D49
:101D600003F0D6FF05E0044A918D044A907D03F00C
:101D700099FF00BF00BF70BDA88D02008C8D0200CE
:101D800010B5084AD18D084AD07D03F0C1FF01206B
:101D9000FFF74AFF034AD18D034AD07D03F082FF4B
:101DA00010BD0000A88D02008C8D02000149086062
:101DB000704700001404014010B5044600BF0CB188
:101DC000012C00D104E04FF4A67105A0FFF70AFF33
:101DD00000BF0D48006864F300000B49086010BDA7
:101DE0002E2E5C2E2E5C2E2E5C2E2E5C647269765E
:101DF00065725C7372635C68633332663436785F35
:101E000065666D2E630000000C04014070B5044649
:101E10000D4600F0C1F9204600F07AF82946204628
:101E200000F054F900F068F870BD000010B50446E9
:101E300000BF0CB1012C00D103E0DC2107A0FFF7AB
:101E4000D1FE00BF012C01D0012100E000210D488E
:101E5000006861F300000B49086010BD2E2E5C2E57
:101E60002E5C2E2E5C2E2E5C6472697665725C731D
:101E700072635C68633332663436785F65666D2EF4
:101E8000630000000404014010B5044600BF012CAB
:101E90000CD0022C0AD0042C08D0082C06D0102C10
:101EA00004D0202C02D0B4F5807F00D104E04FF4A0
:101EB000D27106A0FFF796FE00BF0E4800682040D2
:101EC00008B1012010BD0020FCE700002E2E5C2E82
:101ED0002E5C2E2E5C2E2E5C6472697665725C73AD
:101EE00072635C68633332663436785F65666D2E84
:101EF000630000001004014004480068012804D178
:101F000043F2102001490860086070470004014056
:101F10002DE9F04104460026002700BF1CB11CB18A
:101F20001F48844200D804E040F20B311DA0FFF7A7
:101F300059FE00BF3F20FFF739FF24480068C0F377
:101F400000452248006820F48030204908600120C4
:101F5000FFF732FF042000F03DF81D48206005E047
:101F6000701C86B2B6F5805F00D909271748083083
:101F70000068C0F300200028F2D01020FFF716FF01
:101F8000002000F027F80020FFF716FF0F48006838
:101F900065F310400D4908603846BDE8F081000047
:101FA000DFFF07002E2E5C2E2E5C2E2E5C2E2E5C6C
:101FB0006472697665725C7372635C6863333266FF
:101FC0003436785F65666D2E6300000008040140BA
:101FD0007856341210B5044600BF6CB1012C0BD0FA
:101FE000022C09D0032C07D0042C05D0052C03D0DB
:101FF000062C01D0072C00D104E04FF4B37105A0EA
:10200000FFF7F0FD00BF0D48006864F306100B49B0
:10201000086010BD2E2E5C2E2E5C2E2E5C2E2E5CAB
:102020006472697665725C7372635C68633332668E
:102030003436785F65666D2E630000000C04014045
:1020400010B5044600BFECB1012C1BD0022C19D0F6
:10205000032C17D0042C15D0052C13D0062C11D02E
:10206000072C0FD0082C0DD0092C0BD00A2C09D02E
:102070000B2C07D00C2C05D00D2C03D00E2C01D02E
:102080000F2C00D103E0FD2105A0FFF7ABFD00BF41
:102090000D48006864F307100B49086010BD00008C
:1020A0002E2E5C2E2E5C2E2E5C2E2E5C647269769B
:1020B00065725C7372635C68633332663436785F72
:1020C00065666D2E63000000080401402DE9F041B3
:1020D00004460D464FF00008002700BF1CB11CB19C
:1020E0002148844200D804E040F22A211FA0FFF7D3
:1020F00079FD00BF3F20FFF759FE26480068C0F376
:1021000000462448006820F48030224908600120FD
:10211000FFF752FE0120FFF75DFF256006E0781C07
:1021200087B2B7F5805F01D94FF009081948083028
:102130000068C0F300200028F1D02068A84201D038
:102140004FF001081020FFF731FE0020FFF742FF9B
:102150000020FFF731FE0F48006866F310400D497C
:1021600008604046BDE8F081DFFF07002E2E5C2EA0
:102170002E5C2E2E5C2E2E5C6472697665725C730A
:1021800072635C68633332663436785F65666D2EE1
:10219000630000000804014040F223100249086077
:1021A00043F2102008607047000401401CB500BFD6
:1021B00000200090019000BF02208DF80500002053
:1021C0008DF8060001208DF8020000240DE028485B
:1021D000005D8DF80000274A32F81410264A105D81
:1021E0006A4603F053FC601CC4B21B2CEFDB214A8F
:1021F0001189214A107903F08BFD1E4A51891E4A2C
:10220000507903F085FD1B4A91891B4A907903F0B0
:102210007FFD184AD18B184AD07B03F079FD154A0F
:10222000118C154A107C03F03DFD124A518C124A64
:10223000507C03F037FD002405E00121204606F024
:10224000D1FB601CC4B2022CF7DBFFF799FD012023
:10225000FFF744FD00210846FFF756FD002101204D
:10226000FFF752FD00210220FFF74EFD1CBD0000CC
:102270006487FF1FA88D02008C8D0200244800781F
:10228000002837D02348007800F0010070B92148B9
:102290000078C0F3400048B91F480078012805D1F4
:1022A00000201E4908701C4908702EE0194800786B
:1022B000C0F3400060B11848007848B902201749BF
:1022C00008700120144908700420154908701CE0AA
:1022D0001048007800F00100B8B10F480078A0B9AC
:1022E00002200E49087001200B49087004200C4997
:1022F00008700AE00748007820F0010005490870DE
:102300000846007820F002000870002070470000A6
:102310009887FF1FC0170020A187FF1FA087FF1FFE
:102320009987FF1F0F480078D0B10F480078012827
:1023300009D10E48007830B903200D4908700120FA
:102340000A4908700CE00848007848B90748007846
:10235000012805D1032006490870002003490870B0
:10236000002070479887FF1F9F87FF1FA287FF1FCE
:102370009987FF1F10B5AFF3008010BD10B503485B
:10238000006810B101490868804710BDE4170020BB
:1023900010B50348406810B101494868804710BD36
:1023A000E417002010B50348806810B1014988681F
:1023B000804710BDE417002010B50348C06810B175
:1023C0000149C868804710BDE417002010B50348D4
:1023D000006910B101490869804710BDE417002069
:1023E00010B50348406910B101494869804710BDE4
:1023F000E417002010B50348806910B101498869CD
:10240000804710BDE417002010B50348C06910B123
:102410000149C869804710BDE417002010B5034882
:10242000006A10B10149086A804710BDE417002016
:1024300010B50348406A10B10149486A804710BD91
:10244000E417002010B50348806A10B10149886A7A
:10245000804710BDE417002010B50348C06A10B1D2
:102460000149C86A804710BDE417002010B5034831
:10247000006B10B10149086B804710BDE4170020C4
:1024800010B50348406B10B10149486B804710BD3F
:10249000E417002010B50348806B10B10149886B28
:1024A000804710BDE417002010B50348C06B10B181
:1024B0000149C86B804710BDE417002010B50348E0
:1024C000006C10B10149086C804710BDE417002072
:1024D00010B50348406C10B10149486C804710BDED
:1024E000E417002010B50348806C10B10149886CD6
:1024F000804710BDE417002010B50348C06C10B130
:102500000149C86C804710BDE417002010B503488E
:10251000006D10B10149086D804710BDE41700201F
:1025200010B50348406D10B10149486D804710BD9A
:10253000E417002010B50348806D10B10149886D83
:10254000804710BDE417002010B50348C06D10B1DE
:102550000149C86D804710BDE417002010B503483D
:10256000006E10B10149086E804710BDE4170020CD
:1025700010B50348406E10B10149486E804710BD48
:10258000E417002010B50348806E10B10149886E31
:10259000804710BDE417002010B50348C06E10B18D
:1025A0000149C86E804710BDE417002010B50348EC
:1025B000006F10B10149086F804710BDE41700207B
:1025C00010B50348406F10B10149486F804710BDF6
:1025D000E417002010B50348806F10B10149886FDF
:1025E000804710BDE417002010B50348C06F10B13C
:1025F0000149C86F804710BDE417002010B504489A
:10260000D0F8800018B10249D1F88000804710BD91
:10261000E417002010B50448D0F8840018B102492E
:10262000D1F88400804710BDE417002010B504489D
:10263000D0F8880018B10249D1F88800804710BD51
:10264000E417002010B50448D0F88C0018B10249F6
:10265000D1F88C00804710BDE417002010B5044865
:10266000D0F8900018B10249D1F89000804710BD11
:10267000E417002010B50448D0F8940018B10249BE
:10268000D1F89400804710BDE417002010B504482D
:10269000D0F8980018B10249D1F89800804710BDD1
:1026A000E417002010B50448D0F89C0018B1024986
:1026B000D1F89C00804710BDE417002010B50448F5
:1026C000D0F8A00018B10249D1F8A000804710BD91
:1026D000E417002010B50448D0F8A40018B102494E
:1026E000D1F8A400804710BDE417002010B50448BD
:1026F000D0F8A80018B10249D1F8A800804710BD51
:10270000E417002010B50448D0F8AC0018B1024915
:10271000D1F8AC00804710BDE417002010B5044884
:10272000D0F8B00018B10249D1F8B000804710BD10
:10273000E417002010B50448D0F8B40018B10249DD
:10274000D1F8B400804710BDE417002010B504484C
:10275000D0F8B80018B10249D1F8B800804710BDD0
:10276000E417002010B50448D0F8BC0018B10249A5
:10277000D1F8BC00804710BDE417002010B5044814
:10278000D0F8C00018B10249D1F8C000804710BD90
:10279000E417002010B50448D0F8C40018B102496D
:1027A000D1F8C400804710BDE417002010B50448DC
:1027B000D0F8C80018B10249D1F8C800804710BD50
:1027C000E417002010B50448D0F8CC0018B1024935
:1027D000D1F8CC00804710BDE417002010B50448A4
:1027E000D0F8D00018B10249D1F8D000804710BD10
:1027F000E417002010B50448D0F8D40018B10249FD
:10280000D1F8D400804710BDE417002010B504486B
:10281000D0F8D80018B10249D1F8D800804710BDCF
:10282000E417002010B50448D0F8DC0018B10249C4
:10283000D1F8DC00804710BDE417002010B5044833
:10284000D0F8E00018B10249D1F8E000804710BD8F
:10285000E417002010B50448D0F8E40018B102498C
:10286000D1F8E400804710BDE417002010B50448FB
:10287000D0F8E80018B10249D1F8E800804710BD4F
:10288000E417002010B50448D0F8EC0018B1024954
:10289000D1F8EC00804710BDE417002010B50448C3
:1028A000D0F8F00018B10249D1F8F000804710BD0F
:1028B000E417002010B50448D0F8F40018B102491C
:1028C000D1F8F400804710BDE417002010B504488B
:1028D000D0F8F80018B10249D1F8F800804710BDCF
:1028E000E417002010B50448D0F8FC0018B10249E4
:1028F000D1F8FC00804710BDE417002010B5044853
:10290000D0F8000118B10249D1F80001804710BD8C
:10291000E417002010B50448D0F8040118B10249AA
:10292000D1F80401804710BDE417002010B5044819
:10293000D0F8080118B10249D1F80801804710BD4C
:10294000E417002010B50448D0F80C0118B1024972
:10295000D1F80C01804710BDE417002010B50448E1
:10296000D0F8100118B10249D1F81001804710BD0C
:10297000E417002010B50448D0F8140118B102493A
:10298000D1F81401804710BDE417002010B50448A9
:10299000D0F8180118B10249D1F81801804710BDCC
:1029A000E417002010B50448D0F81C0118B1024902
:1029B000D1F81C01804710BDE417002010B5044871
:1029C000D0F8200118B10249D1F82001804710BD8C
:1029D000E417002010B50448D0F8240118B10249CA
:1029E000D1F82401804710BDE417002010B5044839
:1029F000D0F8280118B10249D1F82801804710BD4C
:102A0000E417002010B50448D0F82C0118B1024991
:102A1000D1F82C01804710BDE417002010B5044800
:102A2000D0F8300118B10249D1F83001804710BD0B
:102A3000E417002010B50448D0F8340118B1024959
:102A4000D1F83401804710BDE417002010B50448C8
:102A5000D0F8380118B10249D1F83801804710BDCB
:102A6000E417002010B50448D0F83C0118B1024921
:102A7000D1F83C01804710BDE417002010B5044890
:102A8000D0F8400118B10249D1F84001804710BD8B
:102A9000E417002010B50448D0F8440118B10249E9
:102AA000D1F84401804710BDE417002010B5044858
:102AB000D0F8480118B10249D1F84801804710BD4B
:102AC000E417002010B50448D0F84C0118B10249B1
:102AD000D1F84C01804710BDE417002010B5044820
:102AE000D0F8500118B10249D1F85001804710BD0B
:102AF000E417002010B50448D0F8540118B1024979
:102B0000D1F85401804710BDE417002010B50448E7
:102B1000D0F8580118B10249D1F85801804710BDCA
:102B2000E417002010B50448D0F85C0118B1024940
:102B3000D1F85C01804710BDE417002010B50448AF
:102B4000D0F8600118B10249D1F86001804710BD8A
:102B5000E417002010B50448D0F8640118B1024908
:102B6000D1F86401804710BDE417002010B5044877
:102B7000D0F8680118B10249D1F86801804710BD4A
:102B8000E417002010B50448D0F86C0118B10249D0
:102B9000D1F86C01804710BDE417002010B504483F
:102BA000D0F8700118B10249D1F87001804710BD0A
:102BB000E417002010B50448D0F8740118B1024998
:102BC000D1F87401804710BDE417002010B5044807
:102BD000D0F8780118B10249D1F87801804710BDCA
:102BE000E417002010B50448D0F87C0118B1024960
:102BF000D1F87C01804710BDE417002010B50448CF
:102C0000D0F8800118B10249D1F88001804710BD89
:102C1000E417002010B50448D0F8840118B1024927
:102C2000D1F88401804710BDE417002010B5044896
:102C3000D0F8880118B10249D1F88801804710BD49
:102C4000E417002010B50448D0F88C0118B10249EF
:102C5000D1F88C01804710BDE417002010B504485E
:102C6000D0F8900118B10249D1F89001804710BD09
:102C7000E417002010B50448D0F8940118B10249B7
:102C8000D1F89401804710BDE417002010B5044826
:102C9000D0F8980118B10249D1F89801804710BDC9
:102CA000E417002010B50448D0F89C0118B102497F
:102CB000D1F89C01804710BDE417002010B50448EE
:102CC000D0F8A00118B10249D1F8A001804710BD89
:102CD000E417002010B50448D0F8A40118B1024947
:102CE000D1F8A401804710BDE417002010B50448B6
:102CF000D0F8A80118B10249D1F8A801804710BD49
:102D0000E417002010B50448D0F8AC0118B102490E
:102D1000D1F8AC01804710BDE417002010B504487D
:102D2000D0F8B00118B10249D1F8B001804710BD08
:102D3000E417002010B50448D0F8B40118B10249D6
:102D4000D1F8B401804710BDE417002010B5044845
:102D5000D0F8B80118B10249D1F8B801804710BDC8
:102D6000E417002010B50448D0F8BC0118B102499E
:102D7000D1F8BC01804710BDE417002010B504480D
:102D8000D0F8C00118B10249D1F8C001804710BD88
:102D9000E417002010B50448D0F8C40118B1024966
:102DA000D1F8C401804710BDE417002010B50448D5
:102DB000D0F8C80118B10249D1F8C801804710BD48
:102DC000E417002010B50448D0F8CC0118B102492E
:102DD000D1F8CC01804710BDE417002010B504489D
:102DE000D0F8D00118B10249D1F8D001804710BD08
:102DF000E417002010B50448D0F8D40118B10249F6
:102E0000D1F8D401804710BDE417002010B5044864
:102E1000D0F8D80118B10249D1F8D801804710BDC7
:102E2000E417002010B50448D0F8DC0118B10249BD
:102E3000D1F8DC01804710BDE417002010B504482C
:102E4000D0F8E00118B10249D1F8E001804710BD87
:102E5000E417002010B50448D0F8E40118B1024985
:102E6000D1F8E401804710BDE417002010B50448F4
:102E7000D0F8E80118B10249D1F8E801804710BD47
:102E8000E417002010B50448D0F8EC0118B102494D
:102E9000D1F8EC01804710BDE417002010B50448BC
:102EA000D0F8F00118B10249D1F8F001804710BD07
:102EB000E417002010B50448D0F8F40118B1024915
:102EC000D1F8F401804710BDE417002010B5044884
:102ED000D0F8F80118B10249D1F8F801804710BDC7
:102EE000E417002010B50448D0F8FC0118B10249DD
:102EF000D1F8FC01804710BDE417002010B55148FF
:102F0000046851480068012804D104F0010008B1A8
:102F1000AFF300804C48001D0068012804D104F084
:102F2000020008B1AFF3008047480830006801286C
:102F300004D104F0040008B1AFF3008042480C3023
:102F40000068012804D104F0080008B1AFF3008044
:102F50003D4810300068012804D104F0100008B189
:102F6000AFF30080384814300068012804D104F021
:102F7000200008B1AFF30080334818300068012802
:102F800004D104F0400008B1AFF300802E481C309B
:102F90000068012804D104F0800008B1AFF300807C
:102FA000294820300068012804D104F4807008B159
:102FB000AFF30080244824300068012804D104F4D1
:102FC000007008B1AFF300801F4828300068012866
:102FD00004D104F4806008B1AFF300801A482C30AB
:102FE0000068012804D104F4006008B1AFF3008048
:102FF000154830300068012804D104F4805008B12D
:10300000AFF30080104834300068012804D104F484
:10301000005008B1AFF300800B4838300068012839
:1030200004D104F4804008B1AFF3008006483C307E
:103030000068012804D104F4004008B1AFF3008017
:1030400010BD00005C120540800AA24270B5FE4827
:10305000046800260025FD48006801282BD1FC48A3
:10306000006840B9FB480068012804D104F0010061
:1030700008B1AFF30080F6484030006848B9F54821
:1030800040300068012804D104F4807008B1AFF327
:103090000080F148406800F00116EF48C1684FF029
:1030A000011020EA010506EA050020B104F4803091
:1030B00008B1AFF30080E948006801282DD1E44849
:1030C000001D006848B9E348001D0068012804D1CC
:1030D00004F0020008B1AFF30080DD48443000681E
:1030E00048B9DC4844300068012804D104F4007079
:1030F00008B1AFF30080D848406800F00216D64807
:10310000C1684FF0021020EA010506EA050020B16F
:1031100004F4803008B1AFF30080D1480068012882
:103120002DD1CB480830006848B9CA48083000683B
:10313000012804D104F0040008B1AFF30080C448B2
:103140004830006848B9C34848300068012804D1B5
:1031500004F4806008B1AFF30080BF48406800F01D
:103160000416BD48C1684FF0041020EA010506EAC4
:10317000050020B104F4803008B1AFF30080B948F5
:10318000006801282DD1B2480C30006848B9B14818
:103190000C300068012804D104F0080008B1AFF336
:1031A0000080AB484C30006848B9AA484C300068F1
:1031B000012804D104F4006008B1AFF30080A648F0
:1031C000406800F00816A448C1684FF0081020EAD3
:1031D000010506EA050020B104F4803008B1AFF320
:1031E0000080A148006801282CD1A048006840B99F
:1031F0009F480068012804D104F0100008B1AFF323
:1032000000809A484030006848B9994840300068CA
:10321000012804D104F4805008B1AFF30080954830
:10322000006800F001169348083001684FF0011063
:1032300020EA010506EA050020B104F4003008B1D7
:10324000AFF300808C48006801282ED18748001D0C
:10325000006848B98648001D0068012804D104F0C0
:10326000200008B1AFF3008080484430006848B9BE
:10327000784844300068012804D104F4005008B1B3
:10328000AFF300807B48006800F0021679480830F0
:1032900001684FF0021020EA010506EA050020B19E
:1032A00004F4003008B1AFF30080744800680128CE
:1032B0002ED16E480830006848B96D480830006863
:1032C000012804D104F0400008B1AFF30080674842
:1032D0004830006848B95F4848300068012804D188
:1032E00004F4804008B1AFF300806248006800F049
:1032F00004166048083001684FF0041020EA010508
:1033000006EA050020B104F4003008B1AFF30080F4
:103310005B48006801282ED154480C30006848B939
:1033200053480C300068012804D104F0800008B133
:10333000AFF300804D484C30006848B945484C30E8
:103340000068012804D104F4004008B1AFF3008004
:103350004848006800F008164648083001684FF0F9
:10336000081020EA010506EA050020B104F4003047
:1033700008B1AFF3008043480068012809D14248F2
:10338000006800F00F0020B104F4802008B1AFF312
:1033900000803C4808300068012809D13948EC38E1
:1033A0000068012804D104F4002008B1AFF30080C4
:1033B0003448001D0068012809D13248F0380068FF
:1033C000012804D104F4801008B1AFF300804FF05D
:1033D0001C40C068C0F3C01020B104F4800008B1E4
:1033E000AFF3008029488669456806EA050000F0C9
:1033F0007F0020B104F4000008B1AFF3008024483E
:10340000066823481438056806EA050000F07F00C6
:1034100020B104F0807008B1AFF300801D48066849
:103420001C481438056806EA050000F07F0020B14A
:1034300004F0007008B1AFF3008017480668164822
:10344000143805682AE0000060120540B00BA6425F
:103450000002A6420001A64200300540B013A64279
:10346000B01BA642B023A642B08BA6420082A64261
:103470000081A64204340540B093A642B09BA64208
:10348000B0A3A64200832042100401400020054062
:103490001824054018280540182C054006EA0500A8
:1034A00000F07F0020B104F0806008B1AFF300802D
:1034B00070BD000010B52F4804682F48D0F80802EE
:1034C000012808D12D480068012804D104F001002A
:1034D00008B1AFF30080294838380068012809D1C5
:1034E000264840300068012804D104F0020008B1E9
:1034F000AFF3008022480068012809D120487830C5
:103500000068012804D104F0040008B1AFF3008082
:103510001B4840300068012809D11948B8300068BC
:10352000012804D104F0080008B1AFF30080154869
:103530000068012809D1134820300068012804D10F
:1035400004F4001008B1AFF300800F48006B0128AD
:1035500004D104F4800008B1AFF300800B48006888
:1035600000F4403020B104F4000008B1AFF3008053
:1035700010BD00006412054000004842800248422D
:10358000088248420008A8420080984204940440FF
:1035900070B5AA48046800260025A94800680128DB
:1035A00008D1A8480068012804D104F0010008B13E
:1035B000AFF30080A248001D0068012809D1A1488E
:1035C000001D0068012804D104F0020008B1AFF327
:1035D00000809B4808300068012809D199480830CC
:1035E0000068012804D104F0040008B1AFF30080A2
:1035F00093480C300068012809D192480C300068CB
:10360000012804D104F0080008B1AFF300808C4811
:1036100010300068012809D18A481030006801285C
:1036200004D104F0100008B1AFF3008084481430D6
:103630000068012809D1834814300068012804D1AA
:1036400004F0200008B1AFF300807D481830006816
:10365000012809D17B4818300068012804D104F002
:10366000400008B1AFF3008075481C3000680128A5
:1036700009D174481C300068012804D104F080008E
:1036800008B1AFF300806E4820300068012809D1EE
:103690006C4820300068012804D104F4807008B11F
:1036A000AFF300806848406D00F44030C6096648BA
:1036B000006F00F4C06506EA050020B104F4006064
:1036C00008B1AFF300806048406D00F44020C609A7
:1036D0005D48006F00F4C05506EA050020B104F40F
:1036E000805008B1AFF3008058480068012808D125
:1036F00057480068012804D104F4803008B1AFF3C2
:1037000000805248001D0068012809D15048001D62
:103710000068012804D104F4003008B1AFF3008040
:103720004A4808300068012809D149480830006833
:10373000012804D104F4802008B1AFF3008043488D
:103740000C300068012809D141480C30006801287C
:1037500004D104F4002008B1AFF300803B481030DE
:103760000068012809D13A4810300068012804D1C6
:1037700004F4801008B1AFF30080344814300068BE
:10378000012809D1324814300068012804D104F41A
:10379000001008B1AFF300802C48183000680128F1
:1037A00009D12B4818300068012804D104F48000A6
:1037B00008B1AFF3008025481C300068012809D10A
:1037C00023481C300068012804D104F4000008B12B
:1037D000AFF300801D4820300068012809D11C4843
:1037E00020300068012804D104F0807008B1AFF3E4
:1037F00000801848006800F44030C60915481C30A5
:10380000006800F4C06506EA050020B104F000601D
:1038100008B1AFF300800F48006800F44020C609EB
:103820000C481C30006800F4C05506EA050020B1C1
:1038300004F0805008B1AFF3008070BD68120540FD
:10384000800A3042000E304200800140808A3042BF
:10385000008E30425484014070B5574804680026F9
:10386000002556480068012808D1554800680128FD
:1038700004D104F0010008B1AFF300804F48001DEF
:103880000068012809D14E48001D0068012804D1B4
:1038900004F0020008B1AFF3008048480830006827
:1038A000012809D1464808300068012804D104F0F5
:1038B000040008B1AFF3008040480C3000680128D4
:1038C00009D13F480C300068012804D104F00800F9
:1038D00008B1AFF30080394810300068012809D1E1
:1038E000374810300068012804D104F0100008B1F6
:1038F000AFF30080314814300068012809D1304806
:1039000014300068012804D104F0200008B1AFF39E
:1039100000802A4818300068012809D1284818304A
:103920000068012804D104F0400008B1AFF3008022
:1039300022481C300068012809D121481C30006849
:10394000012804D104F0800008B1AFF300801B48C7
:1039500020300068012809D119482030006801286A
:1039600004D104F4807008B1AFF3008015480068FA
:1039700000F44030C60913481C30006800F4C065EC
:1039800006EA050020B104F4006008B1AFF300803E
:103990000C48006800F44020C6090A481C30006842
:1039A00000F4C05506EA050020B104F4805008B1C7
:1039B000AFF3008070BD00006C120540800A3142F8
:1039C000000E31425488014070B500240026BA48E8
:1039D0000568BA48D0F8804004F4805038B104F447
:1039E000804020B105F0010008B1AFF3008004F47D
:1039F000005038B104F4004020B105F0020008B1D5
:103A0000AFF30080AD4890300468AC48D0F89C60BB
:103A100004EA0600C0B220B105F0040008B1AFF31B
:103A20000080A748046804F4805038B104F4804052
:103A300020B105F0080008B1AFF3008004F4005095
:103A400038B104F4004020B105F0100008B1AFF324
:103A500000809B481030046899481C30066804EACE
:103A60000600C0B220B105F0200008B1AFF300801D
:103A70009448046804F4805038B104F4804020B1C4
:103A800005F0400008B1AFF3008004F4005038B1F5
:103A900004F4004020B105F0800008B1AFF30080CD
:103AA00088481030046887481C30066804EA06001D
:103AB000C0B220B105F4807008B1AFF30080824835
:103AC000046804F4805038B104F4804020B105F457
:103AD000007008B1AFF3008004F4005038B104F472
:103AE000004020B105F4806008B1AFF30080764853
:103AF0001030046874481C30066804EA0600C0B23E
:103B000020B105F4006008B1AFF300806F4804688D
:103B100004F4805038B104F4804020B105F48050A2
:103B200008B1AFF3008004F4005038B104F4004051
:103B300020B105F4005008B1AFF3008063481030A5
:103B4000046862488038D0F89C6004EA0600C0B27D
:103B500020B105F4804008B1AFF300805C480468F0
:103B600004F4805038B104F4804020B105F4803072
:103B700008B1AFF3008004F4005038B104F4004001
:103B800020B105F4003008B1AFF300805048103088
:103B900004684F481C30066804EA0600C0B220B131
:103BA00005F4802008B1AFF300804A48006801287E
:103BB00010D149488069494900EA010446484069F2
:103BC00000EA010604EA060020B105F4002008B16D
:103BD000AFF3008042480468C66806F0200038B1A0
:103BE00004F00B0020B105F4800008B1AFF30080B1
:103BF00006EA040000F0200020B105F4000008B13E
:103C0000AFF3008006EA040000F0800020B105F068
:103C1000807008B1AFF3008006EA040000F04000B5
:103C200020B105F0007008B1AFF3008006F002008B
:103C300038B104F4807020B105F0806008B1AFF3B2
:103C400000802848046827480C30066806F02000E9
:103C500038B104F00B0020B105F0006008B1AFF3FB
:103C6000008006EA040000F0200020B105F080503A
:103C700008B1AFF3008006EA040000F0800020B134
:103C800005F0005008B1AFF3008006EA040000F030
:103C9000400020B105F0804008B1AFF3008006F08D
:103CA000020038B104F4807020B105F0004008B182
:103CB000AFF3008070BD00007C1205400050014051
:103CC0008054014080580140805C01408060014088
:103CD000806401400001804300000C40FBFC7CF745
:103CE00000D0014000D4014070B50024002699485E
:103CF000056899480468C66806F0200038B104F0E9
:103D00000B0020B105F0010008B1AFF3008006EA16
:103D1000040000F0200020B105F0020008B1AFF36C
:103D2000008006EA040000F0800020B105F00400E5
:103D300008B1AFF3008006EA040000F0400020B1B3
:103D400005F0080008B1AFF3008006F0020038B1BA
:103D500004F4807020B105F0100008B1AFF30080CA
:103D60007E4804687D480C30066806F0200038B1B3
:103D700004F00B0020B105F0200008B1AFF3008083
:103D800006EA040000F0200020B105F0400008B170
:103D9000AFF3008006EA040000F0800020B105F0D7
:103DA000800008B1AFF3008006EA040000F0400094
:103DB00020B105F4807008B1AFF3008006F0020076
:103DC00038B104F4807020B105F4007008B1AFF38D
:103DD000008063484468466904F4806038B106F0A6
:103DE000800020B105F4006008B1AFF3008004F456
:103DF000007038B106F0200020B105F4805008B101
:103E0000AFF3008004F4006038B106F0010020B97F
:103E100005F4005008B1AFF3008004F4807038B1AD
:103E200006F01D0020B105F4804008B1AFF300801A
:103E30004C4804684B481030066804F4806038B180
:103E400006F0800020B105F4803008B1AFF30080A7
:103E500004F4007038B106F0200020B105F4003001
:103E600008B1AFF3008004F4006038B106F001003F
:103E700020B905F4802008B1AFF3008004F480700D
:103E800038B106F01D0020B105F4002008B1AFF3F1
:103E9000008035484468466904F4806038B106F013
:103EA000800020B105F4001008B1AFF3008004F4E5
:103EB000007038B106F0200020B105F4800008B190
:103EC000AFF3008004F4006038B106F0010020B9BF
:103ED00005F4000008B1AFF3008004F4807038B13D
:103EE00006F01D0020B105F0807008B1AFF300802E
:103EF0001E4804681D481030066804F4806038B11C
:103F000006F0800020B105F0806008B1AFF30080BA
:103F100004F4007038B106F0200020B105F0006014
:103F200008B1AFF3008004F4006038B106F001007E
:103F300020B905F0805008B1AFF3008004F4807020
:103F400038B106F01D0020B105F0005008B1AFF304
:103F5000008070BD80120540001002400014024035
:103F600000C0014004C401400000024004040240BB
:103F700070B500248A4805688A48048B05F0010062
:103F800038B104F0100020B104F0400008B1AFF3E4
:103F9000008005F0020038B104F0200020B104F0E8
:103FA000800008B1AFF300807E48848B05F00400E8
:103FB00038B104F0100020B104F0400008B1AFF3B4
:103FC000008005F0080038B104F0200020B104F0B2
:103FD000800008B1AFF300807248048C05F0100037
:103FE00038B104F0100020B104F0400008B1AFF384
:103FF000008005F0200038B104F0200020B104F06A
:10400000800008B1AFF3008066484830048805F0AE
:10401000400038B104F4807020B104F4007008B19D
:10402000AFF3008005F0800038B104F4005020B1F7
:1040300004F4804008B1AFF300805A48A4300488EB
:1040400005F4807040B104F00100C04320B104F0D9
:10405000100008B1AFF3008005F4007040B104F027
:104060000200C04320B104F4807008B1AFF30080B7
:1040700005F4806040B104F00400C04320B104F4B2
:10408000805008B1AFF300804748048805F48030C1
:1040900038B104F0100020B104F0400008B1AFF3D3
:1040A000008005F4003038B104F0200020B104F0A5
:1040B000800008B1AFF300803B48001D048805F480
:1040C000802038B104F0100020B104F0400008B1A5
:1040D000AFF3008005F4002038B104F0200020B1D7
:1040E00004F0800008B1AFF300802F480830048846
:1040F00005F4801038B104F0100020B104F0400045
:1041000008B1AFF3008005F4001038B104F02000CE
:1041100020B104F0800008B1AFF3008022483030B5
:10412000048805F4800038B104F4807020B104F4F0
:10413000007008B1AFF3008005F4000038B104F45A
:10414000005020B104F4804008B1AFF3008016485D
:104150008C30048805F0807040B104F00100C04349
:1041600020B104F0100008B1AFF3008005F000703A
:1041700040B104F00200C04320B104F4807008B1E3
:10418000AFF3008005F0806040B104F00400C0434C
:1041900020B104F4805008B1AFF3008070BD00007E
:1041A00084120540007001401848024070B5002498
:1041B000464805684648048805F0010038B104F017
:1041C000100020B104F0400008B1AFF3008005F00A
:1041D000020038B104F0200020B104F0800008B1E2
:1041E000AFF300803A48001D048805F0040038B1A0
:1041F00004F0100020B104F0400008B1AFF30080DB
:1042000005F0080038B104F0200020B104F080006F
:1042100008B1AFF300802E480830048805F0100084
:1042200038B104F0100020B104F0400008B1AFF341
:10423000008005F0200038B104F0200020B104F027
:10424000800008B1AFF3008021483030048805F0C9
:10425000400038B104F4807020B104F4007008B15B
:10426000AFF3008005F0800038B104F4005020B1B5
:1042700004F4804008B1AFF3008015488C30048806
:1042800005F4807040B104F00100C04320B104F097
:10429000100008B1AFF3008005F4007040B104F0E5
:1042A0000200C04320B104F4807008B1AFF3008075
:1042B00005F4806040B104F00400C04320B104F470
:1042C000805008B1AFF3008070BD00008812054037
:1042D000184C024070B57A480468002600257948D9
:1042E000006800F00F0677480830006800F00F05FE
:1042F00006EA050020B104F0400008B1AFF30080E9
:1043000070482030006800F00F066E4828300068C2
:1043100000F00F0506EA050020B104F0800008B1A6
:10432000AFF3008067484030006800F00F06654832
:104330004830006800F00F0506EA050020B104F4DB
:10434000807008B1AFF300805E486030006800F014
:104350000F065C486830006800F00F0506EA0500AB
:1043600020B104F4007008B1AFF3008056484068F3
:10437000012809D1544880300068012804D104F490
:10438000803008B1AFF300804F48C068012809D1E0
:104390004D4884300068012804D104F4003008B18D
:1043A000AFF3008048480069012809D14748806878
:1043B00000F0030020B104F4802008B1AFF30080C6
:1043C00043484068012809D14148803000680128ED
:1043D00004D104F4002008B1AFF300803C48C06869
:1043E000012809D13A4884300068012804D104F436
:1043F000801008B1AFF3008035480069012809D169
:104400003448006800F0030020B104F4001008B143
:10441000AFF3008030484068012809D12E48803031
:104420000068012804D104F4800008B1AFF30080D3
:104430002948C068012809D127488430006801282C
:1044400004D104F4000008B1AFF3008022480069F1
:10445000012809D12148806800F0030020B104F050
:10446000807008B1AFF300801D484068012809D171
:104470001B4880300068012804D104F0007008B1A6
:10448000AFF300801648C068012809D11448843071
:104490000068012804D104F0806008B1AFF3008007
:1044A0000F480069012809D10E48006800F0030098
:1044B00020B104F0006008B1AFF3008070BD0000CF
:1044C0008C1205400C7C014000003C4200E00140A1
:1044D00000803C4208E401400000444200200240C9
:1044E000008044420824024070B5874804680026D2
:1044F00000258648D0F89800012808D18448006833
:10450000012804D104F0100008B1AFF300807F4807
:104510008C300068012809D17D480C3800680128DA
:1045200004D104F0200008B1AFF3008077489C303C
:104530000068012809D17648001D0068012804D1CF
:1045400004F0400008B1AFF300807248406872493F
:1045500000EA01066F48C06900EA010506EA0500A5
:1045600020B104F0800008B1AFF300806B48006810
:10457000012808D16A480068012804D104F4807039
:1045800008B1AFF3008065480C380068012809D1F4
:1045900063480C380068012804D104F4007008B1A5
:1045A000AFF300805D48001D0068012809D15C4818
:1045B000001D0068012804D104F4806008B1AFF345
:1045C000008058480068544900EA010655481830F0
:1045D000006800EA010506EA050020B104F4006065
:1045E00008B1AFF3008050480068012808D14F4857
:1045F0000068012804D104F4805008B1AFF30080B2
:1046000049480C380068012809D148480C3800682E
:10461000012804D104F4005008B1AFF300804248EF
:10462000001D0068012809D14048001D00680128CC
:1046300004D104F4804008B1AFF300803C48006826
:10464000354900EA01063A481830006800EA0105D9
:1046500006EA050020B104F4004008B1AFF3008081
:1046600034480068012808D133480068012804D183
:1046700004F4003008B1AFF300802E481030006819
:10468000012809D12C4810300068012804D104F415
:10469000802008B1AFF3008028480068012809D1C4
:1046A000264880300068012804D104F4801008B145
:1046B000AFF300802148001D0068012809D11F4880
:1046C00084300068012804D104F4001008B1AFF36D
:1046D00000801A4808300068012809D1174888303E
:1046E0000068012804D104F4800008B1AFF3008011
:1046F0001348406800F4403020B104F4000008B1D1
:10470000AFF3008070BD00009012054000009C4295
:1047100098039C4200E004401752F00098809C42AD
:1047200098839C4204E4044098009D4298039D4273
:1047300004E804406082A842241CA84200839042FE
:104740000090044070B53C48046800253B48006870
:10475000012809D1394820380068012804D104F023
:10476000010008B1AFF300803448001D0068012843
:1047700009D132481C380068012804D104F0020035
:1047800008B1AFF300802E4805882E480068012844
:1047900009D12D480068012800D025B104F004009B
:1047A00008B1AFF3008027480068012809D12648E6
:1047B0000068012800D025B104F0080008B1AFF36B
:1047C000008022480068012809D12048203800686C
:1047D000012804D104F0100008B1AFF300801B4899
:1047E000001D0068012809D118481C3800680128FC
:1047F00004D104F0200008B1AFF300801448006831
:10480000012809D113480088C0F3080020B104F042
:10481000400008B1AFF300800D480068012809D1BD
:104820000C480088C0F3080020B104F0800008B1F3
:10483000AFF3008070BD000094120540E008804294
:10484000B00004402014804240168042E08880423C
:1048500020948042B00404402DE9F05F0026B34666
:10486000002400250027A046A146A2463A48006839
:1048700001281AD13948078838480830B0F8008034
:10488000801FB0F8009035480A30B0F800A007EA61
:10489000080040F2F711084028B909EA0A0040F27E
:1048A0007F11084008B1AFF300802B480C3000683E
:1048B000012815D12A48078EB0F83880B0F8329018
:1048C000B0F83AA007EA080040F2F711084028B90A
:1048D00009EA0A0040F27F11084008B1AFF30080F6
:1048E0001D4810300068012834D11E480678401E4B
:1048F00090F800B0801C04781A481A30057805F04A
:10490000200028BB06F0010010BB06EA0B0000F0F7
:10491000FE00E8B904F0010010B104F00200B8B9DB
:1049200004F0040010B104F0080088B904F010008D
:1049300010B104F0200058B905F0080010B105F0DE
:10494000100028B905F0400020B105F0800008B142
:10495000AFF30080BDE8F09F0853A24230FC064050
:1049600000000740A504074010B510200349087057
:10497000487001010248FBF7C2FC10BD3080FF1FE8
:104980000E89FF1F10B5FCF7D3FC02F0ADFF02F05B
:1049900041FF03F003FBFDF721F910BD10B58CB00A
:1049A000044600BF002001900290039000BF00BFAA
:1049B00009900A900B9000BF00BF069007900890E6
:1049C00000BF00BF0490059000BF48F24300ADF85F
:1049D0000E0000208DF80B0001A801F073FB0121EF
:1049E000084601F0EFFA002333224FF480710120D2
:1049F00001F0C4F9002332224FF40071012001F0CC
:104A0000BDF9012109A8C17104208DF8280009A869
:104A10004171002181710A2141720F208DF82C0013
:104A200000208DF8240001208DF825008DF8260047
:104A300000208DF8270009A8FBF7F6FD00208DF86F
:104A400021008DF82000012006906FF0604006994B
:104A500088430790012106A8FBF766FD012180200D
:104A6000FBF756FE0020ADF812004FF4F370ADF8DE
:104A70001000059404A803F0B3FABDF91200002158
:104A800003F08CF9BDF9120003F068F9002003F07F
:104A900073F90CB010BD10B5FDF77EFB0120FDF7DA
:104AA000C5F900BF4FF48070FDF7EEF90128F9D188
:104AB00010BD000010B500214FF46830FDF7A6F9D5
:104AC0000C20184908704FF47830006848700020B6
:104AD000C882002405E01448015D12480A300155DF
:104AE000641C0C2CF7DB002405E01048015D0D4828
:104AF000801C0155641C042CF7DB002405E00C48E5
:104B0000015D084808300155641C022CF7DB4FF4A6
:104B1000F0300078034988714FF4F0304178014853
:104B2000C17110BDA81700205004014018C0010039
:104B30000080030010B5024803F046FD10BD0000E0
:104B4000FD6B020030B58DB004460D4600BF00205D
:104B50000B900C9000BF00BF09900A9000BF00BFEF
:104B6000202101A8FBF7CBFB00BF01A8FBF754FFF6
:104B70000121022001F066FA00208DF82F008DF847
:104B80002D0002208DF82C001948B0FBF4F0401ED7
:104B900005998908B1FBF0F080B2ADF830000BAA9E
:104BA0000121144802F01AF901221146114802F0BD
:104BB0005FFD0220ADF826004320ADF824000A95E1
:104BC00009A803F00DFABDF9260003F0C7F8BDF9F6
:104BD00026000F2103F0E2F8BDF9260003F0CCF81F
:104BE00001221146034802F07BFC0DB030BD0000ED
:104BF00040420F000044024010B516480068B0F56E
:104C0000FA7F08D3002013490860134A1188134A19
:104C1000107801F099F912480068B0F5FA6F0CD9D4
:104C200000200F4908600F48007818B901200D498D
:104C3000087002E000200B4908700B480068052846
:104C400007D9002003F0B0FD08490870002006498C
:104C5000086010BD3480FF1FA88D02008C8D0200FB
:104C60003880FF1F2C80FF1F3C80FF1F4680FF1FE6
:104C700070B50446082C67D2DFE804F066041222FF
:104C800032424E5A31488378C07800F00F0043EA30
:104C900000222146002348F2D20000F01BFA53E024
:104CA0002A48057B407B45EA00232848857AC07A5C
:104CB00045EA0022214648F2D20000F00BFA43E018
:104CC0002248057C407C45EA00232048857BC07B48
:104CD00045EA0022214648F2D20000F0FBF933E019
:104CE0001A48057D407D45EA00231848857CC07C34
:104CF00045EA0022214648F2D20000F0EBF923E019
:104D000012480379407943EA00222146002348F201
:104D1000D20000F0DFF917E00C488379C07943EA4C
:104D200000222146002348F2D20000F0D3F90BE024
:104D30000648037A407A43EA00222146002348F2DB
:104D4000D20000F0C7F900BF00BF70BDA817002057
:104D50002DE9F04705460C46002600270A2C01D015
:104D6000092C6ED1A4F10A00C6B2A5F112001128D7
:104D700025D2DFE800F00925414267686985A1BDB9
:104D8000BEBFC0C1C2C3C400C6EB0613DFF81CC25D
:104D90000CEB83039B884FEA232CC6EB0613DFF84A
:104DA0000C9209EB83039B886CF31F231A4645F092
:104DB0008001D22343EA0420002300F08BF99FE016
:104DC000C6EB0613DFF8E4C10CEB83039B684FEAE4
:104DD000232CC6EB0613DFF8D49109EB83039B6801
:104DE0006CF31F231A4645F08001D22343EA0420C6
:104DF000002300F06FF983E082E0304603F094FF77
:104E000010B147F0010701E027F00107304603F039
:104E1000B7FC10B147F0020701E027F00207304667
:104E200003F0C2FC10B147F0040701E027F00407CB
:104E30002946D22242EA042000233A4600F04AF9E9
:104E40005EE05EE05CE05BE0C6EB0613DFF85CC1B1
:104E50000CEB83039B694FEA132CC6EB0613DFF8B8
:104E60004C9109EB83039B696CF31F231A4645F0B1
:104E70008001D22343EA0420002300F02BF93FE015
:104E8000C6EB0613DFF824C10CEB83035B694FEA22
:104E9000132CC6EB0613DFF8149109EB83035B694F
:104EA0006CF31F231A4645F08001D22343EA042005
:104EB000002300F00FF923E0C6EB0613DFF8ECC087
:104EC0000CEB8303DB684FEA132CC6EB0613DFF809
:104ED000DC9009EB8303DB686CF31F231A4645F073
:104EE0008001D22343EA0420002300F0F3F807E016
:104EF00006E005E004E003E002E001E000E000BFBE
:104F000052E00B2C29D1302D02D0312D24D111E0CB
:104F1000274B1B784FEA232C254B1B786CF31F2360
:104F20001A4645F08001D22343EA0420002300F012
:104F3000D1F811E01E4B5B784FEA232C1C4B5B78B9
:104F40006CF31F231A4645F08001D22343EA042064
:104F5000002300F0BFF800BF26E00C2C24D1402D28
:104F600021D14FF0000811E0404603F0BDF828B110
:104F7000012000FA08F03843C7B203E0012000FA2C
:104F800008F0874308F1010000F0FF08B8F1030FB3
:104F9000EADB45F08001D22242EA042000233A46AF
:104FA00000F098F800BF00BFBDE8F0873017002080
:104FB0003080FF1F2DE9F04106460D4614464FF0A4
:104FC000000800270A2D01D0092D6DD1A5F10A0096
:104FD00000F0FF08C8EB08103B4901EB8007A6F181
:104FE0000F001B285FD2DFE800F00E131C21264CB7
:104FF0004D4E4F505254565758595A5B5C5D2B30AA
:10500000353A3F4449002146404603F0A3FA4AE0BE
:105010000CB1012000E000200146404603F0A8FA50
:1050200041E02146404603F077FA3CE02146404605
:1050300003F06EFC37E02146404603F057FA32E0B9
:105040002146404603F02AFA2DE02146404603F06F
:1050500001FA28E02146404603F005FA23E0214604
:10506000404603F012FA1EE02146404603F004FADF
:1050700019E02146404603F01AFA14E01348046090
:1050800011E010E00FE00EE00DE0BC610BE07C6190
:1050900009E0FC6007E006E005E004E003E002E070
:1050A00001E000E000BF0DE00B2D0BD1302E02D04F
:1050B000312E06D102E006490C7002E004494C7022
:1050C00000BF00BFBDE8F081301700204880FF1FFF
:1050D0003080FF1F2DE9FC4104460D4616461F4651
:1050E000002000900190E0B28DF80000200A8DF8B9
:1050F0000100E8B28DF80200280A8DF80300F0B232
:105100008DF80400300A8DF80500F8B28DF806001D
:10511000380A8DF807000548007800F58078414688
:105120006A460348FCF784F9BDE8FC81A817002013
:10513000EE10002010B5AFF3008010BD2DE9F04156
:1051400006460D4600240027EC78A87844EA00249F
:10515000012C16DB0F2C14DC0B48807890FBF4F04C
:1051600009494870084680784FF4C02141EA002080
:105170000549497840EA01073A461021304603F0D4
:10518000C1FDBDE8F08100008087FF1F70B50026DB
:10519000002400254DE0C5EB0510274901EB8004F4
:1051A000207C18B900202549485541E02348405D3E
:1051B00010B1012825D110E0E8B203F0B5FD58B9CF
:1051C000E8B20022114603F019FB032020740020EE
:1051D000A08301201949485513E0207C03280FD1F2
:1051E000A08B32280CDBE8B2002103F07FF9E8B293
:1051F00003F066F9A06000202074A0700120A07761
:1052000000BF00BF207C012811D1A06878B9E8B2A6
:105210000022114603F0F2FA00202074A07005F17C
:105220000900C1B2002304220548FBF726F900BF9C
:105230006D1C022DAFD370BD301700202987FF1FD2
:10524000CC1600202DE9F04106460C46002700252B
:10525000E578A07845EA0025680141F6C81190FB81
:10526000F1F009498870084680784FF4C02141EA7E
:1052700000200549497840EA01073A4610213046A6
:1052800003F040FDBDE8F0818087FF1F10B50446A4
:10529000DCB91D4880881D494988884232DB1B489B
:1052A000C0690A282ED319484088401D17494880F4
:1052B0000020C8610846408840F29C4100FB01F292
:1052C0002721002003F01EFD1CE0012C1AD10E48FE
:1052D000C0880E498988884214DB0C48006A0A2875
:1052E00010D30A488088401D084988800020086241
:1052F0000846808840F29C4100FB01F227210020F3
:1053000003F000FD002010BD8087FF1FC0170020A4
:105310002DE9F0410027002400250120FFF7B6FF0A
:105320002E48007810B1012854D10CE001202B49FF
:1053300008702B48408945422A4881882A46002027
:1053400003F03CFA46E0002003F0BAF804460020DF
:1053500003F02AFA28B942F618622721002003F048
:10536000D1FC012002F0C0FEA0B91E4880880321B4
:1053700090FBF1F086B21C48008842423146002082
:1053800003F01CFA002017494870144908700120E6
:10539000BDE8F081012002F0A7FE012819D11148D3
:1053A000C0680F494989401A401CA04211D100220F
:1053B0001146104603F022FA0A48007820F0020055
:1053C000801C084908700020487004490870401E7D
:1053D000DEE700BF00BF0020DAE700008C87FF1F78
:1053E0008087FF1FC01700208E87FF1F2DE9F04127
:1053F0000027002400250120FFF748FF3C480078E3
:1054000020B101280FD002286FD151E00120384986
:105410000870384840894542374881882A4600202C
:1054200003F0CCF961E0002003F04AF804460020C4
:1054300003F0BAF950B930480078C0F3400028B9F9
:1054400042F618622721002003F05CFC012002F0E4
:105450004BFEA0B928488088032190FBF1F086B26A
:105460002648008842423146002003F0A7F9002078
:10547000214948701E4908700120BDE8F0810120D3
:1054800002F032FE012812D11B48C068194949892F
:10549000401A401CA0420AD101220021084603F014
:1054A000ADF90020144988610220114908701CE000
:1054B00011488069B0F5FA7F16D30E48C0881049AC
:1054C00088610D48C168002003F0B2F90020084946
:1054D0000870094948700846007820F00200801CD6
:1054E00008704FF0FF30C8E700BF00BF0020C4E7DE
:1054F0008C87FF1F8087FF1FC01700208E87FF1F2C
:105500003017002070B5002600240020FFF7BEFEF3
:105510002B48007810B101284ED10AE0012028491B
:1055200008702848428928484188002003F046F93D
:1055300042E0002002F0C4FF0446002002F0D4FD47
:10554000B0B921484088032190FBF1F085B21F4893
:1055500002882946002003F031F91B48007820F02A
:10556000800019490870002015490870012070BD9D
:10557000002002F0B9FD01281DD1124840891249CE
:1055800089680844401EA04215D1002211461046E9
:1055900003F034F90C48007820F00100401C0A495F
:1055A00008700846007820F0800008700020044948
:1055B0000870401EDBE700BF00BF0020D7E70000F7
:1055C0008C87FF1F8087FF1FC01700208E87FF1F5B
:1055D00070B5002600240020FFF758FE37480078F9
:1055E00020B101280DD0022865D142E001203349C5
:1055F00008703348428933484188002003F0DEF8C0
:1056000059E0002002F05CFF0446002002F06CFD2F
:10561000B0B92C484088032190FBF1F085B22A48AC
:1056200002882946002003F0C9F82648007820F0B7
:10563000800024490870002020490870012070BDB6
:10564000002002F051FD012812D11D4840891D495A
:1056500089680844401EA0420AD101220021084660
:1056600003F0CCF800201749886102201349087024
:1056700021E014488069B0F5FA7F1BD31048808878
:10568000124988610F488168002003F0D1F80D4865
:10569000007820F080000B4908700020074908704E
:1056A0000848007820F00100401C064908704FF0BF
:1056B000FF30C4E700BF00BF0020C0E78C87FF1F9A
:1056C0008087FF1FC01700208E87FF1F3017002024
:1056D00070B5044600250D48007820F001000B4904
:1056E00008700846007820F0020008702579E078FC
:1056F00045EA002005B2684205B20548C1882A463D
:10570000002003F05BF8002070BD0000C0170020EF
:105710008087FF1F70B5044600250B48007820F0F5
:105720000100094908700846007820F0020008705E
:105730002579E07845EA0025044881882A4600203A
:1057400003F03CF8002070BDC01700208087FF1FC9
:1057500010B51A480078C00938B118480078C0F36D
:10576000830010B9FFF7CEFE26E01448407800F021
:10577000010038B111480078C0F3830010B9FFF779
:10578000C7FD19E00D480078C00940B10B4800780A
:10579000C0F38300012802D1FFF71AFF0CE007488D
:1057A000407800F0010038B104480078C0F383006D
:1057B000012801D1FFF71AFE002010BDC0170020FC
:1057C00010B500F001F810BD10B500BF0648006824
:1057D00000B104E04FF4A37104A0FCF703FA00BF8A
:1057E00001480068804710BDA887FF1F2E2E5C2E41
:1057F0002E5C2E2E5C2E2E5C6472697665725C7354
:1058000072635C68633332663436785F6578696EDC
:10581000745F6E6D695F7377692E630010B588B031
:10582000044600BF1C2101A8FAF769FD00BF3B49EF
:1058300051F82400012100F0C5FB394B13F8242056
:10584000384B33F83410384B13F82400002300F0A1
:1058500095FA334B03EB84039A78324B03EBC40382
:105860009988314B03EB84039878002300F086FA83
:105870002B4B03EB8403DA782A4B03EBC403D98860
:10588000294B03EB8403D878002300F077FA032038
:105890008DF8120000208DF8150004208DF81300FB
:1058A00000208DF814008DF810008DF811008DF88F
:1058B0000F008DF816008DF817008DF819008DF87F
:1058C0001A008DF81B008DF81C008DF81D000120BA
:1058D0008DF818008DF8040002208DF805000120D5
:1058E0008DF8060000208DF8070001208DF80800D3
:1058F00000208DF809008DF80A0000218DF80B10AA
:105900000A4951F8240001A900F082FD074951F825
:105910002400012100F03EFD08B010BD048E0200FD
:10592000108E0200EA8D0200DE8D02005887FF1FF4
:1059300070B504460D4600BF1F2C00D804E04FF49C
:10594000C57113A0FCF74EF900BF00BF0DB1012DCA
:1059500000D104E040F28B110DA0FCF743F900BF29
:1059600000F028FB012D07D11348008804F01F0127
:1059700008431149088006E00F48008804F01F0121
:1059800088430D49088000F085F9002070BD0000B3
:105990002E2E5C2E2E5C2E2E5C2E2E5C6472697672
:1059A00065725C7372635C68633332663436785F49
:1059B0006770696F2E630000F43B054070B50546C3
:1059C0000C4600BF4DB1012D07D0022D05D0032D8F
:1059D00003D0042D01D0052D00D104E040F2F711D1
:1059E0001FA0FCF7FFF800BF00BF012C25D0022C40
:1059F00023D0042C21D0082C1FD0102C1DD0202CFB
:105A00001BD0402C19D0802C17D0B4F5807F14D037
:105A1000B4F5007F11D0B4F5806F0ED0B4F5006FEF
:105A20000BD0B4F5805F08D0B4F5005F05D0B4F5B5
:105A3000804F02D0B4F5004F00D104E04FF4FC7168
:105A400007A0FCF7CFF800BF0F48102101FB0506A7
:105A50003068204008B1012070BD0020FCE7000044
:105A60002E2E5C2E2E5C2E2E5C2E2E5C64726976A1
:105A700065725C7372635C68633332663436785F78
:105A80006770696F2E630000003805402DE9F0470C
:105A9000064689461446002700BF4EB1012E07D0A6
:105AA000022E05D0032E03D0042E01D0052E00D1E6
:105AB00004E040F213116CA0FCF794F800BF00BFA3
:105AC000207828B12078012802D02078022800D13F
:105AD00004E040F2151164A0FCF784F800BF00BF99
