:020000040000FA
:100000000034002099020000C9440000E91A0000F1
:10001000C14400006D040000C96C00000000000035
:10002000000000000000000000000000E54E00009D
:1000300045160000000000008D4E00000553000032
:100040008D1B0000A11B0000B51B0000C91B000098
:10005000DD1B0000F11B0000051C0000191C000046
:100060002D1C0000411C0000551C0000691C0000F4
:100070007D1C0000911C0000A51C0000B91C0000A4
:10008000CD1C0000E11C0000F51C0000091D000053
:100090001D1D0000311D0000451D0000591D000000
:1000A0006D1D0000811D0000951D0000A91D0000B0
:1000B000BD1D0000D11D0000E51D0000F91D000060
:1000C0000D1E0000251E00003D1E0000551E0000F4
:1000D0006D1E0000851E00009D1E0000B51E000064
:1000E000CD1E0000E51E0000FD1E0000151F0000D3
:1000F0002D1F0000451F00005D1F0000751F000040
:100100008D1F0000A51F0000BD1F0000D51F0000AF
:10011000ED1F0000052000001D200000352000001C
:100120004D200000652000007D200000952000008B
:10013000AD200000C5200000DD200000F5200000FB
:100140000D210000252100003D2100005521000067
:100150006D210000852100009D210000B5210000D7
:10016000CD210000E5210000FD2100001522000046
:100170002D220000452200005D22000075220000B3
:100180008D220000A5220000BD220000D522000023
:10019000ED220000052300001D2300003523000090
:1001A0004D230000652300007D23000095230000FF
:1001B000AD230000C5230000DD230000F52300006F
:1001C0000D240000252400003D24000055240000DB
:1001D0006D240000852400009D240000B52400004B
:1001E000CD240000E5240000FD24000015250000BA
:1001F0002D250000452500005D2500007525000027
:100200008D250000A5250000BD250000D525000096
:10021000ED250000052600001D2600003526000003
:100220004D260000652600007D2600009526000072
:10023000AD260000C5260000DD260000F5260000E2
:100240000D2700005D280000C52C0000A12D000036
:1002500069300000DB020000DB020000DB0200006E
:10026000D9310000F934000081370000BD390000A9
:10027000E53A0000F93C0000553F000069400000ED
:10028000DFF810D000F0ACF800480047A97100007A
:10029000AFF300800034002010484FF07701016078
:1002A0000F484FF0770101600E484FF4885101600C
:1002B0000A484FF07601016009484FF0760101606D
:1002C0000948804709480047FEE7FEE7FEE7FEE7EA
:1002D000FEE7FEE7FEE7FEE7FEE7FEE7040805406F
:1002E0000C0805400008054021550000810200006F
:1002F0002DE9F05F0546002092469B46884606465B
:10030000814640241BE0284641464746224600F0ED
:1003100057F853465A46C01A914110D31146184611
:10032000224600F03EF82D1A67EB01084F462246A0
:100330000120002100F035F817EB00094E41201E86
:10034000A4F10104DFDC484631462A464346BDE8B5
:10035000F09FD2B201E000F8012B491EFBD270479A
:100360000022F6E710B513460A4604461946FFF781
:10037000F0FF204610BD30B50B460146002020227C
:10038000012409E021FA02F59D4205D303FA02F5A2
:10039000491B04FA02F52844151EA2F10102F1DC02
:1003A00030BD202A04DB203A00FA02F10020704719
:1003B0009140C2F1200320FA03F3194390407047A3
:1003C000202A04DB203A21FA02F00021704721FAAA
:1003D00002F3D040C2F12002914008431946704711
:1003E000064C074D06E0E06840F0010394E8070082
:1003F00098471034AC42F6D3FFF746FF6C77000005
:100400008C7700002DE9F04705460E46144600277C
:100410000021284605F094FC80460121284605F07D
:100420008FFC8146012C07D1B8F1010F02D0B9F140
:10043000010F08D1012706E03146284605F080FC6F
:10044000012800D10127012F0BD1002001E000BFBE
:10045000401C0549096842F21072B1FBF2F1814279
:10046000F5D8BDE8F08700000080FF1F10B5AFF39E
:10047000008010BD70B504460D46002C62D000BF50
:100480000DB1012D00D104E04FF484712EA001F0D4
:100490009DF800BF3648007820F080008030344955
:1004A0000870217A32481430007861F30300304933
:1004B000143108700846007820F020000870091DEB
:1004C00020680860081F007820F020002030091FF5
:1004D0000870091D60680860607A41082448183077
:1004E000006861F39E70224918310860607A0968DB
:1004F00060F35D711E4818300160012D0AD1801E25
:100500000078227A01219140C9B208431849163176
:10051000087009E0164816300078227A01219140CF
:10052000884313491631087000BF00BF1048007897
:1005300020F080000E49087008460078C0090028A5
:10054000F4D100BF70BD00002E2E5C2E2E5C2E2E2E
:100550005C2E2E5C6472697665725C7372635C6893
:10056000633332663436785F63616E2E6300000059
:10057000A004074000286DD082783749097862F3DB
:10058000C711354A1170C2783349491E097862F3A0
:100590004511314A521E117002782F49097862F3D1
:1005A000C3012D4A117042782B49097862F38611F4
:1005B000294A11700021521C1170111F097821F075
:1005C00080018031121F1170C2792349491D0968C9
:1005D00062F31F61204A521D116002791E49491DB4
:1005E000096862F307011C4A521D116042791A49D9
:1005F000491D096862F30E21174A521D1160827964
:100600001549491D096862F31641134A521D1160CC
:10061000027A1149091D097862F307110E4A121D69
:100620001170427A0C49091D097862F303010A4AE4
:10063000121D117000BF00BF0749C91E097821F0C3
:100640008001054AD21E117011460978C909002996
:10065000F2D100BF70470000A304074070B5044604
:100660000E4600BF802C14D0402C12D0202C10D06D
:10067000102C0ED0082C0CD0042C0AD0022C08D040
:10068000B4F5001F05D0B4F5002F02D0B4F5003F3B
:1006900000D104E04FF4DA710CA000F097FF00BF26
:1006A00000BF0EB1012E00D104E040F2B51107A049
:1006B00000F08CFF00BF0F4D012E03D128682043AE
:1006C000286002E02868A043286070BD2E2E5C2EB2
:1006D0002E5C2E2E5C2E2E5C6472697665725C73C5
:1006E00072635C68633332663436785F63616E2EA2
:1006F00063000000A404074070B50446002500BF55
:10070000012C26D0B4F5004F23D0B4F5804F20D073
:10071000B4F5005F1DD0B4F5805F1AD0B4F5006F5A
:1007200017D0B4F5806F14D0B4F5007F11D0B4F5B4
:10073000807F0ED0B4F5000F0BD0B4F5800F08D039
:10074000B4F5801F05D0B4F5802F02D0B4F5803FFA
:1007500000D104E040F2ED1104A000F037FF00BF2B
:100760000C4D28682043286070BD00002E2E5C2EA2
:100770002E5C2E2E5C2E2E5C6472697665725C7324
:1007800072635C68633332663436785F63616E2E01
:1007900063000000A404074070B50446002500264D
:1007A00000BF012C26D0B4F5004F23D0B4F5804F04
:1007B00020D0B4F5005F1DD0B4F5805F1AD0B4F539
:1007C000006F17D0B4F5806F14D0B4F5007F11D04E
:1007D000B4F5807F0ED0B4F5000F0BD0B4F5800FC8
:1007E00008D0B4F5801F05D0B4F5802F02D0B4F541
:1007F000803F00D104E040F2D31105A000F0E6FEF6
:1008000000BF0D4D2868204000B10126304670BD64
:100810002E2E5C2E2E5C2E2E5C2E2E5C6472697643
:1008200065725C7372635C68633332663436785F1A
:1008300063616E2E63000000A40407400146B9B155
:100840000E48006808600D48001D006848600B48AD
:1008500008300068886009480C300268CA600748A0
:10086000A330007820F010001030044AA33210703A
:100870000248A330007800F00300704700040740EE
:1008800010B54FF40040FFF787FFB0B14FF40040C0
:10089000FFF732FF0948FFF7D1FF08480068012839
:1008A00006D00648016806480078401C814204D101
:1008B00002490831034800F085FD10BD9C09002065
:1008C0002C80FF1FACFCFF1FF8B1027C0F49097898
:1008D00062F3C7110D4A11700C4A513A0168116058
:1008E000121D41681160121D81681160121DC168DE
:1008F0001160017C012908D10449491C097821F0C3
:1009000040014031014A521C11707047A104074058
:1009100010B5044600BF102C07D0082C05D0042CBD
:1009200003D0022C01D0012C00D104E040F251117F
:1009300006A000F04BFE00BF0E48007820430D4992
:100940000870481C007800F0030010BD2E2E5C2EAD
:100950002E5C2E2E5C2E2E5C6472697665725C7342
:1009600072635C68633332663436785F63616E2E1F
:1009700063000000A104074070B50021002200249C
:10098000002300287ED0434D2D7805F00705052D66
:1009900015D2DFE805F00306090D10003E4D056095
:1009A0003BE03E4D056038E04FF40045056034E023
:1009B0003A4D056031E04FF4004505602DE0354DBE
:1009C000DA352D68C5F3C013324D263DD5F80051F8
:1009D0002A0F304DDA352D68C5F308212D4D263DFF
:1009E000D5F8005105F01F0453B9651C2B4EB6FB1A
:1009F000F5F54E1C7543561CB5FBF6F505600BE08E
:100A0000012B09D1651C244EB6FBF5F54E1C754330
:100A1000561CB5FBF6F5056000BF00BF1D4E263E17
:100A20000568366AC6F30266F5404560194E263EF3
:100A30000568366AC6F30256F5408560154E263EB7
:100A40000568366A06F00706F540C560114E263E79
:100A50000568366AC6F30216F54005610D4E263E5E
:100A60000568366AC6F30226F5404561094E263E02
:100A70000568366AC6F30236F5408561054E263EA6
:100A8000056800E004E0366AC6F30246F540C56139
:100A900070BD0000264005400024F40000127A00DA
:100AA00070B5044600BF3CB1012C05D0022C03D028
:100AB000032C01D0042C00D104E040F26F611EA091
:100AC00000F084FD00BF34B1012C0DD0022C14D0F5
:100AD000032C24D11AE02248007800F0010080F0B5
:100AE000010080F0010524E01D480078C0F3C0003B
:100AF00080F0010080F001051BE019480078C0F388
:100B0000401080F0010080F0010512E014480078E8
:100B1000C0F3801080F0010080F0010509E010486A
:100B2000401D007800F0010080F0010080F0010518
:100B300000BF00BF284670BD2E2E5C2E2E5C2E2ED0
:100B40005C2E2E5C6472697665725C7372635C689D
:100B5000633332663436785F636C6B2E630000005B
:100B60003C400540F8B5044600200090002600BF38
:100B70000CB1012C00D104E040F24D3120A000F076
:100B800025FD00BF284800884AF201510843274943
:100B9000A1F8FE0394B925482630007800F007003C
:100BA000052801D101261FE020482A30007820F0D6
:100BB0000100401C1D4981F82A0015E01B482A301D
:100BC000007820F00100194981F82A0000BF0220B6
:100BD000FFF766FF05460098401C00900098B0F5AE
:100BE000805F01D2012DF2D10F4800884FF6FE71CF
:100BF000084040F425400D49A1F8FE033046F8BDF9
:100C00002E2E5C2E2E5C2E2E5C2E2E5C647269764F
:100C100065725C7372635C68633332663436785F26
:100C2000636C6B2E63000000FE43054000400540EE
:100C300070B5044600250026002C7DD000BF20683A
:100C4000022803D32068102800D804E040F21B31AA
:100C500054A000F0BBFC00BF00BF6068012803D3B4
:100C60006068102800D804E04FF447714DA000F0F0
:100C7000ADFC00BF00BFA068022803D3A068102805
:100C800000D804E040F21D3146A000F09FFC00BFF8
:100C900000BFE068142804D3E068B0F5F07F00D806
:100CA00004E040F21E313FA000F090FC00BF00BF06
:100CB0002069012803D32069182800D804E040F2F5
:100CC0001F3138A000F082FC00BF40480068C0F32C
:100CD000C01008B93E4800E03E482169B0FBF1F57C
:100CE000E06800FB05F600BF3B48854203D33B4864
:100CF000854200D804E040F226312AA000F066FCCC
:100D000000BF00BF3648864203D34000864200D869
:100D100004E040F2273123A000F058FC00BF314826
:100D200000884AF2015108432E4908802078401E6D
:100D30002D49D1F8001100E032E060F31F71234823
:100D400001602079401E2849D1F8001160F31B6131
:100D50001E480160207A401E2349D1F8001160F33B
:100D600017511A480160A089401E1F49D1F800118F
:100D700060F3102115480160207C401E1A49D1F80B
:100D8000001160F304011848C0F80011B0F8FE0328
:100D90004FF6FE71084040F425401349A1F8FE03C8
:100DA00070BD00002E2E5C2E2E5C2E2E5C2E2E5C36
:100DB0006472697665725C7372635C686333326611
:100DC0003436785F636C6B2E630000000041054091
:100DD00000127A000024F40040420F0000366E0139
:100DE000001C4E0EFE4305400040054010B5044671
:100DF00000BF0CB1012C00D104E04FF43F710FA0F3
:100E000000F0E4FB00BF174800884AF20151084394
:100E10001549A1F8FE030846D0F8000164F3C71095
:100E2000C1F800010846B0F8FE034FF6FE71084015
:100E300040F425400C49A1F8FE0310BD2E2E5C2E77
:100E40002E5C2E2E5C2E2E5C6472697665725C734D
:100E500072635C68633332663436785F636C6B2E22
:100E600063000000FE4305400040054010B586B019
:100E700004460020059035480068049033484068D7
:100E800003903248806802903048C068019000BFEB
:100E90001CB1012C02DB052C00DC04E040F2DD314A
:100EA0002BA000F093FB00BF3348007800F0070050
:100EB000052801D0052C0DD1304824490860C01206
:100EC00048608860C86000BF0598401C0590059880
:100ED000B028F9D32A4800884AF20151084326492C
:100EE0002639A1F8FE03084690F8260064F30200B4
:100EF00081F826000846B0F8FE034FF6FE71084060
:100F000040F425401C492639A1F8FE030020059035
:100F100000BF0598401C05900598B028F9D30B49EF
:100F20000498086003984860029888600198C86037
:100F30000020059000BF0598401C05900598B0283A
:100F4000F9D304F08BFA06B010BD00000080044015
:100F50002E2E5C2E2E5C2E2E5C2E2E5C64726976FC
:100F600065725C7372635C68633332663436785FD3
:100F7000636C6B2E6300000026400540EEFAFFFF15
:100F8000FE43054010B586B0044600200590544845
:100F9000006804905248406803905148806802906D
:100FA0004F48C0680190002C7ED000BF2078E178C7
:100FB000884232DC2078617988422EDC2078A17961
:100FC00088422ADCA078E178884226DCA078617922
:100FD000884222DC2079A179401A03281CD020798C
:100FE000A179401A022817D02079A179401A012846
:100FF00012D02079A179401A0ED0A0792179401A17
:10100000012809D0A0792179401A022804D0A079BA
:101010002179401A032800D104E040F2364131A082
:1010200000F0D4FA00BF3948007800F00700052826
:101030000DD137482A490860C01248608860C860EE
:1010400000BF0598401C05900598B028F9D3314899
:1010500000884AF2015108432E490880A078E178BF
:1010600040EA0110217940EA0120617940EA01302B
:10107000A17940EA0140617840EA0150217840EAD4
:10108000016040EA01702149263908622148008840
:101090004FF6FE71084040F425401C492639A1F85E
:1010A000FE030020059000E018E000BF0598401CFA
:1010B00005900598B028F9D3094904980860039869
:1010C0004860029888600198C8600020059000BFC1
:1010D0000598401C05900598B028F9D306B010BDBE
:1010E000008004402E2E5C2E2E5C2E2E5C2E2E5C5C
:1010F0006472697665725C7372635C6863333266CE
:101100003436785F636C6B2E630000002640054028
:10111000EEFAFFFFFE430540F8B5044600200090BC
:10112000002600BF0CB1012C00D104E04FF4D071B7
:1011300031A000F04BFA00BF00BF0CB1012C00D170
:1011400004E04FF4D1712CA000F040FA00BF344805
:1011500000884AF2015108433249A1F8FE034CBB12
:1011600030482630007800F00700032801D101261E
:1011700036E02D480068C0F3C01088B929482A30ED
:10118000007800F0010008B9012629E02548323036
:10119000007820F00100401C224981F832001FE055
:1011A00020483230007820F00100401C1D4981F8B1
:1011B000320015E01B483230007820F00100194958
:1011C00081F8320000BF0120FFF76AFC0546009855
:1011D000401C00900098B0F5805F01D2012DF2D143
:1011E0000F4800884FF6FE71084040F425400D4935
:1011F000A1F8FE033046F8BD2E2E5C2E2E5C2E2E5E
:101200005C2E2E5C6472697665725C7372635C68D6
:10121000633332663436785F636C6B2E6300000094
:10122000FE430540004005400041054058B31649C3
:1012300009884AF201521143134A11800278124977
:101240001231097862F3C7110F4A123211704278D5
:101250000D491231097862F386110B4A123211706E
:10126000827809491231097862F30511064A12326F
:101270001170054909884FF6FE72114041F425416D
:10128000024AA2F8FE137047FE43054000400540A5
:10129000F0B5044698B213E014F8016B80EA06201A
:1012A00000250BE000F400471FB182EA4007B8B206
:1012B00003E04FF6FF7707EA40006D1C082DF1DBD5
:1012C0000F1EA1F10101E7D1F0BD000010B540F201
:1012D000B2410448FFF744F840F2B2410248FFF738
:1012E0003FF810BDACFCFF1F5E01002070B586B05A
:1012F00004460E4620786178884259D0002506E0E1
:101300006178A01C00EBC100405D70556D1C082D7C
:10131000F6DB2948844241D14FF480700190029855
:1013200020F00F0008300290029820F08000029018
:10133000029820F04000029001208DF81400002552
:1013400007E06178A01C00EBC100415D03A8415596
:101350006D1C029800F00F00A842F2DC01A8FFF714
:10136000B3FA0220FFF7D4FA0020144908600FE016
:101370001248006805280BD36078401C962190FB2A
:10138000F1F201FB120060706FF0010006B070BD59
:101390000B48007800F003000028E9D16078401C79
:1013A000962190FBF1F201FB120060700120EDE745
:1013B0004FF0FF30EAE700005E0100203080FF1FA1
:1013C000A204074030B50A46002106E0545C0578C7
:1013D000831C03EBC5035C54491C0829F6DB037826
:1013E0005B1C962493FBF4F504FB1533037030BDAE
:1013F000F0B585B005460C46002600272248007847
:1014000028440090019820F00F00083001900198C6
:1014100020F080000190019820F040000190012010
:101420008DF8100020788DF8080061788DF809108B
:10143000A1788DF80A10E1788DF80B1021798DF8DC
:101440000C1061798DF80D10A1798DF80E10E179ED
:101450008DF80F106846FFF737FA0220FFF758FAA9
:1014600000200A49086007E008480068052803D3FF
:101470004FF0FF3005B0F0BD0548007800F00300E4
:101480000028F1D100BFF5E72C80FF1F3080FF1F3F
:10149000A204074000B58BB000BF0020009001906F
:1014A000029000BF00BF089009900A9000BF00BFE3
:1014B00005900690079000BF00BF3D4800210160E5
:1014C00041608160C16000BF00BF002003900490B4
:1014D00000BF48F24300ADF80A0000208DF8070075
:1014E000684603F003FC0121084603F07FFB00235C
:1014F00033224FF48071012003F054FA002332228A
:101500004FF40071012003F04DFA4FF40041032025
:1015100003F0DCF90122D103032003F099F9002143
:1015200008A8C17104208DF82400012108A8417188
:10153000002181710A2141720F208DF828000020BE
:101540008DF8200001208DF821008DF82200002068
:101550008DF8230008A8FFF70DF800208DF81D0076
:101560008DF81C0005906FF060400690012105A8E1
:10157000FEF780FF01218020FFF770F80020ADF812
:101580000E004FF4F370ADF80C000A48049003A865
:1015900005F080FDBDF90E00002105F047FCBDF906
:1015A0000E0005F005FC002005F01EFC0BB000BD90
:1015B0009C0900208108000010B540F2213102484A
:1015C000FEF7CEFE10BD00005806002070B50446A0
:1015D0000D462A46214602A005F0DAFB00BFFEE7D1
:1015E00057726F6E6720706172616D65746572739A
:1015F0002076616C75653A2066696C6520257320DC
:101600006F6E206C696E652025640D0A0000000075
:1016100008B5002200920021094A116842F21072B6
:10162000B1FBF2F106E0009100BF009A531E009357
:10163000002AFAD1021EA0F10100F4D108BD000079
:101640000080FF1F10B5AFF3008010BD0449486053
:1016500000BF03490968C1F380110029F9D0704720
:101660000010024001490860704700001404014066
:1016700010B5044600BF0CB1012C00D104E04FF4BA
:10168000A67105A0FFF7A2FF00BF0D48006864F334
:1016900000000B49086010BD2E2E5C2E2E5C2E2EF5
:1016A0005C2E2E5C6472697665725C7372635C6832
:1016B000633332663436785F65666D2E63000000F2
:1016C0000C04014070B504460D4600F003FA2046B4
:1016D00000F0BCF82946204600F096F900F068F8C2
:1016E00070BD000010B5044600BF0CB1012C00D144
:1016F00003E0DC2107A0FFF769FF00BF012C01D048
:10170000012100E000210D48006861F300000B4951
:10171000086010BD2E2E5C2E2E5C2E2E5C2E2E5CB4
:101720006472697665725C7372635C686333326697
:101730003436785F65666D2E630000000404014056
:1017400010B5044600BF012C0CD0022C0AD0042C8A
:1017500008D0082C06D0102C04D0202C02D0B4F5D0
:10176000807F00D104E04FF4D27106A0FFF72EFF76
:1017700000BF0E480068204008B1012010BD0020C5
:10178000FCE700002E2E5C2E2E5C2E2E5C2E2E5C96
:101790006472697665725C7372635C686333326627
:1017A0003436785F65666D2E6300000010040140DA
:1017B00004480068012804D143F210200149086060
:1017C00008607047000401402DE9F047064688464E
:1017D00015464FF00009012080F3108800BF00F08B
:1017E00079F9680B58B9002405E006EB443000F0A5
:1017F0002DF88146641CB4EB553FF6D30CE0002471
:1018000005E006EB443000F021F88146641C01201D
:1018100000EB5530A042F4D8002708E0F019D8F8C2
:10182000001000F0F1F8814608F104083F1DAF42B6
:10183000F4D3FFF7BDFF002080F3108800BF4846B7
:10184000BDE8F08701460868704700002DE9F041C7
:1018500004460026002700BF1CB11CB11F4884426B
:1018600000D804E040F20B311DA0FFF7AFFE00BF2F
:101870003F20FFF7F7FE24480068C0F300452248E8
:10188000006820F48030204908600120FFF7F0FE56
:10189000042000F03DF81D48206005E0701C86B271
:1018A000B6F5805F00D90927174808300068C0F3F3
:1018B00000200028F2D01020FFF7D4FE002000F016
:1018C00027F80020FFF7D4FE0F48006865F31040AA
:1018D0000D4908603846BDE8F0810000DFFF0700D1
:1018E0002E2E5C2E2E5C2E2E5C2E2E5C6472697663
:1018F00065725C7372635C68633332663436785F3A
:1019000065666D2E630000000804014078563412AD
:1019100010B5044600BF6CB1012C0BD0022C09D0CD
:10192000032C07D0042C05D0052C03D0062C01D0A5
:10193000072C00D104E04FF4B37105A0FFF746FE79
:1019400000BF0D48006864F306100B49086010BD25
:101950002E2E5C2E2E5C2E2E5C2E2E5C64726976F2
:1019600065725C7372635C68633332663436785FC9
:1019700065666D2E630000000C04014010B504463E
:1019800000BFECB1012C1BD0022C19D0032C17D0B6
:10199000042C15D0052C13D0062C11D0072C0FD0F9
:1019A000082C0DD0092C0BD00A2C09D00B2C07D0F9
:1019B0000C2C05D00D2C03D00E2C01D00F2C00D1F7
:1019C00003E0FD2105A0FFF701FE00BF0D48006800
:1019D00064F307100B49086010BD00002E2E5C2E2A
:1019E0002E5C2E2E5C2E2E5C6472697665725C73A2
:1019F00072635C68633332663436785F65666D2E79
:101A000063000000080401402DE9F04104460D4642
:101A10004FF00008002700BF1CB11CB121488442D0
:101A200000D804E040F22A211FA0FFF7CFFD00BF3D
:101A30003F20FFF717FE26480068C0F30046244801
:101A4000006820F48030224908600120FFF710FE72
:101A50000120FFF75DFF256006E0781C87B2B7F52F
:101A6000805F01D94FF00908194808300068C0F3B9
:101A700000200028F1D02068A84201D04FF00108D2
:101A80001020FFF7EFFD0020FFF742FF0020FFF7D7
:101A9000EFFD0F48006866F310400D4908604046AE
:101AA000BDE8F081DFFF07002E2E5C2E2E5C2E2E6F
:101AB0005C2E2E5C6472697665725C7372635C681E
:101AC000633332663436785F65666D2E63000000DE
:101AD0000804014040F223100249086043F210203C
:101AE000086070470004014010B5AFF3008010BDDE
:101AF00070B504462568104885421AD90F488542BA
:101B000017D800F023F860680D490860084600689F
:101B10000C490860206880F3088800BF24F07F002B
:101B200009490860012080F3108800BF054800685B
:101B30008047012070BD00000080FF1F0070022060
:101B40004480FF1F4880FF1F08ED00E010B503F040
:101B500037FC02F0E7FC0021022003F087F804F0D4
:101B6000C9FB002403E020B205F0FAFA641C8F2CB4
:101B7000F9DB0021012003F039F800210820FEF7ED
:101B80006DFD00218020FEF769FD10BD10B50348F2
:101B9000006810B101490868804710BD002E002080
:101BA00010B50348406810B101494868804710BD2E
:101BB000002E002010B50348806810B101498868E4
:101BC000804710BD002E002010B50348C06810B13A
:101BD0000149C868804710BD002E002010B5034899
:101BE000006910B101490869804710BD002E00202E
:101BF00010B50348406910B101494869804710BDDC
:101C0000002E002010B50348806910B10149886991
:101C1000804710BD002E002010B50348C06910B1E8
:101C20000149C869804710BD002E002010B5034847
:101C3000006A10B10149086A804710BD002E0020DB
:101C400010B50348406A10B10149486A804710BD89
:101C5000002E002010B50348806A10B10149886A3F
:101C6000804710BD002E002010B50348C06A10B197
:101C70000149C86A804710BD002E002010B50348F6
:101C8000006B10B10149086B804710BD002E002089
:101C900010B50348406B10B10149486B804710BD37
:101CA000002E002010B50348806B10B10149886BED
:101CB000804710BD002E002010B50348C06B10B146
:101CC0000149C86B804710BD002E002010B50348A5
:101CD000006C10B10149086C804710BD002E002037
:101CE00010B50348406C10B10149486C804710BDE5
:101CF000002E002010B50348806C10B10149886C9B
:101D0000804710BD002E002010B50348C06C10B1F4
:101D10000149C86C804710BD002E002010B5034853
:101D2000006D10B10149086D804710BD002E0020E4
:101D300010B50348406D10B10149486D804710BD92
:101D4000002E002010B50348806D10B10149886D48
:101D5000804710BD002E002010B50348C06D10B1A3
:101D60000149C86D804710BD002E002010B5034802
:101D7000006E10B10149086E804710BD002E002092
:101D800010B50348406E10B10149486E804710BD40
:101D9000002E002010B50348806E10B10149886EF6
:101DA000804710BD002E002010B50348C06E10B152
:101DB0000149C86E804710BD002E002010B50348B1
:101DC000006F10B10149086F804710BD002E002040
:101DD00010B50348406F10B10149486F804710BDEE
:101DE000002E002010B50348806F10B10149886FA4
:101DF000804710BD002E002010B50348C06F10B101
:101E00000149C86F804710BD002E002010B504485E
:101E1000D0F8800018B10249D1F88000804710BD89
:101E2000002E002010B50448D0F8840018B10249F3
:101E3000D1F88400804710BD002E002010B5044862
:101E4000D0F8880018B10249D1F88800804710BD49
:101E5000002E002010B50448D0F88C0018B10249BB
:101E6000D1F88C00804710BD002E002010B504482A
:101E7000D0F8900018B10249D1F89000804710BD09
:101E8000002E002010B50448D0F8940018B1024983
:101E9000D1F89400804710BD002E002010B50448F2
:101EA000D0F8980018B10249D1F89800804710BDC9
:101EB000002E002010B50448D0F89C0018B102494B
:101EC000D1F89C00804710BD002E002010B50448BA
:101ED000D0F8A00018B10249D1F8A000804710BD89
:101EE000002E002010B50448D0F8A40018B1024913
:101EF000D1F8A400804710BD002E002010B5044882
:101F0000D0F8A80018B10249D1F8A800804710BD48
:101F1000002E002010B50448D0F8AC0018B10249DA
:101F2000D1F8AC00804710BD002E002010B5044849
:101F3000D0F8B00018B10249D1F8B000804710BD08
:101F4000002E002010B50448D0F8B40018B10249A2
:101F5000D1F8B400804710BD002E002010B5044811
:101F6000D0F8B80018B10249D1F8B800804710BDC8
:101F7000002E002010B50448D0F8BC0018B102496A
:101F8000D1F8BC00804710BD002E002010B50448D9
:101F9000D0F8C00018B10249D1F8C000804710BD88
:101FA000002E002010B50448D0F8C40018B1024932
:101FB000D1F8C400804710BD002E002010B50448A1
:101FC000D0F8C80018B10249D1F8C800804710BD48
:101FD000002E002010B50448D0F8CC0018B10249FA
:101FE000D1F8CC00804710BD002E002010B5044869
:101FF000D0F8D00018B10249D1F8D000804710BD08
:10200000002E002010B50448D0F8D40018B10249C1
:10201000D1F8D400804710BD002E002010B5044830
:10202000D0F8D80018B10249D1F8D800804710BDC7
:10203000002E002010B50448D0F8DC0018B1024989
:10204000D1F8DC00804710BD002E002010B50448F8
:10205000D0F8E00018B10249D1F8E000804710BD87
:10206000002E002010B50448D0F8E40018B1024951
:10207000D1F8E400804710BD002E002010B50448C0
:10208000D0F8E80018B10249D1F8E800804710BD47
:10209000002E002010B50448D0F8EC0018B1024919
:1020A000D1F8EC00804710BD002E002010B5044888
:1020B000D0F8F00018B10249D1F8F000804710BD07
:1020C000002E002010B50448D0F8F40018B10249E1
:1020D000D1F8F400804710BD002E002010B5044850
:1020E000D0F8F80018B10249D1F8F800804710BDC7
:1020F000002E002010B50448D0F8FC0018B10249A9
:10210000D1F8FC00804710BD002E002010B5044817
:10211000D0F8000118B10249D1F80001804710BD84
:10212000002E002010B50448D0F8040118B102496F
:10213000D1F80401804710BD002E002010B50448DE
:10214000D0F8080118B10249D1F80801804710BD44
:10215000002E002010B50448D0F80C0118B1024937
:10216000D1F80C01804710BD002E002010B50448A6
:10217000D0F8100118B10249D1F81001804710BD04
:10218000002E002010B50448D0F8140118B10249FF
:10219000D1F81401804710BD002E002010B504486E
:1021A000D0F8180118B10249D1F81801804710BDC4
:1021B000002E002010B50448D0F81C0118B10249C7
:1021C000D1F81C01804710BD002E002010B5044836
:1021D000D0F8200118B10249D1F82001804710BD84
:1021E000002E002010B50448D0F8240118B102498F
:1021F000D1F82401804710BD002E002010B50448FE
:10220000D0F8280118B10249D1F82801804710BD43
:10221000002E002010B50448D0F82C0118B1024956
:10222000D1F82C01804710BD002E002010B50448C5
:10223000D0F8300118B10249D1F83001804710BD03
:10224000002E002010B50448D0F8340118B102491E
:10225000D1F83401804710BD002E002010B504488D
:10226000D0F8380118B10249D1F83801804710BDC3
:10227000002E002010B50448D0F83C0118B10249E6
:10228000D1F83C01804710BD002E002010B5044855
:10229000D0F8400118B10249D1F84001804710BD83
:1022A000002E002010B50448D0F8440118B10249AE
:1022B000D1F84401804710BD002E002010B504481D
:1022C000D0F8480118B10249D1F84801804710BD43
:1022D000002E002010B50448D0F84C0118B1024976
:1022E000D1F84C01804710BD002E002010B50448E5
:1022F000D0F8500118B10249D1F85001804710BD03
:10230000002E002010B50448D0F8540118B102493D
:10231000D1F85401804710BD002E002010B50448AC
:10232000D0F8580118B10249D1F85801804710BDC2
:10233000002E002010B50448D0F85C0118B1024905
:10234000D1F85C01804710BD002E002010B5044874
:10235000D0F8600118B10249D1F86001804710BD82
:10236000002E002010B50448D0F8640118B10249CD
:10237000D1F86401804710BD002E002010B504483C
:10238000D0F8680118B10249D1F86801804710BD42
:10239000002E002010B50448D0F86C0118B1024995
:1023A000D1F86C01804710BD002E002010B5044804
:1023B000D0F8700118B10249D1F87001804710BD02
:1023C000002E002010B50448D0F8740118B102495D
:1023D000D1F87401804710BD002E002010B50448CC
:1023E000D0F8780118B10249D1F87801804710BDC2
:1023F000002E002010B50448D0F87C0118B1024925
:10240000D1F87C01804710BD002E002010B5044893
:10241000D0F8800118B10249D1F88001804710BD81
:10242000002E002010B50448D0F8840118B10249EC
:10243000D1F88401804710BD002E002010B504485B
:10244000D0F8880118B10249D1F88801804710BD41
:10245000002E002010B50448D0F88C0118B10249B4
:10246000D1F88C01804710BD002E002010B5044823
:10247000D0F8900118B10249D1F89001804710BD01
:10248000002E002010B50448D0F8940118B102497C
:10249000D1F89401804710BD002E002010B50448EB
:1024A000D0F8980118B10249D1F89801804710BDC1
:1024B000002E002010B50448D0F89C0118B1024944
:1024C000D1F89C01804710BD002E002010B50448B3
:1024D000D0F8A00118B10249D1F8A001804710BD81
:1024E000002E002010B50448D0F8A40118B102490C
:1024F000D1F8A401804710BD002E002010B504487B
:10250000D0F8A80118B10249D1F8A801804710BD40
:10251000002E002010B50448D0F8AC0118B10249D3
:10252000D1F8AC01804710BD002E002010B5044842
:10253000D0F8B00118B10249D1F8B001804710BD00
:10254000002E002010B50448D0F8B40118B102499B
:10255000D1F8B401804710BD002E002010B504480A
:10256000D0F8B80118B10249D1F8B801804710BDC0
:10257000002E002010B50448D0F8BC0118B1024963
:10258000D1F8BC01804710BD002E002010B50448D2
:10259000D0F8C00118B10249D1F8C001804710BD80
:1025A000002E002010B50448D0F8C40118B102492B
:1025B000D1F8C401804710BD002E002010B504489A
:1025C000D0F8C80118B10249D1F8C801804710BD40
:1025D000002E002010B50448D0F8CC0118B10249F3
:1025E000D1F8CC01804710BD002E002010B5044862
:1025F000D0F8D00118B10249D1F8D001804710BD00
:10260000002E002010B50448D0F8D40118B10249BA
:10261000D1F8D401804710BD002E002010B5044829
:10262000D0F8D80118B10249D1F8D801804710BDBF
:10263000002E002010B50448D0F8DC0118B1024982
:10264000D1F8DC01804710BD002E002010B50448F1
:10265000D0F8E00118B10249D1F8E001804710BD7F
:10266000002E002010B50448D0F8E40118B102494A
:10267000D1F8E401804710BD002E002010B50448B9
:10268000D0F8E80118B10249D1F8E801804710BD3F
:10269000002E002010B50448D0F8EC0118B1024912
:1026A000D1F8EC01804710BD002E002010B5044881
:1026B000D0F8F00118B10249D1F8F001804710BDFF
:1026C000002E002010B50448D0F8F40118B10249DA
:1026D000D1F8F401804710BD002E002010B5044849
:1026E000D0F8F80118B10249D1F8F801804710BDBF
:1026F000002E002010B50448D0F8FC0118B10249A2
:10270000D1F8FC01804710BD002E002010B55148C3
:10271000046851480068012804D104F0010008B1A0
:10272000AFF300804C48001D0068012804D104F07C
:10273000020008B1AFF30080474808300068012864
:1027400004D104F0040008B1AFF3008042480C301B
:102750000068012804D104F0080008B1AFF300803C
:102760003D4810300068012804D104F0100008B181
:10277000AFF30080384814300068012804D104F019
:10278000200008B1AFF300803348183000680128FA
:1027900004D104F0400008B1AFF300802E481C3093
:1027A0000068012804D104F0800008B1AFF3008074
:1027B000294820300068012804D104F4807008B151
:1027C000AFF30080244824300068012804D104F4C9
:1027D000007008B1AFF300801F482830006801285E
:1027E00004D104F4806008B1AFF300801A482C30A3
:1027F0000068012804D104F4006008B1AFF3008040
:10280000154830300068012804D104F4805008B124
:10281000AFF30080104834300068012804D104F47C
:10282000005008B1AFF300800B4838300068012831
:1028300004D104F4804008B1AFF3008006483C3076
:102840000068012804D104F4004008B1AFF300800F
:1028500010BD00005C120540800AA24270B5FE481F
:10286000046800260025FD48006801282BD1FC489B
:10287000006840B9FB480068012804D104F0010059
:1028800008B1AFF30080F6484030006848B9F54819
:1028900040300068012804D104F4807008B1AFF31F
:1028A0000080F148406800F00116EF48C1684FF021
:1028B000011020EA010506EA050020B104F4803089
:1028C00008B1AFF30080E948006801282DD1E44841
:1028D000001D006848B9E348001D0068012804D1C4
:1028E00004F0020008B1AFF30080DD484430006816
:1028F00048B9DC4844300068012804D104F4007071
:1029000008B1AFF30080D848406800F00216D648FE
:10291000C1684FF0021020EA010506EA050020B167
:1029200004F4803008B1AFF30080D148006801287A
:102930002DD1CB480830006848B9CA480830006833
:10294000012804D104F0040008B1AFF30080C448AA
:102950004830006848B9C34848300068012804D1AD
:1029600004F4806008B1AFF30080BF48406800F015
:102970000416BD48C1684FF0041020EA010506EABC
:10298000050020B104F4803008B1AFF30080B948ED
:10299000006801282DD1B2480C30006848B9B14810
:1029A0000C300068012804D104F0080008B1AFF32E
:1029B0000080AB484C30006848B9AA484C300068E9
:1029C000012804D104F4006008B1AFF30080A648E8
:1029D000406800F00816A448C1684FF0081020EACB
:1029E000010506EA050020B104F4803008B1AFF318
:1029F0000080A148006801282CD1A048006840B997
:102A00009F480068012804D104F0100008B1AFF31A
:102A100000809A484030006848B9994840300068C2
:102A2000012804D104F4805008B1AFF30080954828
:102A3000006800F001169348083001684FF001105B
:102A400020EA010506EA050020B104F4003008B1CF
:102A5000AFF300808C48006801282ED18748001D04
:102A6000006848B98648001D0068012804D104F0B8
:102A7000200008B1AFF3008080484430006848B9B6
:102A8000784844300068012804D104F4005008B1AB
:102A9000AFF300807B48006800F0021679480830E8
:102AA00001684FF0021020EA010506EA050020B196
:102AB00004F4003008B1AFF30080744800680128C6
:102AC0002ED16E480830006848B96D48083000685B
:102AD000012804D104F0400008B1AFF3008067483A
:102AE0004830006848B95F4848300068012804D180
:102AF00004F4804008B1AFF300806248006800F041
:102B000004166048083001684FF0041020EA0105FF
:102B100006EA050020B104F4003008B1AFF30080EC
:102B20005B48006801282ED154480C30006848B931
:102B300053480C300068012804D104F0800008B12B
:102B4000AFF300804D484C30006848B945484C30E0
:102B50000068012804D104F4004008B1AFF30080FC
:102B60004848006800F008164648083001684FF0F1
:102B7000081020EA010506EA050020B104F400303F
:102B800008B1AFF3008043480068012809D14248EA
:102B9000006800F00F0020B104F4802008B1AFF30A
:102BA00000803C4808300068012809D13948EC38D9
:102BB0000068012804D104F4002008B1AFF30080BC
:102BC0003448001D0068012809D13248F0380068F7
:102BD000012804D104F4801008B1AFF300804FF055
:102BE0001C40C068C0F3C01020B104F4800008B1DC
:102BF000AFF3008029488669456806EA050000F0C1
:102C00007F0020B104F4000008B1AFF30080244835
:102C1000066823481438056806EA050000F07F00BE
:102C200020B104F0807008B1AFF300801D48066841
:102C30001C481438056806EA050000F07F0020B142
:102C400004F0007008B1AFF300801748066816481A
:102C5000143805682AE0000060120540B00BA64257
:102C60000002A6420001A64200300540B013A64271
:102C7000B01BA642B023A642B08BA6420082A64259
:102C80000081A64204340540B093A642B09BA64200
:102C9000B0A3A6420083204210040140002005405A
:102CA0001824054018280540182C054006EA0500A0
:102CB00000F07F0020B104F0806008B1AFF3008025
:102CC00070BD000010B52F4804682F48D0F80802E6
:102CD000012808D12D480068012804D104F0010022
:102CE00008B1AFF30080294838380068012809D1BD
:102CF000264840300068012804D104F0020008B1E1
:102D0000AFF3008022480068012809D120487830BC
:102D10000068012804D104F0040008B1AFF300807A
:102D20001B4840300068012809D11948B8300068B4
:102D3000012804D104F0080008B1AFF30080154861
:102D40000068012809D1134820300068012804D107
:102D500004F4001008B1AFF300800F48006B0128A5
:102D600004D104F4800008B1AFF300800B48006880
:102D700000F4403020B104F4000008B1AFF300804B
:102D800010BD000064120540000048428002484225
:102D9000088248420008A8420080984204940440F7
:102DA00070B5AA48046800260025A94800680128D3
:102DB00008D1A8480068012804D104F0010008B136
:102DC000AFF30080A248001D0068012809D1A14886
:102DD000001D0068012804D104F0020008B1AFF31F
:102DE00000809B4808300068012809D199480830C4
:102DF0000068012804D104F0040008B1AFF300809A
:102E000093480C300068012809D192480C300068C2
:102E1000012804D104F0080008B1AFF300808C4809
:102E200010300068012809D18A4810300068012854
:102E300004D104F0100008B1AFF3008084481430CE
:102E40000068012809D1834814300068012804D1A2
:102E500004F0200008B1AFF300807D48183000680E
:102E6000012809D17B4818300068012804D104F0FA
:102E7000400008B1AFF3008075481C30006801289D
:102E800009D174481C300068012804D104F0800086
:102E900008B1AFF300806E4820300068012809D1E6
:102EA0006C4820300068012804D104F4807008B117
:102EB000AFF300806848406D00F44030C6096648B2
:102EC000006F00F4C06506EA050020B104F400605C
:102ED00008B1AFF300806048406D00F44020C6099F
:102EE0005D48006F00F4C05506EA050020B104F407
:102EF000805008B1AFF3008058480068012808D11D
:102F000057480068012804D104F4803008B1AFF3B9
:102F100000805248001D0068012809D15048001D5A
:102F20000068012804D104F4003008B1AFF3008038
:102F30004A4808300068012809D14948083000682B
:102F4000012804D104F4802008B1AFF30080434885
:102F50000C300068012809D141480C300068012874
:102F600004D104F4002008B1AFF300803B481030D6
:102F70000068012809D13A4810300068012804D1BE
:102F800004F4801008B1AFF30080344814300068B6
:102F9000012809D1324814300068012804D104F412
:102FA000001008B1AFF300802C48183000680128E9
:102FB00009D12B4818300068012804D104F480009E
:102FC00008B1AFF3008025481C300068012809D102
:102FD00023481C300068012804D104F4000008B123
:102FE000AFF300801D4820300068012809D11C483B
:102FF00020300068012804D104F0807008B1AFF3DC
:1030000000801848006800F44030C60915481C309C
:10301000006800F4C06506EA050020B104F0006015
:1030200008B1AFF300800F48006800F44020C609E3
:103030000C481C30006800F4C05506EA050020B1B9
:1030400004F0805008B1AFF3008070BD68120540F5
:10305000800A3042000E304200800140808A3042B7
:10306000008E30425484014070B5574804680026F1
:10307000002556480068012808D1554800680128F5
:1030800004D104F0010008B1AFF300804F48001DE7
:103090000068012809D14E48001D0068012804D1AC
:1030A00004F0020008B1AFF300804848083000681F
:1030B000012809D1464808300068012804D104F0ED
:1030C000040008B1AFF3008040480C3000680128CC
:1030D00009D13F480C300068012804D104F00800F1
:1030E00008B1AFF30080394810300068012809D1D9
:1030F000374810300068012804D104F0100008B1EE
:10310000AFF30080314814300068012809D13048FD
:1031100014300068012804D104F0200008B1AFF396
:1031200000802A4818300068012809D12848183042
:103130000068012804D104F0400008B1AFF300801A
:1031400022481C300068012809D121481C30006841
:10315000012804D104F0800008B1AFF300801B48BF
:1031600020300068012809D1194820300068012862
:1031700004D104F4807008B1AFF3008015480068F2
:1031800000F44030C60913481C30006800F4C065E4
:1031900006EA050020B104F4006008B1AFF3008036
:1031A0000C48006800F44020C6090A481C3000683A
:1031B00000F4C05506EA050020B104F4805008B1BF
:1031C000AFF3008070BD00006C120540800A3142F0
:1031D000000E31425488014070B500240026BA48E0
:1031E0000568BA48D0F8804004F4805038B104F43F
:1031F000804020B105F0010008B1AFF3008004F475
:10320000005038B104F4004020B105F0020008B1CC
:10321000AFF30080AD4890300468AC48D0F89C60B3
:1032200004EA0600C0B220B105F0040008B1AFF313
:103230000080A748046804F4805038B104F480404A
:1032400020B105F0080008B1AFF3008004F400508D
:1032500038B104F4004020B105F0100008B1AFF31C
:1032600000809B481030046899481C30066804EAC6
:103270000600C0B220B105F0200008B1AFF3008015
:103280009448046804F4805038B104F4804020B1BC
:1032900005F0400008B1AFF3008004F4005038B1ED
:1032A00004F4004020B105F0800008B1AFF30080C5
:1032B00088481030046887481C30066804EA060015
:1032C000C0B220B105F4807008B1AFF3008082482D
:1032D000046804F4805038B104F4804020B105F44F
:1032E000007008B1AFF3008004F4005038B104F46A
:1032F000004020B105F4806008B1AFF3008076484B
:103300001030046874481C30066804EA0600C0B235
:1033100020B105F4006008B1AFF300806F48046885
:1033200004F4805038B104F4804020B105F480509A
:1033300008B1AFF3008004F4005038B104F4004049
:1033400020B105F4005008B1AFF30080634810309D
:10335000046862488038D0F89C6004EA0600C0B275
:1033600020B105F4804008B1AFF300805C480468E8
:1033700004F4805038B104F4804020B105F480306A
:1033800008B1AFF3008004F4005038B104F40040F9
:1033900020B105F4003008B1AFF300805048103080
:1033A00004684F481C30066804EA0600C0B220B129
:1033B00005F4802008B1AFF300804A480068012876
:1033C00010D149488069494900EA010446484069EA
:1033D00000EA010604EA060020B105F4002008B165
:1033E000AFF3008042480468C66806F0200038B198
:1033F00004F00B0020B105F4800008B1AFF30080A9
:1034000006EA040000F0200020B105F4000008B135
:10341000AFF3008006EA040000F0800020B105F060
:10342000807008B1AFF3008006EA040000F04000AD
:1034300020B105F0007008B1AFF3008006F0020083
:1034400038B104F4807020B105F0806008B1AFF3AA
:1034500000802848046827480C30066806F02000E1
:1034600038B104F00B0020B105F0006008B1AFF3F3
:10347000008006EA040000F0200020B105F0805032
:1034800008B1AFF3008006EA040000F0800020B12C
:1034900005F0005008B1AFF3008006EA040000F028
:1034A000400020B105F0804008B1AFF3008006F085
:1034B000020038B104F4807020B105F0004008B17A
:1034C000AFF3008070BD00007C1205400050014049
:1034D0008054014080580140805C01408060014080
:1034E000806401400001804300000C40FBFC7CF73D
:1034F00000D0014000D4014070B500240026994856
:10350000056899480468C66806F0200038B104F0E0
:103510000B0020B105F0010008B1AFF3008006EA0E
:10352000040000F0200020B105F0020008B1AFF364
:10353000008006EA040000F0800020B105F00400DD
:1035400008B1AFF3008006EA040000F0400020B1AB
:1035500005F0080008B1AFF3008006F0020038B1B2
:1035600004F4807020B105F0100008B1AFF30080C2
:103570007E4804687D480C30066806F0200038B1AB
:1035800004F00B0020B105F0200008B1AFF300807B
:1035900006EA040000F0200020B105F0400008B168
:1035A000AFF3008006EA040000F0800020B105F0CF
:1035B000800008B1AFF3008006EA040000F040008C
:1035C00020B105F4807008B1AFF3008006F002006E
:1035D00038B104F4807020B105F4007008B1AFF385
:1035E000008063484468466904F4806038B106F09E
:1035F000800020B105F4006008B1AFF3008004F44E
:10360000007038B106F0200020B105F4805008B1F8
:10361000AFF3008004F4006038B106F0010020B977
:1036200005F4005008B1AFF3008004F4807038B1A5
:1036300006F01D0020B105F4804008B1AFF3008012
:103640004C4804684B481030066804F4806038B178
:1036500006F0800020B105F4803008B1AFF300809F
:1036600004F4007038B106F0200020B105F40030F9
:1036700008B1AFF3008004F4006038B106F0010037
:1036800020B905F4802008B1AFF3008004F4807005
:1036900038B106F01D0020B105F4002008B1AFF3E9
:1036A000008035484468466904F4806038B106F00B
:1036B000800020B105F4001008B1AFF3008004F4DD
:1036C000007038B106F0200020B105F4800008B188
:1036D000AFF3008004F4006038B106F0010020B9B7
:1036E00005F4000008B1AFF3008004F4807038B135
:1036F00006F01D0020B105F0807008B1AFF3008026
:103700001E4804681D481030066804F4806038B113
:1037100006F0800020B105F0806008B1AFF30080B2
:1037200004F4007038B106F0200020B105F000600C
:1037300008B1AFF3008004F4006038B106F0010076
:1037400020B905F0805008B1AFF3008004F4807018
:1037500038B106F01D0020B105F0005008B1AFF3FC
:10376000008070BD8012054000100240001402402D
:1037700000C0014004C401400000024004040240B3
:1037800070B500248A4805688A48048B05F001005A
:1037900038B104F0100020B104F0400008B1AFF3DC
:1037A000008005F0020038B104F0200020B104F0E0
:1037B000800008B1AFF300807E48848B05F00400E0
:1037C00038B104F0100020B104F0400008B1AFF3AC
:1037D000008005F0080038B104F0200020B104F0AA
:1037E000800008B1AFF300807248048C05F010002F
:1037F00038B104F0100020B104F0400008B1AFF37C
:10380000008005F0200038B104F0200020B104F061
:10381000800008B1AFF3008066484830048805F0A6
:10382000400038B104F4807020B104F4007008B195
:10383000AFF3008005F0800038B104F4005020B1EF
:1038400004F4804008B1AFF300805A48A4300488E3
:1038500005F4807040B104F00100C04320B104F0D1
:10386000100008B1AFF3008005F4007040B104F01F
:103870000200C04320B104F4807008B1AFF30080AF
:1038800005F4806040B104F00400C04320B104F4AA
:10389000805008B1AFF300804748048805F48030B9
:1038A00038B104F0100020B104F0400008B1AFF3CB
:1038B000008005F4003038B104F0200020B104F09D
:1038C000800008B1AFF300803B48001D048805F478
:1038D000802038B104F0100020B104F0400008B19D
:1038E000AFF3008005F4002038B104F0200020B1CF
:1038F00004F0800008B1AFF300802F48083004883E
:1039000005F4801038B104F0100020B104F040003C
:1039100008B1AFF3008005F4001038B104F02000C6
:1039200020B104F0800008B1AFF3008022483030AD
:10393000048805F4800038B104F4807020B104F4E8
:10394000007008B1AFF3008005F4000038B104F452
:10395000005020B104F4804008B1AFF30080164855
:103960008C30048805F0807040B104F00100C04341
:1039700020B104F0100008B1AFF3008005F0007032
:1039800040B104F00200C04320B104F4807008B1DB
:10399000AFF3008005F0806040B104F00400C04344
:1039A00020B104F4805008B1AFF3008070BD000076
:1039B00084120540007001401848024070B5002490
:1039C000464805684648048805F0010038B104F00F
:1039D000100020B104F0400008B1AFF3008005F002
:1039E000020038B104F0200020B104F0800008B1DA
:1039F000AFF300803A48001D048805F0040038B198
:103A000004F0100020B104F0400008B1AFF30080D2
:103A100005F0080038B104F0200020B104F0800067
:103A200008B1AFF300802E480830048805F010007C
:103A300038B104F0100020B104F0400008B1AFF339
:103A4000008005F0200038B104F0200020B104F01F
:103A5000800008B1AFF3008021483030048805F0C1
:103A6000400038B104F4807020B104F4007008B153
:103A7000AFF3008005F0800038B104F4005020B1AD
:103A800004F4804008B1AFF3008015488C300488FE
:103A900005F4807040B104F00100C04320B104F08F
:103AA000100008B1AFF3008005F4007040B104F0DD
:103AB0000200C04320B104F4807008B1AFF300806D
:103AC00005F4806040B104F00400C04320B104F468
:103AD000805008B1AFF3008070BD0000881205402F
:103AE000184C024070B57A480468002600257948D1
:103AF000006800F00F0677480830006800F00F05F6
:103B000006EA050020B104F0400008B1AFF30080E0
:103B100070482030006800F00F066E4828300068BA
:103B200000F00F0506EA050020B104F0800008B19E
:103B3000AFF3008067484030006800F00F0665482A
:103B40004830006800F00F0506EA050020B104F4D3
:103B5000807008B1AFF300805E486030006800F00C
:103B60000F065C486830006800F00F0506EA0500A3
:103B700020B104F4007008B1AFF3008056484068EB
:103B8000012809D1544880300068012804D104F488
:103B9000803008B1AFF300804F48C068012809D1D8
:103BA0004D4884300068012804D104F4003008B185
:103BB000AFF3008048480069012809D14748806870
:103BC00000F0030020B104F4802008B1AFF30080BE
:103BD00043484068012809D14148803000680128E5
:103BE00004D104F4002008B1AFF300803C48C06861
:103BF000012809D13A4884300068012804D104F42E
:103C0000801008B1AFF3008035480069012809D160
:103C10003448006800F0030020B104F4001008B13B
:103C2000AFF3008030484068012809D12E48803029
:103C30000068012804D104F4800008B1AFF30080CB
:103C40002948C068012809D1274884300068012824
:103C500004D104F4000008B1AFF3008022480069E9
:103C6000012809D12148806800F0030020B104F048
:103C7000807008B1AFF300801D484068012809D169
:103C80001B4880300068012804D104F0007008B19E
:103C9000AFF300801648C068012809D11448843069
:103CA0000068012804D104F0806008B1AFF30080FF
:103CB0000F480069012809D10E48006800F0030090
:103CC00020B104F0006008B1AFF3008070BD0000C7
:103CD0008C1205400C7C014000003C4200E0014099
:103CE00000803C4208E401400000444200200240C1
:103CF000008044420824024070B5874804680026CA
:103D000000258648D0F89800012808D1844800682A
:103D1000012804D104F0100008B1AFF300807F48FF
:103D20008C300068012809D17D480C3800680128D2
:103D300004D104F0200008B1AFF3008077489C3034
:103D40000068012809D17648001D0068012804D1C7
:103D500004F0400008B1AFF3008072484068724937
:103D600000EA01066F48C06900EA010506EA05009D
:103D700020B104F0800008B1AFF300806B48006808
:103D8000012808D16A480068012804D104F4807031
:103D900008B1AFF3008065480C380068012809D1EC
:103DA00063480C380068012804D104F4007008B19D
:103DB000AFF300805D48001D0068012809D15C4810
:103DC000001D0068012804D104F4806008B1AFF33D
:103DD000008058480068544900EA010655481830E8
:103DE000006800EA010506EA050020B104F400605D
:103DF00008B1AFF3008050480068012808D14F484F
:103E00000068012804D104F4805008B1AFF30080A9
:103E100049480C380068012809D148480C38006826
:103E2000012804D104F4005008B1AFF300804248E7
:103E3000001D0068012809D14048001D00680128C4
:103E400004D104F4804008B1AFF300803C4800681E
:103E5000354900EA01063A481830006800EA0105D1
:103E600006EA050020B104F4004008B1AFF3008079
:103E700034480068012808D133480068012804D17B
:103E800004F4003008B1AFF300802E481030006811
:103E9000012809D12C4810300068012804D104F40D
:103EA000802008B1AFF3008028480068012809D1BC
:103EB000264880300068012804D104F4801008B13D
:103EC000AFF300802148001D0068012809D11F4878
:103ED00084300068012804D104F4001008B1AFF365
:103EE00000801A4808300068012809D11748883036
:103EF0000068012804D104F4800008B1AFF3008009
:103F00001348406800F4403020B104F4000008B1C8
:103F1000AFF3008070BD00009012054000009C428D
:103F200098039C4200E004401752F00098809C42A5
:103F300098839C4204E4044098009D4298039D426B
:103F400004E804406082A842241CA84200839042F6
:103F50000090044070B53C48046800253B48006868
:103F6000012809D1394820380068012804D104F01B
:103F7000010008B1AFF300803448001D006801283B
:103F800009D132481C380068012804D104F002002D
:103F900008B1AFF300802E4805882E48006801283C
:103FA00009D12D480068012800D025B104F0040093
:103FB00008B1AFF3008027480068012809D12648DE
:103FC0000068012800D025B104F0080008B1AFF363
:103FD000008022480068012809D120482038006864
:103FE000012804D104F0100008B1AFF300801B4891
:103FF000001D0068012809D118481C3800680128F4
:1040000004D104F0200008B1AFF300801448006828
:10401000012809D113480088C0F3080020B104F03A
:10402000400008B1AFF300800D480068012809D1B5
:104030000C480088C0F3080020B104F0800008B1EB
:10404000AFF3008070BD000094120540E00880428C
:10405000B00004402014804240168042E088804234
:1040600020948042B00404402DE9F05F0026B3465E
:10407000002400250027A046A146A2463A48006831
:1040800001281AD13948078838480830B0F800802C
:10409000801FB0F8009035480A30B0F800A007EA59
:1040A000080040F2F711084028B909EA0A0040F276
:1040B0007F11084008B1AFF300802B480C30006836
:1040C000012815D12A48078EB0F83880B0F8329010
:1040D000B0F83AA007EA080040F2F711084028B902
:1040E00009EA0A0040F27F11084008B1AFF30080EE
:1040F0001D4810300068012834D11E480678401E43
:1041000090F800B0801C04781A481A30057805F041
:10411000200028BB06F0010010BB06EA0B0000F0EF
:10412000FE00E8B904F0010010B104F00200B8B9D3
:1041300004F0040010B104F0080088B904F0100085
:1041400010B104F0200058B905F0080010B105F0D6
:10415000100028B905F0400020B105F0800008B13A
:10416000AFF30080BDE8F09F0853A24230FC064048
:1041700000000740A504074010B500F025F900F045
:1041800049F9FDF787F94FF4E13003F0E1F910BD8B
:104190001CB500BF00200090019000BF01208DF8E9
:1041A000000002208DF8050000208DF80600012097
:1041B0008DF802008DF800007B4A11887B4A107848
:1041C0006A4600F039FA00208DF80000764A5188DE
:1041D000764A50786A4600F02FFA01208DF80000E8
:1041E000714A9188714A90786A4600F025FA002059
:1041F0008DF800006C4AD1886C4AD0786A4600F08D
:104200001BFA00208DF80000674A1189674A10796F
:104210006A4600F011FA00208DF80000624A5189C8
:10422000624A50796A4600F007FA00208DF80000D3
:104230005D4A91895D4A90796A4600F0FDF9002057
:104240008DF80000584AD189584AD0796A4600F062
:10425000F3F900208DF80000534A118A534A107A6E
:104260006A4600F0E9F900208DF800004E4A518AB4
:104270004E4A507A6A4600F0DFF94B4A918A4B4A1F
:10428000907A6A4600F0D8F9474AD18A474AD07AEC
:104290006A4600F0D1F9444A118B444A107B6A46C1
:1042A00000F0CAF9404A518B404A507B6A4600F000
:1042B000C3F93D4A918B3D4A907B6A4600F0BCF9B8
:1042C000394AD18B394AD07B6A4600F0B5F9364A73
:1042D000118C364A107C6A4600F0AEF9324A518C95
:1042E000324A507C6A4600F0A7F900208DF80000A1
:1042F0002D4A918C2D4A907C6A4600F09DF9002051
:104300008DF8000001208DF80000274AD18D274A42
:10431000D07D6A4600F090F900208DF80000224A16
:10432000118E224A107E6A4600F086F901208DF82F
:1043300000001D4A518E1D4A507E6A4600F07CF9ED
:1043400000208DF80000184A918E184A907E6A4627
:1043500000F072F901208DF80000134AD18E134A43
:10436000D07E6A4600F068F901208DF800000E4A00
:10437000118F0E4A107F6A4600F05EF900208DF81A
:104380000000094A518F094A507F6A4600F054F9EB
:1043900001208DF80000044A918F044A907F6A46FC
:1043A00000F04AF91CBD000014770000F47600000C
:1043B00010B5FCF78BFF02F001FB02F0FDFA02F0F2
:1043C00049FEFDF7F9F810BD10B5FDF783FB01209C
:1043D000FDF788F900BF4FF48070FDF7B1F90128AF
:1043E000F9D14FF468300068064908704FF478300E
:1043F000006805490870012004490880000204494A
:10440000088010BD2C80FF1F2D80FF1F3C80FF1FE8
:104410003E80FF1F00B58DB000BF00200B900C90B8
:1044200000BF00BF09900A9000BF00BF202101A873
:10443000FBF796FF00BF01A8FCF79EFA01210220BE
:1044400000F014FC00208DF82F008DF82D000220C4
:104450008DF82C000598800840F2E731B0FBF1F0B0
:1044600080B2ADF830000BAA0121134801F064F8C6
:1044700001221146104801F0A9FC0220ADF82600E7
:104480004320ADF824000D480A9009A802F002FE6E
:10449000BDF9260002F08CFCBDF926000F2102F0C8
:1044A000C5FCBDF9260002F09FFC0122114602481E
:1044B00001F0C4FB0DB000BD004402407962000071
:1044C00010B5AFF3008010BD10B500F001F810BDBD
:1044D00010B500BF0648006800B104E04FF4A371B6
:1044E00004A0FDF773F800BF01480068804710BDC5
:1044F0006080FF1F2E2E5C2E2E5C2E2E5C2E2E5CDE
:104500006472697665725C7372635C686333326689
:104510003436785F6578696E745F6E6D695F737746
:10452000692E630010B500F059FB00222BE000203B
:104530001C4C04EB0211A1F8040804EB0211A1F8D1
:10454000060804EB0211A1F8080804EB0211A1F817
:104550000A08002312E0052A02D1032B00D10FE044
:104560000020114901EB821121F823000E49891C1A
:1045700001EB821121F82300581CC3B2102BEAD39F
:1045800000BF501CC2B2052AD1DD002006490839FF
:104590000880891C08801F20891F088000F050F9BE
:1045A000002010BD00300540003C054070B50446B9
:1045B0000D4600BF1F2C00D804E04FF4C57113A0B6
:1045C000FDF704F800BF00BF0DB1012D00D104E0DC
:1045D00040F28B110DA0FCF7F9FF00BF00F0FEFACE
:1045E000012D07D11348008804F01F010843114929
:1045F000088006E00F48008804F01F0188430D4939
:10460000088000F01DF9002070BD00002E2E5C2EE9
:104610002E5C2E2E5C2E2E5C6472697665725C7345
:1046200072635C68633332663436785F6770696FD3
:104630002E630000F43B05402DE9F047064689460D
:104640001446002700BF4EB1012E07D0022E05D020
:10465000032E03D0042E01D0052E00D104E040F239
:1046600013116CA0FCF7B2FF00BF00BF207828B187
:104670002078012802D02078022800D104E040F2FE
:10468000151164A0FCF7A2FF00BF00BF607928B13C
:104690006079012802D06079022800D104E04FF44B
:1046A0008B715CA0FCF792FF00BF00BFA07910B136
:1046B000A079012800D104E040F2171155A0FCF7C1
:1046C00085FF00BF00BF607810B16078012800D17D
:1046D00004E04FF48C714FA0FCF778FF00BF00BFDF
:1046E000A07810B1A078012800D104E040F219119F
:1046F00048A0FCF76BFF00BF00BFE07810B1E07886
:10470000012800D104E04FF48D7142A0FCF75EFF58
:1047100000BF00BF207910B12079012800D104E04A
:1047200040F21B113BA0FCF751FF00BF00BFE07936
:1047300010B1E079012800D104E04FF48E7135A06A
:10474000FCF744FF00BF00F049FA00275AE00120BF
:10475000B84000EA090078B3384800EB861000EB57
:1047600087053648801C00EB861000EB87086178CF
:10477000288861F38E302880A178288861F30C3076
:104780002880E178288861F34920288021792888C9
:1047900061F386102880A179288861F3820028803F
:1047A0006179288861F305102880207828B10128D4
:1047B0000CD002281BD113E022E0288820F400400E
:1047C0002880288820F00200288011E0288820F422
:1047D00000402880288820F00200801C288007E004
:1047E000288820F4004000F50040288000E000BF49
:1047F00000BFE179B8F8000061F30820A8F80000D4
:10480000781CC7B2102FA2D300F01AF80020BDE820
:10481000F08700002E2E5C2E2E5C2E2E5C2E2E5C41
:104820006472697665725C7372635C686333326666
:104830003436785F6770696F2E630000003C054076
:104840004FF425400149088070470000FC3B0540BB
:104850002DE9F04104460E46174600BF4CB1012C2D
:1048600007D0022C05D0032C03D0042C01D0052C3A
:1048700000D104E040F23F2109A0FCF7A7FE00BFF1
:104880001148102101FB0405012F03D12888304372
:10489000288002E02888B04328800020BDE8F0810D
:1048A0002E2E5C2E2E5C2E2E5C2E2E5C6472697673
:1048B00065725C7372635C68633332663436785F4A
:1048C0006770696F2E6300000638054070B50446B6
:1048D0000E4600BF4CB1012C07D0022C05D0032C92
:1048E00003D0042C01D0052C00D104E040F2762145
:1048F00006A0FCF76BFE00BF0E48102101FB04056B
:10490000288830432880002070BD00002E2E5C2EA9
:104910002E5C2E2E5C2E2E5C6472697665725C7342
:1049200072635C68633332663436785F6770696FD0
:104930002E6300000A38054070B504460E4600BFDD
:104940004CB1012C07D0022C05D0032C03D0042C31
:1049500001D0052C00D104E040F25E2106A0FCF756
:1049600035FE00BF0E48102101FB040528883043A6
:104970002880002070BD00002E2E5C2E2E5C2E2E76
:104980005C2E2E5C6472697665725C7372635C681F
:10499000633332663436785F6770696F2E63000068
:1049A000083805402DE9F0470546894614461F465C
:1049B0004FF0000800BF4DB1012D07D0022D05D0EA
:1049C000032D03D0042D01D0052D00D104E040F2C9
:1049D000CF215CA0FCF7FAFD00BF00BF002C73D014
:1049E000012C71D070D06FD06ED06DD0022C6BD0F6
:1049F000032C69D0042C67D0052C65D0062C63D01D
:104A000062D0072C60D05FD05ED0082C5CD0092C1F
:104A10005AD00A2C58D057D00E2C55D00F2C53D02A
:104A2000202C51D050D0212C4ED04DD0222C4BD008
:104A30004AD0232C48D047D0242C45D044D0252C14
:104A400042D041D0262C3FD03ED0272C3CD03BD06A
:104A5000282C39D038D0292C36D035D02A2C33D038
:104A600032D02B2C30D02FD02C2C2DD02CD02D2C44
:104A70002AD029D02E2C27D026D02F2C24D023D0BA
:104A8000302C21D020D0312C1ED01DD0322C1BD068
:104A90001AD0332C18D017D0342C15D014D0352C74
:104AA00012D011D0362C0FD00ED0372C0CD00BD00A
:104AB000382C09D008D0392C06D005D03A2C03D098
:104AC00002D03B2C00D000D104E04FF434711DA083
:104AD000FCF77CFD00BF00BF0FB1012F00D104E047
:104AE00040F2D12117A0FCF771FD00BF00F076F86D
:104AF0004FF000081DE0012000FA08F000EA09006C
:104B000098B11A48402101FB0500042101FB080669
:104B1000308864F305003080012F01D1012000E0CE
:104B20000020318860F30821318008F1010000F095
:104B3000FF08B8F1100FDED3FFF782FE0020BDE8BA
:104B4000F08700002E2E5C2E2E5C2E2E5C2E2E5C0E
:104B50006472697665725C7372635C686333326633
:104B60003436785F6770696F2E630000023C054041
:104B700070B504460E4600BF4CB1012C07D0022C84
:104B800005D0032C03D0042C01D0052C00D104E067
:104B900040F28D2106A0FCF719FD00BF0E48102140
:104BA00001FB0405288830432880002070BD0000E8
:104BB0002E2E5C2E2E5C2E2E5C2E2E5C6472697660
:104BC00065725C7372635C68633332663436785F37
:104BD0006770696F2E6300000C3805404AF201507F
:104BE0000149088070470000FC3B054070B5044651
:104BF0000D4600BF1148204008B904B104E040F25E
:104C0000F9210FA0FCF7E2FC00BF00BF0DB1012DA0
:104C100000D104E040F2FA2109A0FCF7D7FC00BF64
:104C2000012D05D110484068A0430F49486004E0B9
:104C30000D48406820430C49486070BD8602F0F082
:104C40002E2E5C2E2E5C2E2E5C2E2E5C64726976CF
:104C500065725C7372635C68633332663436785FA6
:104C60007077632E630000000080044070B5044636
:104C70000D4600BF1148204008B904B104E040F2DD
:104C80002A310FA0FCF7A2FC00BF00BF0DB1012D1F
:104C900000D104E040F22B3109A0FCF797FC00BFE3
:104CA000012D05D110488068A0430F49886004E0B9
:104CB0000D48806820430C49886070BD0078F8FF7B
:104CC0002E2E5C2E2E5C2E2E5C2E2E5C647269764F
:104CD00065725C7372635C68633332663436785F26
:104CE0007077632E630000000080044010B5044616
:104CF00000BF207810B12078012800D104E04FF4E3
:104D00007C7156A0FCF762FC00BF00BF607810B158
:104D10006078012800D104E040F2F1314FA0FCF7A7
:104D200055FC00BF00BFA07810B1A078012800D1C9
:104D300004E040F2F23149A0FCF748FC00BF00BF9C
:104D4000E07810B1E078012800D104E040F2F331BE
:104D500042A0FCF73BFC00BF00BF207910B12079D6
:104D6000012800D104E04FF47D713CA0FCF72EFC3B
:104D700000BF00BF607910B16079012800D104E064
:104D800040F2F53135A0FCF721FC00BF00BFA0794F
:104D900010B1A079012800D104E040F2F6312FA033
:104DA000FCF714FC00BF00BFE07910B1E0790128E6
:104DB00000D104E040F2F73128A0FCF707FC00BF67
:104DC00000BF207A10B1207A012800D104E04FF40E
:104DD0007E7122A0FCF7FAFB00BF00BF608948F299
:104DE0004301884204D0608949F26201884200D1BF
:104DF00004E040F2F93119A0FCF7E8FB00BF2148BC
:104E000000884AF2025108431E49088020786178E0
:104E100040EA4100A17840EA8100E17840EAC1001F
:104E2000217940EA0110617940EA4110A17940EA14
:104E30008110E17940EAC110217A40EA012012494B
:104E40004861608988610F4800884FF6FD7108400D
:104E500040F425400C49A1F8FE0310BD2E2E5C2E17
:104E60002E5C2E2E5C2E2E5C6472697665725C73ED
:104E700072635C68633332663436785F7077632EB2
:104E800063000000FE4305400040054010B5AFF34D
:104E9000008010BD70B504460D4674B935B10F4A97
:104EA000D18D0F4AD07DFFF711FD16E00B4AD18D51
:104EB0000B4AD07DFFF740FD0FE0012C0DD135B13D
:104EC000064A118F064A107FFFF700FD05E0034AEE
:104ED000118F034A107FFFF72FFD70BD147700007C
:104EE000F476000010B5AFF3008010BD2DE9F04F4F
:104EF0002DED028B83B004468A460026B14600BFE2
:104F00009FED410AB0EE408A00254FF0FF3B0420A0
:104F100002903E48844208D03D48844205D03D4836
:104F2000844202D03C48844267D1204601F0E4FE2E
:104F30000646002E61D0D14600EE109AB8EE400A27
:104F4000F1EE000A60EE200A00EE106AB8EE400AA8
:104F500080EE201AB7EE000A31EE400AB0EE408A29
:104F6000BCEEC80A10EE105AB5EEC08AF1EE10FA87
:104F700043D3FF2D41D80020029000EE105AB8EE26
:104F8000400A38EE400ADFED250AB4EEE00AF1EE01
:104F900010FA1EDD6A1C40410021A2FB097300FBD0
:104FA000093002FB01084FF480610022A7FB0103D6
:104FB00008FB013107FB021132460023CDE9000155
:104FC000FBF796F9B0F1800BBBF17F0F01D90420FC
:104FD0000290029888B9BBF17F0F01D8012100E04F
:104FE0000021E06861F35D70E060A0686BF306008B
:104FF000A060A06865F30F20A060029803B0BDEC2C
:10500000028BBDE8F08F00000000000000D00140DE
:1050100000D401400010024000140240ACC5273704
:105020002DE9F04F2DED028B89B004468B4600260A
:10503000B146B2469FED4F0AB0EE408A00BF002550
:10504000681E07904C4B0FCB03AF0FC70420029094
:105050004A48844208D04A48844205D0494884429C
:1050600002D0494884427FD1204601F045FE814666
:10507000B9F1000F78D05E466069C0F3425003A9D1
:1050800031F810A000EE106AF8EE400A00EE10AA07
:10509000B8EE400A20EE800AF0EE000A60EE200A28
:1050A00000EE109AB8EE401A81EE200AF7EE000AE0
:1050B00030EE600AB0EE408ABCEEC80A10EE105A1C
:1050C000B5EEC08AF1EE10FA4ED3FF2D4CD8002079
:1050D000029000EE105AB8EE400A38EE400ADFEDBA
:1050E0002B0AB4EEE00AF1EE10FA27DD6A1C40410B
:1050F0000023A2FB061C00FB06C002FB03021846AD
:10510000A1FB0A7302FB0A3201FB00284FF4007175
:105110000020A7FB012308FB013107FB0010CDE9AC
:1051200000204A460023DDE90001FBF7E1F8803862
:10513000079007987F2801D904200290029820B98F
:1051400007987F2802D8012101E00DE00021E068E6
:1051500061F35D70E0600798A16860F30601A160EB
:10516000A06865F30F20A060029809B0BDEC028B27
:10517000BDE8F08F000000005C77000000D0014027
:1051800000D401400010024000140240ACC5273793
:105190002DE9F04F2DED028B85B004468B4600269D
:1051A000B146B2469FED510AB0EE408A00BF0025DD
:1051B000681E0390042002904D48844208D04D4858
:1051C000844205D04C48844202D04C48844277D176
:1051D000204601F091FD8146B9F1000F7FD05E4677
:1051E000E068C0F3C03A00EE106AB8EE400AF2EE92
:1051F000000A60EE200A00EE10AAB8EE400AB0EEF7
:10520000001A31EE400A60EE800A00EE109AB8EE05
:10521000401A81EE200AF7EE000A30EE600AB0EE86
:10522000408ABCEEC80A10EE105AB5EEC08AF1EE04
:1052300010FA54D3FF2D52D80020029000EE105ADD
:10524000B8EE400A38EE400ADFED2D0AB4EEE00A6F
:10525000F1EE10FA2DDD0021DAF1020261EB01001E
:105260004FF0010C15EB0C0C41EB0103A2FB0C1EE3
:1052700000FB0CE002FB03020020A1FB067302FB13
:10528000063201FB00284FF400610022A7FB010356
:1052900008FB013107FB02114A460023CDE900015A
:1052A000FBF726F88038039003987F2801D9042063
:1052B0000290029820B903987F2802D8012101E0CA
:1052C0000DE00021E06861F35D70E0600398A16883
:1052D00060F30601A160A06865F30F20A06002984A
:1052E00005B0BDEC028BBDE8F08F000000000000AF
:1052F00000D0014000D401400010024000140240E0
:10530000ACC5273710B5AFF3008010BD00B589B02C
:1053100000BF00200790089000BF00BF069000BFAC
:1053200000BF142101A8FBF71BF800BF00208DF877
:105330001C0001208DF81D0000208DF81E000320A8
:105340008DF81F0002208DF820008DF8210001202B
:105350008DF8220007A8FBF715FE00208DF8190034
:1053600002208DF81A0001208DF8180006A8FBF71E
:105370005DFF0120FBF7D0FE012005902A2004905C
:1053800002200190029003900020FBF72FFD01A85E
:10539000FBF74EFCFCF79EFB0520FCF7EFFAFCF751
:1053A00007FA0120FBF7DEFB00BF0220FBF778FBCA
:1053B0000128FAD10520FBF759FD09B000BD000016
:1053C00000204AF20151204A11802049204A1160F0
:1053D000411E51609160D1604FF4805000BF011EAA
:1053E000A0F10100FBD101211A4A1170080300BF8E
:1053F000011EA0F10100FBD1134A123211700121EC
:10540000144A0C3211701449124A263AC2F800119B
:105410000121104A121D117000210E4A263A116214
:105420004FF4805000BF011EA0F10100FBD14FF4EA
:10543000805000BF011EA0F10100FBD14FF42541B7
:10544000014A118070470000FE430540EEFAFFFF5D
:1054500000800440264005400013101170B5002460
:105460001320012100220023294D2D7805F0070487
:10547000062C4AD2DFE804F003070B101419254D5F
:10548000254E356041E0254D234E35603DE04FF41B
:105490000045214E356038E0204D1F4E356034E028
:1054A0004FF400451C4E35602FE0194DDA352D685C
:1054B000C5F3C013164D263DD5F80051C5F308209D
:1054C000134DDA352D68290F114D263DD5F80051C1
:1054D00005F01F025BB9551C104EB6FBF5F5461CD6
:1054E00075434E1CB5FBF6F50B4E35600CE0012BF9
:1054F0000AD1551C074EB6FBF5F5461C75434E1CEC
:10550000B5FBF6F5044E356000BF00BF70BD00006E
:10551000264005400024F4000080FF1F00127A009E
:1055200000B50448006840F4700002490860FFF7C5
:1055300095FF00BD88ED00E02DE9F84304460E46D6
:1055400015464FF000080027002D70D000BFFE4820
:10555000844202D0FD48844200D104E040F2AB21F5
:10556000FBA0FCF733F800BF00BF0EB1012E00D145
:1055700004E04FF42B71F6A0FCF728F800BF00BF41
:105580002878E8B1287801281AD02878022817D07E
:105590002878032814D02878042811D028780528E2
:1055A0000ED0287806280BD02878072808D028782D
:1055B000082805D02878092802D028780A2800D1A0
:1055C00004E040F2AD21E2A0FCF700F800BF00BF0C
:1055D000687810B16878012800D104E040F2AE216B
:1055E000DBA0FBF7F3FF00BF00BFA87810B1A878DD
:1055F000012800D104E040F2AF21D5A0FBF7E6FF7F
:1056000000BF00BFE87810B1E878012800D104E0BD
:105610004FF42C71CEA0FBF7D9FF00BFCA488442DB
:105620000CD15EB900BFE878012801D105E000E3A4
:105630004FF42D71C6A0FBF7C9FF00BF2069009988
:1056400060F30001009120694108009861F3410076
:10565000009020698108009861F382000090207C0E
:105660008DF8000020690109009861F3071000908F
:105670002069010A009861F3082000902069410A1E
:10568000009861F3492000902069810A009861F335
:105690008A200090607C8DF801002069010B009841
:1056A00061F30C3000902069410B009861F34D309C
:1056B00000902069810B009861F38E300090206982
:1056C000C10B009861F3CF3000902069010C009865
:1056D00061F3104000902069410C009861F3514043
:1056E00000902069810C009861F392400090A07CAA
:1056F0008DF802002069010D009861F317500090A9
:105700002069010E009861F3186000902069410E35
:10571000009861F3596000902069810E009861F350
:105720009A600090E07C8DF803002069010F0098DA
:1057300061F31C7000902069410F009861F35D7067
:1057400000902069810F009861F39E70009020699D
:10575000C10F009861F3DF70009026B900986FF3D5
:105760000F00009002E0009880B20090009821693C
:1057700060F30001216100984108206961F3410054
:10578000206100988108206961F3820020619DF802
:105790000000207400980109206961F3071020615E
:1057A0000098010A206961F3082020610098410AED
:1057B000206961F3492020610098810A206961F322
:1057C0008A2020619DF8011061740098010B206906
:1057D00061F30C3020610098410B206961F34D307A
:1057E00020610098810B206961F38E302061009860
:1057F000C10B206961F3CF3020610098010C206952
:1058000061F3104020610098410C206961F3514020
:1058100020610098810C206961F3924020619DF81D
:105820000210A1740098010D206961F317502061E6
:105830000098010E206961F3186020610098410E04
:10584000206961F3596020610098810E206961F33D
:105850009A6020619DF80310E1740098010F20699F
:1058600061F31C7020610098410F206961F35D7045
:1058700020610098810F206961F39E70206100987B
:10588000C10F206961F3DF7020610122314620469B
:10589000FAF7B8FD07E038467F1CB0F5A04F02D9F3
:1058A0004FF0090803E0009821698842F3D100BF56
:1058B00016B1012E7ED1EBE0E87810B101280CD1B1
:1058C00005E06978009861F34920009006E0A97826
:1058D000009861F38A20009000E000BF00BF2978A3
:1058E000009861F3071000900098216960F30001AF
:1058F000216100984108206961F34100206100980E
:105900008108206961F3820020619DF80000207405
:1059100000980109206961F3071020610098010ACD
:10592000206961F3082020610098410A206961F331
:10593000492020610098810A206961F38A20206152
:105940009DF80110617419E00040024000440240DB
:105950002E2E5C2E2E5C2E2E5C2E2E5C64726976B2
:1059600065725C7372635C68633332663436785F89
:1059700074696D6572302E63000000000098010BA1
:10598000206961F30C3020610098410B206961F3BC
:105990004D3020610098810B206961F38E302061C9
:1059A0000098C10B206961F3CF3020610098010C91
:1059B000206900E03BE161F3104020610098410C58
:1059C000206961F3514020610098810C206961F3E6
:1059D000924020619DF80210A1740098010D206989
:1059E00061F3175020610098010E206961F318607F
:1059F00020610098410E206961F359602061009890
:105A0000810E206961F39A6020619DF80310E174B2
:105A10000098010F206961F31C7020610098410F0C
:105A2000206961F35D7020610098810F206961F346
:105A30009E7020610098C10F206961F3DF702061C2
:105A4000012231462046FAF7DDFCA888A060012239
:105A500031462046FAF7D6FCE978206961F3082040
:105A60002061012231462046FAF7CCFC002707E0EE
:105A700038467F1CB0F5A04F02D94FF0090805E069
:105A8000E8782169C1F300218842F1D100BFCFE05D
:105A9000E87810B101280CD105E06978009861F32D
:105AA0005960009006E0A978009861F39A60009030
:105AB00000E000BF00BF2978009861F31750009004
:105AC0000098216960F30001216100984108206974
:105AD00061F34100206100988108206961F3820030
